:020000040000FA
:06000000020B160201EFE5
:03002B000208A226
:0300430002065161
:030053000201297E
:03006B000207BCCD
:10008300020180010196511800020000860F000052
:100093000000200F0410560FCE0F00004A0F00007F
:1000A300000000000000000000000000000000004D
:1000B30000000000000006FFFFFF01010400971984
:1000C300000000E8030000FFFF661AE80300006475
:1000D300006400B801A0BB0D00A0BB0D000202002C
:1000E3000800000502070101051E02051E020A0A97
:1000F30001080803B80B02803E0102FEFFE8030A71
:10010300050001FFFF0A1401E0010105030101FFDE
:100113000F10FEFF532B00000000C5290000000054
:10012300FF000000FF00C0E074F212046EA2AFE40F
:1001330033F508D2AFAFA7AEA1EE5F54106006123D
:100143000CA475A1EFEE5F54086008120CAA75A108
:10015300F78023EEA2E092F0EFA2E082F050179036
:100163006198E0F8900928E0C398A2D265D0335093
:1001730002E8F075A1FE751A00E5088066C0E07418
:10018300F212046EA2AFE433FED2AF9061A4E0F8A2
:10019300759B00E59158540860087591F7120CF2AD
:1001A3008023E59158541060087591EF120CF88084
:1001B30014E591A2E092F0E8A2E082F05007E0C2D9
:1001C300E0F0120E4E9061A3E0F8E5E958540460A4
:1001D3000E120E2475E9FB906193E0A2E640F275DE
:1001E3001A00EEA2E092AF7F010204CDC0E074F2E8
:1001F30012046EA2AFE433FED2AF9061A5E0F8E53E
:10020300BF585404600675BFFB120E6680D1C3E469
:1002130098F8E499F91202528026C3E49AFAE49B0F
:10022300FBE920E7E9120252E498F8E499F922C3C2
:10023300E498F8E499F9120252E498F8E499F9C3BE
:10024300E49AFAE49BFB22EB20E7CFE920E7E0B94D
:100253000010BB0008E88AF084F8AAF022E4FBC887
:10026300FA22EB70227B10C833C8C933C933500755
:10027300C39AC3DBF280069A50012ADBEAC833F43F
:10028300C8C933F4C9FA2275F008E4C833C8C933BE
:10029300C933C99AC99B5004C92AC93BD5F0ECFBA1
:1002A300C833F4C8E4C9FA22080808EAC0E0EBC07E
:1002B300E086F0E7A4FA180986F0E7A42AFA1809F9
:1002C30086F0E7A42AFA180986F0E7A42AFA198621
:1002D300F0E7A4FBE5F02AFA190886F0E7A42BFB64
:1002E300E5F03AFA190886F0E7A42BFBE5F03AFAB1
:1002F30018180986F0E7A4C5F02BFBE43AFA1908AD
:10030300E7C5F0C6A426F6E5F03BFBE43AFA188607
:10031300F0E7A4F6E5F00826F6E43B08F6E43A082D
:10032300F6D0E0FBD0E0FA22E4CFC0E0E4CEC0E0B8
:10033300E4CDC0E0E4CCC0E075F020E626F608E6A4
:1003430033F608E633F608E633F6181818EC33FCF0
:10035300ED33FDEE33FEEF33FFC3EC9709ED970961
:10036300EE9709EF97191919400FFFEC97FC09ED68
:1003730097FD09EE97FE191906D5F0BFECF709EDC5
:10038300F709EEF709EFF7191919D0E0FCD0E0FDF2
:10039300D0E0FED0E0FF222518C582C0E0E5193485
:1003A300FFC583C0E0E518C3958224F810AF088524
:1003B30083198582188008858319858218D2AFCE68
:1003C300F0A3E520F0A37808E608F0A3DEFAEFF047
:1003D300A3E58124FAF8E608F0A3E608F0A3E6080B
:1003E300F0A30808E608F0A3E608F0A31581158139
:1003F300D0E0FED0E0F8158115811581E8C0E0EE6C
:10040300C0E022120BA8B90003020458E49004D1FF
:100413007874791A8002F0A3D8FCD9FA781A90007C
:10042300867A01BA00028007E493A3F608DAF97A20
:10043300447B1E90008778A379018015E493A3ADD4
:1004430082AE838A828B83F0A3AA82AB838D828E52
:1004530083D8E9D9E775829C7583FB7405120884F8
:100463007582C27583277400120884C0D02518C50D
:1004730082C0E0E51934FFC583C0E0E518C3958267
:1004830024F310AF088583198582188008858319A2
:10049300858218D2AFC8F0A3E9F0A3EAF0A3EBF08A
:1004A300A37908E709F0A3D8FAECF0A3EDF0A3EEE3
:1004B300F0A3EFF0A3D0E0F0A3D0E0F0A3D0E0F0FE
:1004C300A3E520F0A3E5F0F0A32285198385188224
:1004D300E0C0E0A3E0F9A3E0FAA3E0FBA37808E01F
:1004E300F608A3DFFAE0FCA3E0FDA3E0FEA3E0FF30
:1004F300A3E0C0E0A3E0C0E0A3E0F5D0A3E0F520D3
:10050300A3E0A3F5F010AF0885831985821880084E
:10051300858319858218D2AFD082D083D0E0F8D0FA
:10052300E032E4731E75F0108E218F2285822685BA
:100533008325851882851983E0CEA3E0CF852682A3
:10054300852583EBC9EAC8EDCBECCAC3E833C8E918
:1005530033C9EA33CAEB33CBC3EA9EF524EB9FF5E9
:1005630023B35004AB23AA24EC33CCED33CDD5F025
:10057300DAAE21AF2222D083D082ECC0E0EDC0E01E
:10058300E493A3FCE493A3FDED4C600D120694ECFD
:1005930024FFFCED34FFFD80EFE493A3FCE493A37D
:1005A300FDED4C600D120767EC24FFFCED34FFFDFD
:1005B30080EFD0E0FDD0E0FCE493A3C0E0E493C07F
:1005C300E022D083D082E9C0E0E493A3C386F0C5E0
:1005D300F095F0F908E493A386F0C5F095F0700B5D
:1005E300E493A3C3994005E9048002A3E475F002F0
:1005F300A42582F582E5F03583F583D0E0F9E49311
:10060300A3C0E0E493C0E022851983851882E0A3A8
:10061300FEE0A3F5207808E0A3F608DFFAE0A3FFE5
:10062300E0A3C0E0E0A3C0E0E0A3C0E0E0A3C0E03B
:10063300E0A3C0E010AF0885821885831980088580
:100643008218858319D2AFD083D08202088AC0E092
:1006530074F212046EA2AFE433FED2AFC2C0901B99
:1006630013E0700BE5D1A2E4501D120C028018E5D3
:10067300D1A2E3500675D1F7120BD8E5D1A2E4500D
:100683000675D1EF120BDEEEA2E092AF7F010204FA
:10069300CDC0E0C3E49396087401939618400FE429
:1006A3009366700808740193661870007019A3A309
:1006B300C3E49396087401939618A3A3400DD0E066
:1006C300D0E0D0E00205B5A3A3A3A3A3A3D0E02267
:1006D300D083D082C5F0E493A3C5F0C395F0F5F0C1
:1006E300E493A3C395F04005E5F0048001E475F0BD
:1006F30002A42582F582E5F03583F583E493A3C054
:10070300E0E493C0E0227404800474028000CCC04F
:10071300E0EDC0E0E518C39CCCAD1950011D10AF4E
:10072300068C188D1980068C188D19D2AF12080605
:10073300D0E0FDD0E0FC2274028000CCC0E0EDC02C
:10074300E0E518C39CCCAD1950011D10AF068C1801
:100753008D1980068C188D19D2AF1207E4D0E0FDF5
:10076300D0E0FC22C0E0C0F088F0E4936670080893
:1007730074019366187000A8F0A3A3700BD0F0D097
:10078300E0D0E0D0E00205B5A3A3D0F0D0E022D0C2
:1007930083D082CCC0E0E493A360061208461470B1
:1007A300FAE493A360061209891470FAD0E0FCE41A
:1007B30093A3C0E0E493C0E022C0E074F212046E9D
:1007C300758900C2C5901B13E0700E7A007B1090F0
:1007D30009BEE0F912113080031219827F0102046D
:1007E300CDCAC0E0E493A3C582CCC582C583CDC581
:1007F30083F0A3C582CCC582C583CDC583DAE5D09A
:10080300E0CA22CAC0E0E0A3C582CCC582C583CDBD
:10081300C583F0A3C582CCC582C583CDC583DAE683
:10082300D0E0CA22C008C3E096F50808A3E09642C8
:100833000808A3E096420808A3E09645087001D390
:10084300D00822C0E0E493A3D39C5010E493A3C345
:100853009C400AD0E0D0E0D0E00207AFA3A3A3D02E
:10086300E0227009080808226016181818C6C33356
:10087300C608C633C608C633C608C633C6D5E0EABB
:1008830022C09FF59FE473D09F22D083D082C09F64
:10089300E493C0E0740193C0E0740293F59F22C017
:1008A300E0C0D0E8C0E0A8A8D2AFC2C7751A00E87C
:1008B300A2E792AFD0E0F8D0D0D0E03200C0D0258C
:1008C3001810AF08F518500C05198008F5185002D8
:1008D3000519D2AFD0D0222518F58210AF08F5182C
:1008E300400C15198008F51840021519D2AF851967
:1008F30083227404800A74038006740280027401E4
:10090300C0E0F4041208DAD0E0120B5322BB010258
:10091300E722C082C08389828A83BB0003E080020E
:10092300E493D083D082226016080808C6C313C696
:1009330018C613C618C613C618C613C6D5E0EA22CE
:100943002518F8E43519F9222518FAE43519FB229C
:100953002518FCE43519FD22C3E0C696F608A3E08A
:10096300C696F608A3E0C696F608A3E0C696F62256
:10097300251810AF08F518400C15198008F5184014
:10098300021519D2AF22C0E0E493A36C7009D0E042
:10099300D0E0D0E00207AFA3A3D0E022E06670105E
:1009A30008A3E066700A08A3E066700408A3E06683
:1009B30022C3E09608A3E09608A3E09608A3E09676
:1009C300A2D265D03322E76670100809E766700A81
:1009D3000809E76670040809E76622C3E697F60884
:1009E30009E697F60809E697F60809E697F622C39B
:1009F300E49396087401939608740293960874031B
:100A0300939622C3E096F008A3E096F008A3E0963D
:100A1300F008A3E096F022E657F60809E657F60831
:100A230009E657F60809E657F622E026F608A3E09A
:100A330036F608A3E036F608A3E036F622E493F68A
:100A430008740193F608740293F608740393F6226C
:100A5300E056F608A3E056F608A3E056F608A3E02E
:100A630056F622E056F008A3E056F008A3E056F04D
:100A730008A3E056F022E647F60809E647F6080918
:100A8300E647F60809E647F622700422600D18C609
:100A9300C333C608C633C6D5E0F41822E627F608E2
:100AA30009E637F60809E637F60809E637F622E0DD
:100AB30026F008A3E036F008A3E036F008A3E036FA
:100AC300F022E4C396F608E496F608E496F608E402
:100AD30096F622600D08C6A2E713C618C613C6D53C
:100AE300E0F322C6F4C608C6F4C608C6F4C608C6B0
:100AF300F4C622C3E7960809E7960809E7960809AA
:100B0300E79622C3E09608A3E09608A3E09608A31D
:100B1300E0962275D00075813F7518D175190400D0
:100B2300020406E6F008A3E6F008A3E6F008A3E64D
:100B3300F022600C08C6C313C618C613C6D5E0F46A
:100B430022E0F608A3E0F608A3E0F608A3E0F62205
:100B5300CAC0E0E6F0A308DAFAD0E0FA22E8F0A38C
:100B6300E9F0A3EAF0A3EBF022E0F8A3E0F9A3E0B5
:100B7300FAA3E0FB22ECF0A3EDF0A3EEF0A3EFF079
:100B830022E0FCA3E0FDA3E0FEA3E0FF22EAF0A342
:100B9300EBF0A3ECF0A3EDF022E0FAA3E0FBA3E07B
:100BA300FCA3E0FD22E5C754F84401F5C77901220F
:100BB3002518F582E43519F58322C2AF75D69F0255
:100BC30000002212088D99FB0512088DCD7F0012BB
:100BD300088DD67F0012088DDF7F0012088DED7F10
:100BE3000012088D33B30512088D9FB30512088DCB
:100BF30067B40512088D48B50512088D49B705126B
:100C0300088DB0B70512088D03B80512088D14B806
:100C13000512088D24B80512088D96B80512088DA3
:100C2300ACB80512088DB7B80512088DC5B8051202
:100C3300088DD7B80512088DEAB80512088D16B9C4
:100C43000512088DBEBB0512088D15BC0512088D53
:100C530051BC0512088D65BC0512088D7EBC0512BA
:100C6300088D6FBD0512088D4BBE0512088D5FBE42
:100C73000512088D00800612088D24800612088D47
:100C83003D800612088D7B800612088DAB8006120C
:100C9300088DD8800612088DE2800612088D4881DF
:100CA3000612088D4B810612088D55810612088D98
:100CB30062810612088D42F20512088D62F2051256
:100CC300088DA1F20512088DBFF20512088DDAF224
:100CD3000512088D40F30512088D4CF30512088D9B
:100CE300A9F30512088DCDF30512088D8EF40512B4
:100CF300088D9BF40512088DACF40512088D608CE9
:100D03000612088D788C0612088DA48C0612088DA5
:100D130004C90512088D5ECA0512088D6CCA051236
:100D2300088D7FCA0512088D94CA0512088DA9CAB9
:100D33000512088DBCCA0512088D38CB0512088D23
:100D43009DCB0512088D25CC0512088D9DCC05126F
:100D5300088D76CD0512088D86CD0512088D95CDAB
:100D63000512088DC78B0612088DEB8B0612088DB2
:100D7300138C0612088D3B8C0612088DDAF40512CB
:100D8300088D01F50512088D20F50512088D84F5EF
:100D93000512088D05FD0212088D1EFD0212088D35
:100DA3002AFD0212088D3EFD0212088D5CFD02121F
:100DB300088D66FD0212088D70FD0212088D83FDF9
:100DC3000212088D10FE0212088D7FFE0212088D9A
:100DD300AEFE0212088DFCFE0212088D4BFF0212BA
:100DE300088D66FF0212088D70FF0212088D81FFC5
:100DF3000212088DC4FF0212088D94FF0112088DA0
:100E0300DFFF0112088D61F60412088D8DF60412BE
:100E1300088DAAF60412088DBDF60412088DD8F6C3
:100E23000412088D32F70412088D60F70412088D3E
:100E330066FB0412088DB7FC0412088DE9FC04124A
:100E4300088D4BFD0412088DC5FE0412088DEDFEBE
:100E53000412088D02FF0412088D12FF0412088D7C
:100E630052FF0412088D94FF0412088DA4FF04128C
:100E7300088DC7820612088DE1820612088D098348
:100E83000612088D22830612088D46830612088DEA
:100E930064830612088D7B830612088DA9830612CC
:100EA300088DC4830612088DC3890612088D098A2A
:100EB3000612088D87EB0512088D97EB0512088D36
:100EC3009EEC0512088DD2EC0512088DF4EC051288
:100ED300088D17ED0512088D35ED0512088D6FEDA0
:100EE3000512088DD8ED0512088D1AEE0512088D2E
:100EF30061EE0512088D8EEE0512088DC5EE051202
:100F0300088DD7DB0512088D39DC0512088DE0DC6E
:100F13000512088D17DD0512088DD9CD0412088D31
:100F230088CE0412088DBAD00412088D91D304120E
:100F3300088D23D50412088D85D50412088D05D993
:100F43000412088D4DDA0412088DF7830612088DFA
:100F530042840612088D9BC30512088D5AC60512DA
:100F6300088DF7C60512088D23C70512088D51C7D2
:100F73000512088D86C70512088DAEC70512088DA8
:100F83000EC80512088D0E8D0512088D02910512EB
:100F9300088DF9920512088D27940512088D07957F
:100FA3000512088DB5960512088D6A980512088DED
:100FB30036990512088D8A990512088DB5FD03121D
:100FC300088DBFFD0312088DE0FD0312088D90DB31
:100FD3000412088DAFE00412088D14E20412088D88
:100FE300F0E30412088DEDE40412088D1DE60412EB
:100FF300088D35E70412088D50E80412088D00802F
:101003000412088D38800412088DE68A0412088DB4
:10101300E38B0412088D358D0412088D928E041211
:10102300088D6B8F0412088D39900412088D20915E
:101033000412088D0F920412088DB7920412088DC2
:10104300E7920412088D99940412088D0F950412E7
:10105300088D28950412088D89960412088D4797E8
:101063000412088DE6970412088D8F980412088DD8
:10107300FD980412088D9B990412088D1E9A041280
:10108300088D3C9A0412088D539B0412088D219CF1
:101093000412088DD29C0412088D88FD0512088D58
:1010A300B2FD0512088DC6FE0512088DC9FE051294
:1010B300088D1E8B0612088D648B0612088DA68B75
:1010C3000612088DB68B0612088DA5AC0512088D85
:1010D300E3AC0512088D4CAD0512088D6BAD0512FE
:1010E300088D84AD0512088D36AE0512088D3FAE0E
:1010F3000512088D90AE0512088DC6AE0512088D37
:10110300DDAE0512088D49AF0512088DD9AF051262
:10111300088D0FB00512088D53B00512088DB4B0B9
:101123000512088DE6B00512088D59B10512088D18
:10113300ADB10512088DEAB10512088D21B2051271
:10114300088D33B20512088D45B20512088D7DB2A4
:101153000512088DC9B20512088D07B30512088D53
:10116300C6CD0512088D06CF0512088D29CF0512AD
:10117300088D3ACF0512088D52D10512088D72D110
:101183000512088D4BF70512088D81F70512088D9E
:10119300C9F70512088D25F90512088DB1B9041296
:1011A300088DEFBA0412088D2BBB0412088DFABC0C
:1011B3000412088D24BD0412088DBBBF0412088DD0
:1011C300FBBF0412088D90C10412088D25C20412BE
:1011D300088D83C20412088D16C30412088D50C3F0
:1011E3000412088D92C30412088D05C50412088DDC
:1011F30089C60412088DAEC80412088DDCC8041217
:10120300088D08C90412088D11C90412088D67C915
:101213000412088DF7C90412088DFACC0412088D44
:101223007CCD0412088D778A0612088D8D8A0612EA
:10123300088D978A0612088DF38A0612088D7AD7CD
:101243000512088D90D70512088D35D80512088D23
:1012530074D80512088D91D80512088DC2D80512CD
:10126300088D0FD90512088D43D90512088D7ED933
:101273000512088D5ADB0512088DC5DB0512088D92
:1012830019850612088D6E850612088DC88506120B
:10129300088D36860612088DA8860612088DE68606
:1012A3000612088D27870612088D86F70112088D0E
:1012B3008CF70112088DD3F70112088DDFF90112A3
:1012C300088D0FFA0112088D7BFA0112088D38FB85
:1012D3000112088D79FB0112088DABFB0112088DF9
:1012E30035FC0112088D4CFC0112088D59FC0112CA
:1012F300088D63FC0112088D03FE0112088DF5FEB3
:101303000112088D53FF0112088D28A40512088DC0
:101313003EA40512088DF0A40512088D1AA6051225
:10132300088D0FA70512088DACA70512088DE7A736
:101333000512088D59A80512088DB7A80512088D46
:10134300C7A80512088DEEA80512088D40A905123D
:10135300088DA9AA0512088DAEAA0512088DD0AA78
:101363000512088DDDDA0212088D35DB0212088DB5
:10137300D5DB0212088D52DD0212088D3EDE021209
:10138300088DFBDE0212088D12DF0212088D61DF69
:101393000212088DD5DF0212088D30E00212088D8B
:1013A30043E00212088DA7E00212088D16E1021233
:1013B300088DC5E30212088DD3E40212088D2EE5D1
:1013C3000212088D74E50212088D2AE80212088DB4
:1013D3007AE80212088DFBE80212088D3DE9021239
:1013E300088D17EA0212088D50EA0212088D6FEA7F
:1013F3000212088DBAEA0212088DD0EA0212088D91
:101403008BEB0212088D59EC0212088D64EC021268
:10141300088DB2EC0212088D07ED0212088D53ED10
:101423000212088DB7EE0212088DE1EE0212088D4A
:1014330066F10212088D90F10212088D93F20212E6
:10144300088DC0F20212088D38F30212088D13F4CE
:101453000212088D55F40212088DC9F40212088D88
:10146300E3F50212088D30F60212088D43F60212DC
:10147300088D46F60212088D4FF60212088D6AF6A1
:101483000212088DE2F60212088D1BF70212088D74
:1014930037F70212088D63F70212088D8AF70212DA
:1014A300088DAEF70212088D27F80212088D9AF8FC
:1014B3000212088DDDF80212088DE7F80212088D7A
:1014C30016F90212088D2CF90212088D48F902123E
:1014D300088D77F90212088D97F90212088DE0F949
:1014E3000212088D1BFA0212088D27FB0212088DC7
:1014F3008AFC0212088DA9FC0212088DC0FC02129C
:10150300088DD2FC0212088D49870612088D5A876E
:101513000612088DE3870612088D73BE0512088D27
:10152300B1BE0512088D4ABF0512088D55C00512BC
:10153300088D9DC20512088D1AC30512088D757892
:101543000012088DC4780012088D827A0012088D6B
:10155300557C0012088D937C0012088D697D001262
:10156300088D727E0012088D947E0012088DF07E25
:101573000012088D717F0012088DE9BA0312088DDD
:101583000BBB0312088D75BC0312088DBEBC03127E
:10159300088D30BD0312088DAEBD0312088D13BE36
:1015A3000312088D5ABE0312088DC9BE0312088D9B
:1015B3006FBF0312088DE4BF0312088D29C0031205
:1015C300088D3DC40312088D56C60312088D94C6B8
:1015D3000312088DD3C60312088DEDC90312088DBB
:1015E30074CA0312088D14CC0312088D4BCD031259
:1015F300088D5BCE0312088DCCCE0312088DA9CFC4
:101603000312088D2DD00312088D41D00312088DCB
:1016130009D10312088D33D20312088D60D403124B
:10162300088D73D60312088D4FD70312088DE0D9A6
:101633000312088DB5DA0312088DD3DB0312088D6C
:1016430026DF0312088D36DF0312088DB6E003127E
:10165300088D53E10312088D72E20312088D04E32F
:101663000312088D5BE40312088DA2E40312088DB4
:1016730051E50312088D859D0412088D259E0412E1
:10168300088D919E0412088DAC9E0412088D4F9F05
:101693000412088D979F0412088DC3A00412088DAD
:1016A30002A10412088D79A10412088DCAA10412A3
:1016B300088D31A20412088DDDA20412088DC0A585
:1016C3000412088DD9A60412088D5CA70412088D94
:1016D3001FA90412088DC4A90412088D6EAA04124E
:1016E300088DD3AA0412088D42AB0412088D61AC95
:1016F3000412088D5AAD0412088DA4AD0412088D8E
:10170300BBAD0412088D7AAE0412088DB9AE041273
:10171300088D34AF0412088DB8B00412088D50B28E
:101723000412088DBEB30412088D20B50412088D6F
:1017330032B60412088DC5B60412088D33B70412ED
:10174300088D45B80412088D10E60312088D7BE658
:101753000312088DC3E60312088D2AE70312088DCE
:1017630086E70312088DC1E70312088D5DE80312B3
:10177300088DB7E80312088D23EA0312088D9CEA4B
:101783000312088DD3EB0312088DFBEB0312088DB4
:10179300D9EC0312088DEAEC0312088D02ED031253
:1017A300088DF9ED0312088D1CEE0312088DE5EE8A
:1017B3000312088D0FEF0312088D26EF0312088D15
:1017C30040EF0312088D6CEF0312088D8CEF0312A8
:1017D300088DB2EF0312088DC9EF0312088D9EF036
:1017E3000312088DF8F00312088DC9F10312088D56
:1017F30045F20312088D5CF20312088DDFF2031227
:10180300088D27F30312088D4DF30312088DA5F4F9
:101813000312088DAAF40312088DE8F40312088D4D
:101823005FF50312088DCBF50312088DC6F603127C
:10183300088DA0F70312088DECF70312088D04F945
:101843000312088D00FA0312088DA2FA0312088D01
:10185300E8FA0312088DFDFA0312088D0FFC031238
:10186300088DB0FC0312088D0CFD0312088DCCE328
:101873000512088D87E50512088D4FE60512088DC0
:10188300A4E60512088D2AE70512088DD8DF051294
:10189300088DF6DF0512088D3AE00512088D60E029
:1018A3000512088D87E00512088D9FE00512088D4B
:1018B300B7E00512088DCFE00512088D79E1051216
:1018C300088DBBE10512088DD0E10512088DD7E222
:1018D3000512088DF2E20512088DFBE20512088D50
:1018E30004E30512088D0DE30512088D17E30512B5
:1018F300088D94E30512088D22890612088DF2D60D
:101903000512088D0ED70512088D13D70512088D01
:101913000EFC0512088DBEE70512088DD4E70512EB
:10192300088D72E90512088DBDE90512088D29EAB3
:101933000512088D27EB0512088D56EB0512088D4D
:1019430068EB0512088D6C810612088D1DEF0512D8
:10195300088D79EF0512088DB9EF0512088DB2F0E5
:101963000512088D15FB0512088DEBF00512088D85
:1019730002F10512088D39F10512088D49F105129E
:10198300088D60F10512088D85F10512088D15F299
:101993000512088DA17F0012088D00800212088DA8
:1019A30057800212088DC3800212088D4F810212E4
:1019B300088D05820212088D4D820212088D6682FF
:1019C3000212088D89820212088DC7820212088DC5
:1019D30016830212088D41830212088D9F8302121F
:1019E300088D46840212088DEE840212088D6A85E2
:1019F3000212088D37860212088D7E860212088D28
:101A0300CA860212088D52870212088D8B87021232
:101A1300088DE1870212088DFD870212088D2C883C
:101A23000212088D388A0212088D668B0212088D05
:101A3300928B0212088DC68B0212088DE78B02125D
:101A4300088DF68B0212088D018C0212088DB08C62
:101A53000212088D208D0212088DAB8D0212088DA3
:101A6300B38D0212088D208E0212088D5C8E021235
:101A7300088D228F0212088DF58F0212088D4A906D
:101A83000212088DE9900212088D43910212088D0B
:101A930088910212088D21940212088D6495021216
:101AA300088D4E980212088D32990212088D169AEB
:101AB3000212088D3B9A0212088D4C9A0212088D6D
:101AC300BE9A0212088D559B0212088DC99B021201
:101AD300088DB99C0212088DDE9C0212088DF69DBA
:101AE3000212088D149E0212088D309E0212088D78
:101AF300A39E0212088DB29E0212088D3A9F021213
:101B0300088D37A00212088D44A00212088D4DA043
:101B13000212088D2FA20212088D5BA30212088DF8
:101B23006BA30212088DA6A40212088D25A502122A
:101B3300088D56A60212088D92A60212088D6CA873
:101B43000212088D29AC0212088D3DAC0212088DD9
:101B530047AC0212088D51AC0212088D5BAC021225
:101B6300088D65AC0212088D7EAC0212088D88AC1C
:101B73000212088DFFAC0212088D0AAD0212088D05
:101B830039AD0212088D61AD0212088D6CAD0212DF
:101B9300088DD1AD0212088DDBAD0212088DE6ADC2
:101BA3000212088D0AAE0212088D2EAE0212088DA3
:101BB300A0AE0212088DE9AE0212088D05AF021223
:101BC300088D76AF0212088DC2AF0212088D0BB0DA
:101BD3000212088D49B00212088DCAB00212088D94
:101BE30071B10212088D36B30212088D9BB3021233
:101BF300088DC9B40212088DEFB40212088D37B6EE
:101C03000212088D71B90212088D6FBB0212088D82
:101C13003ABD0212088DD3BD0212088DD4BF021241
:101C2300088D89C00212088DC2C00212088D32C10C
:101C33000212088D3CC10212088D65C30212088D81
:101C430068C40212088DA5C50212088DFCC50212D4
:101C5300088DA7C60212088D57C80212088DA4C9A1
:101C63000212088DC4C90212088D19CA0212088D06
:101C73001ACB0212088D42CB0212088DA1CB02129D
:101C8300088D99CC0212088D10CD0212088D23CE37
:101C93000212088D91CE0212088D90CF0212088D88
:101CA300EAD10212088D13D20212088D79D30212DF
:101CB300088DFBD40212088D52D50212088D00D66E
:101CC3000212088DA5D60212088D08D70212088DBC
:101CD300C6D70212088D58D80212088DB7D802123F
:101CE300088DF9D80212088D2AD90212088D81DADB
:101CF3000212088DAC2D0012088DDE2D0012088D06
:101D0300172E0012088DE02F0012088D24300012C8
:101D1300088DFA300012088D59310012088D6F3288
:101D23000012088DBB320012088D49350012088D50
:101D33002D380012088D74390012088D0C3A0012E8
:101D4300088D183A0012088D613A0012088DA33BE2
:101D53000012088D993C0012088DC33C0012088DB7
:101D6300193D0012088D723D0012088DE53D0012E9
:101D7300088D1B400012088D9D410012088D86427C
:101D83000012088DD0430012088D08460012088DFA
:101D930005490012088D14490012088DA849001244
:101DA300088D534A0012088D964A0012088DDF4AA7
:101DB3000012088D2F4B0012088D934B0012088DD3
:101DC300054C0012088D214C0012088D504C001256
:101DD300088D8F4C0012088D8A4D0012088D394EE4
:101DE3000012088DB6500012088DE8510012088DBC
:101DF300C0520012088D42530012088D775700120B
:101E0300088DA6570012088D01580012088D34580A
:101E13000012088DAC580012088DE4580012088D8A
:101E230034590012088DA35A0012088DC75A0012A4
:101E3300088D015B0012088D0E5B0012088D115B8B
:101E43000012088D405B0012088D385D0012088D6A
:101E5300F75D0012088D265E0012088D445F0012A4
:101E6300088D0C600012088DCD610012088D3D6253
:101E73000012088D6F620012088DD5620012088D62
:101E8300E4620012088D11630012088D2B630012A7
:101E9300088D9E630012088DC2650012088D2166AD
:101EA3000012088D75660012088DA4680012088D53
:101EB30087690012088D0F6A0012088DF36A0012F9
:101EC300088D7D6B0012088D916B0012088DA56B38
:101ED3000012088DB96B0012088DCD6B0012088DAE
:101EE300FA6B0012088D2A6C0012088DE56D001242
:101EF300088DBB6E0012088D5F6F0012088DB46FE2
:101F03000012088DFD6F0012088D81700012088D7C
:101F1300C8700012088D3A710012088D8F7200127A
:101F2300088D38730012088D50730012088DF373F7
:101F33000012088D6F760012088D17780012088D35
:101F430035780012088D43810112088D85810112B5
:101F5300088DF2860112088D3E870112088D848751
:101F63000112088DD5880112088D3A890112088D56
:101F73007E890112088DE48A0112088D3F8E0112B9
:101F8300088D728F0112088D019B0112088D919BA0
:101F93000112088D7B9E0112088DE09F0112088DAE
:101FA30043A00112088D5FA10112088DC9A201127D
:101FB300088DA8A30112088D16A60112088DA8A7E3
:101FC3000112088D39A80112088D58A90112088D34
:101FD300E5A90112088DEFA90112088D17AA0112B4
:101FE300088DBAAA0112088DA5AB0112088D6DAC3C
:101FF3000112088DFAAC0112088D10AD0112088D83
:102003002DAD0112088D56AD0112088D83AD01125D
:10201300088DC7AF0112088D9AB00112088DDEB08A
:102023000112088D60B10112088D01B20112088DF1
:1020330033B20112088D7AB20112088DADB20112CA
:10204300088DF1B20112088D40B30112088D45B31A
:102053000112088DA1B30112088DE5B30112088D99
:10206300CFB40112088D34B50112088D92B5011257
:10207300088D11B60112088D89B90112088D8CBA29
:102083000112088D22BC0112088D65BF0112088D53
:1020930007C00112088D50C20112088D0BC3011233
:1020A300088D4AC30112088D0EC50112088D2BC578
:1020B3000112088D34C50112088D3DC50112088D2A
:1020C30048C50112088D67C50112088D8BC701121F
:1020D300088DE8C70112088DF2C70112088DFCC7ED
:1020E3000112088D5FC80112088DBBC80112088D4B
:1020F300C8C90112088D29CA0112088D3ACB0112F1
:10210300088D83CB0112088D4DCC0112088D64CD4F
:102113000112088D28CE0112088D74CF0112088D8B
:1021230078D00112088D71D10112088D89D1011265
:10213300088DC0D10112088DCAD10112088DD4D1E6
:102143000112088DDFD10112088DFDD10112088D16
:1021530045D20112088DA3D20112088DCAD20112F1
:10216300088DDCD20112088D85D30112088DBED3F0
:102173000112088DEFD40112088D4CD50112088D80
:102183003DD60112088D73D60112088DE3D60112D4
:10219300088D5FD70112088DE0D80112088D07DA88
:1021A3000112088DC9DA0112088D97DB0112088D1F
:1021B3001CDC0112088DCBDC0112088DB3DD01128A
:1021C300088D4CDE0112088D28DF0112088D90DF87
:1021D3000112088D4FE00112088DABE00112088D4A
:1021E3000FE10112088DD5E10112088DF8E101120A
:1021F300088DB2E20112088DD4E20112088D35E395
:102203000112088D65E50112088D5EE60112088D45
:102213000AE70112088D27E90112088D70E90112FE
:10222300088DBBE90112088D17EA0112088D75EAC2
:102233000112088D99EA0112088DBDEA0112088D79
:10224300F2EA0112088D1AEB0112088D5FEB0112FD
:10225300088DBDEB0112088D16EC0112088D10EDEF
:102263000112088DBCEE0112088D01EF0112088DD9
:102273002AEF0112088DB3EF0112088D26F0011227
:10228300088D34F00112088D58F00112088DAEF05C
:102293000112088DC9F00112088D84F10112088D15
:1022A300B0F10112088DF3F10112088D56F20112FB
:1022B300088D66F40112088D92F40112088D4DF514
:1022C3000112088D31F60112088DC5F60112088D31
:1022D300A8990512088DE0990512088D019A051237
:1022E300088D439A0512088DA79A0512088DB19A95
:1022F3000512088DC19A0512088DF89A0512088DEA
:10230300A19E0512088D69A00512088D4DA2051224
:10231300088DEFA20512088D79A30512088D508050
:102323000312088DF9800312088DD8810312088DDA
:10233300E4820312088D04830312088D268403129A
:10234300088DD6850312088D43860312088D1487E2
:102353000312088D1A880312088D92880312088DC0
:10236300CD880312088D26890312088D6189031213
:10237300088DAA890312088D3E8A0312088DD48A18
:102383000312088DA98B0312088D7C8C0312088D10
:102393000A8D0312088D308D0312088D5D8D031293
:1023A300088D8E8D0312088D5B8E0312088D6B8E44
:1023B3000312088DBE8E0312088DCB8E0312088D77
:1023C300D88E0312088DE18E0312088D458F0312F8
:1023D300088DA38F0312088DEE8F0312088D0990C9
:1023E3000312088D30900312088D4D900312088D4F
:1023F30059900312088DEA910312088D0392031278
:10240300088D7F920312088D92920312088DA29277
:102413000312088D46930312088DB2940312088D9C
:10242300C5950312088D65960312088D6F960312E6
:10243300088DEE960312088DFF960312088D3E97C2
:102443000312088D6C970312088D39980312088DB7
:1024530090980312088DC9980312088D1F990312CF
:10246300088D3D990312088D8B990312088D569A96
:102473000312088DA49A0312088DF19A0312088D92
:10248300749B0312088D9E9B0312088DD49B031229
:10249300088DE39B0312088D429C0312088DBA9C9E
:1024A3000312088DFB9C0312088D4B9D0312088DAC
:1024B300769D0312088D909D0312088DAA9D031229
:1024C300088D7F9E0312088D899E0312088DC49E7A
:1024D3000312088DD49E0312088DDD9E0312088D0E
:1024E3002E9F0312088D429F0312088D64A00312CE
:1024F300088D77A00312088D8EA00312088DA3A068
:102503000312088D36A10312088DAAA10312088DA8
:102513004FA20312088D5AA20312088DBDA3031202
:10252300088DD9A30312088D25A40312088D93A443
:102533000312088DC5A40312088DDFA40312088DAE
:102543003FA50312088DDEA50312088D29A60312E9
:10255300088D7CA80312088D14A90312088D8BA97A
:102563000312088DE8AB0312088D00AC0312088D2B
:1025730003AC0312088D0FAC0312088D23AC0312B6
:10258300088D2BAC0312088D62AC0312088D56AD77
:102593000312088DE0AD0312088D62AE0312088D9D
:1025A300E2AE0312088DB9AF0312088DDBAF03123D
:1025B300088D74B00312088DD1B00312088DD4B006
:1025C3000312088D01B10312088D16B10312088D91
:1025D30085B10312088DD1B20312088DE4B303123F
:1025E300088D6FB40312088D82B50312088D49B6A6
:1025F3000312088D7AB60312088DA0B60312088D54
:10260300A9B60312088DD8B60312088D88B7031232
:10261300088D38B80312088DABB80312088D4EB974
:102623000312088DC1B90312088D00BA0312088D75
:1026330049BA0312088D7EBA0312088D0D8906125A
:10264300088DFD880612088DEBFF0112088DEBFF44
:102653000212088DE3880612088D45880612088D3C
:1026630034880612088D74F50412088DC3F404121D
:10267300088DDFF30412088D32F20412088DF1F194
:102683000412088DC8F10412088D75F10412088D27
:10269300CEF00412088D36F00412088D14F00412E3
:1026A300088DBCEF0412088D82EF0412088D00EF31
:1026B3000412088D9FEE0412088D5AEE0412088D41
:1026C30075ED0412088D99EC0412088DAAF9051210
:1026D300088D41EC0412088D88F90512088DF87FE6
:1026E3000012088DE5FF0212088DE2FF0212088D29
:1026F300DFFF0212088DCFFF0212088DE8FF0212DE
:10270300088DE2FF0512088DB1EB0412088D6CEB06
:102713000412088D50EB0412088DF5E90412088D9C
:102723007AFF0512088DB7E90412088D91E90412A6
:10273300088D15E90412088DD78C0512088DF6FE55
:102743000512088D8C8C0512088DD6F00512088DA4
:10275300338C0512088D068C0512088DD58B051256
:10276300088DA58B0512088D7D8B0512088D1D8B99
:102773000512088DFF8A0512088DC48A0512088D7B
:10278300448A0512088D67860512088D4584051253
:10279300088D01820512088D7B810512088D298120
:1027A3000512088DB4800512088DB3890612088DB1
:1027B3006D800512088D00800512088DC6D20500B4
:1027C300000080FB8F000100071B87000100061B30
:1027D300350004008B1E250002008F1E2600020018
:1027E300911E27000200931E280001009D1E290050
:1027F30001009E1E840004009F1E86000100A31E8C
:102803002A000100A41E2B000100A51E2C000100BC
:10281300A91E2D000800E81A2E000100AA1E2F0091
:102823000100AB1E30000100AC1E31000100AD1EE3
:1028330032000100F01A33000100F11A34000100E4
:10284300AE1E36000100F21A38000100AF1E390037
:102853000100A81E83000200C31E63000100031BC6
:1028630064000100A61E65000100A71E6D000100A3
:10287300041B71000800E01A66000100C21E430039
:102883000100B31E44000200B41E45000100B61E41
:1028930046000200B71E47000800FB1A480001006B
:1028A300B91E4B000100BA1E04000100C51EA100A1
:1028B3000100C81E37000100C71E88000100C61EA4
:1028C3003C000100F31A3D000100B01E4900020064
:1028D300BB1E67000100051B4D000200BD1E4E001C
:1028E3000100BF1E4F000200C01E3E000100FA1A85
:1028F30051000100F41A52000100B11E53000100FF
:10290300B21E54000100F51A00000000000000018F
:102913003636010100010201000103010001040137
:10292300060605020000070100340801000F090430
:1029330001010D0100FF0E0800001702000019013C
:1029430000FF1A0100011B0100FE1C0100081D020B
:1029530000001F01000120010001210200002301EA
:10296300000F2402000026010001270100082802AD
:1029730000FF2A0100072B0102402C0100002D015A
:1029830000012E0100012F0100FF30010B1D310852
:1029930000003A0100083B01000F3C0100013D012A
:1029A30000FF3E04000042040000460400004A0405
:1029B30000004E04000052040000560400005A04B4
:1029C3000000010371030103010301030103010378
:1029D30022030203010310030003000300030003A7
:1029E3000003000300034203000324030603000360
:1029F3000003040312032503230325032303040312
:102A03000403000300030003440300030003230340
:102A1300000365032100350381030003050300035D
:102A230000030003000325032303010171010101D6
:102A330001011101010131010101010180011001B5
:102A430061013B00140063017301720162014301E0
:102A53000001130106013D013500040112010001CB
:102A630000010001000104010401330133013C01B1
:102A73004401320136000001000165010001350007
:102A8300810100010501820183010001030271023A
:102A9300300160021102700201020202020280028E
:102AA300100261023A004100630273027202620281
:102AB3004302000213023800000200020402120261
:102AC3000002000200020002040204023700370081
:102AD3003C024402000239000002000265020002C7
:102AE300350281020002050282028302000203040E
:102AF300710402046004110470040204020401045A
:102B030002041004610400041404630473047204D3
:102B130062044304000413040604000400040404D0
:102B230012040004000400040004510464000004BF
:102B330000040004440400040004000400046504C9
:102B430000043504810464000504000483040004C4
:102B53000300710030016000110070003102200396
:102B63005004800010006100000014006300730033
:102B73007200620043000000130006000000000022
:102B83000400120000000000000000000400040024
:102B9300370037003C024400000000000000000042
:102BA300650000003500810000000500000083007F
:102BB300000036000100060000000F0000000000C6
:102BC300000000000000000003FFFF00000403FFFB
:102BD300FF0000FFFF0FF4010005C4040320000100
:102BE30000000B000000000000000003010F0000C4
:102BF30000000000000000000000000000000000D2
:102C030000000000000000000000000000000000C1
:102C13000000B816130016161F001C161F8022167C
:102C23000100B81602009E150300A4150400AA159E
:102C33000500B0150600BC153000DA153100D415B7
:102C43003200E6153300EC153500F2153400F815A3
:102C53003600FE1511000A16140010161500CE15C5
:102C6300FFFF00000A000000020000000400000053
:102C730008000000100000002000000040000000D9
:102C830080000000000100000002000000040000BA
:102C930000080000001000000020000000400000B9
:102CA300018E1F06C41F08BE1F0BDC1F10A61C0AC3
:102CB300EE1F02941F05B21F079A1F0C761F0D8289
:102CC3001F647E1AFF000007ECFDFDFDECDCDCCC8D
:102CD300BCACAC9C9C8C7C7C6C6C5C5C5C4C4C3C61
:102CE3003C2C2C1C1C03EAF5E5D5D5C5B5A595955B
:102CF3008585757565655555454535352525151501
:102D03000500160F00000B150B020002220F330003
:102D1300000E5A6967426565416C6C69616E636553
:102D2300303901030507090B0D0F00020406080AD9
:102D33000C0D00011916181616182303003030174E
:102D4300181921301B1D1F30303016181920231A73
:102D53001C1E3000393D3F373C3C362C442D0003CC
:102D63004A49434E181A2505020C0E020B040B0A9E
:102D73000708000F020402010101010902E8030030
:102D83000000BE040A0000E8030E0000007F001EDE
:102D9300050303000404100A0C10080C280009049E
:102DA3000903010C05081508FFC082C083122732EE
:102DB300901C427412F0A3741DF0901C447418F01C
:102DC300A3741DF0901C46741EF0A3741DF0901C98
:102DD300487424F0A3741DF0025E1F74F712039A63
:102DE300E9FE901C34E4F0EE901C33F0901EB71211
:102DF30058D8125AFD7CFB7D1A7A377B1C1212A419
:102E0300901EB9E0901C3FF0901C4074E0F0A37456
:102E13001A023D1574F012039A8A088B09EB548049
:102E23007003022F6F901C33E0F91211068A0A8B8C
:102E33000BAE0AAF0BEE4F7003022F661256AD7046
:102E43007EEE241F1259C664137002A3E070708EC5
:102E5300828F83A3A3E0F50EA3E0F50F901C52121B
:102E63005A73750A00750B00800D123B8C125AFDC4
:102E7300121196AA0CAB0DEA4B60448A828B83E055
:102E8300650E7004A3E0650F70288A828B83A3A369
:102E9300A3A31256C0E50A450B8A828B83A3A3A37F
:102EA300A360C7124BF7850A82850B83A3A3A3A351
:102EB30080BB8A0A8B0B8A828B83125A6F80B8EE8F
:102EC300242A1259C6F912686D901C52124007A3A6
:102ED300A3A3A3A3A3A3A3E0640270378A828B8373
:102EE300125A7380078C828D83124265EC4D6020E9
:102EF3008C828D83E06A7003A3E06B70E88C828D13
:102F030083A3A3E06970DE901EBF125045F0804C8E
:102F1300121D4E8E828F83E064017034EE241812EA
:102F23002FD812090112498D120709EE2412122F0C
:102F3300D81209011249811208FD1262BA12070D53
:102F4300EE2417124995122792740A1208BF800CB7
:102F5300E064027007EEFAEFFB121E8CEEFAEFFB51
:102F63001210F4AA08E5096480FB8066901B06E052
:102F7300600464017019EAA2E05014901C4A125ACA
:102F8300526006126DA2120525E5086401803AEA33
:102F93005402600C901ECE7401F0EA6402FA80328F
:102FA300EA54086029121D488B0BEA450B701690F2
:102FB3001C54E4F0A3F0A3F0A3F07A08FB901C33B5
:102FC300E0F9121262E5086408FAAB0980047A009A
:102FD3007B000243CB12572EF50A780A2274F412AF
:102FE300039AEA4B901C4A6026ECF0A3EDF08A08A2
:102FF3008B09E4F50AF50B78081208F57A017B00D2
:10300300901C33E0F912125674041208BF800FE4C7
:10301300F0A3F07A01FB901C33E0F9121262023A3A
:103023005C74F412039A8A088B098A828B83126573
:103033006112488538F583E02409FA7B001210EE0B
:103043008A0A8B0BAE0AAF0BEE4F70030230E88E89
:10305300828F837402F0A3E4126F50A3A3A3A3E8A7
:10306300F0A3E9126895A3A3A3A3A3A3A3F0E50880
:103073002403F8E43509125ACF1248853AF583122E
:103083004000F0EE2409FAE43FFB8E828F83A3A372
:103093001261BDF5838882E0A2E58E828F83A3A3AC
:1030A300A3A3A3500474018001E4F0E5082403F80A
:1030B30088828983125A73EA1248793BF583123066
:1030C300ED1208F9EA24101262C28E828F83125A1B
:1030D300711210CA74031208BFEEFAEFFB901C338F
:1030E300E0F91210FA023A5CA3A3E0F508A3E0F5B5
:1030F30009750A0078082274F212039A8A088B0968
:10310300ECFAEDFB740E120BB3E0FC1226C68A0C2C
:103113008B0DAE0CAF0DEE4F6030AC08AD0912272E
:103123000EE96026AC08AD09EEFAEFFB122708E9B9
:1031330070148E828F83124B28FAEFFB122714AA86
:1031430008AB091226AE7900800279B48003120815
:10315300BF7F0602060B74EE12039A74F71209730B
:103163008A0A8B0BECFEEDFF750CB3750D00750E23
:10317300008002050E902DA2E493F8E50EC398405B
:1031830003023268AA0E7B0012268A8A088B09EA98
:10319300450960DF8A828B83A3A3A3A3A3E0250D44
:1031A300F50DF8C3E50A98E50B940050C67C157D30
:1031B300007900EEFAEFFB1210D6850882850983A9
:1031C300A3A3A3A3A3E0F8E50AC3950D2825E0F87C
:1031D300E433F9E50828F582E50939F583123DD68C
:1031E300125AFD1220A88A0A8B0BAC0AAD0BEEFA19
:1031F300EFFB1212A4850882850983A3E0640170A2
:103203000B12498D7401127802A3803DAC18AD19DD
:10321300850882850983125A711226A2E9602D74EA
:1032230008120BB3E0C0E012498DD0E0F07408122D
:103233000BB3E06403700CAC18AD19123FF8121213
:10324300A48009851882851983125AF1850882851D
:1032530009831243ADA3A3126EA6C0E01245BCD0EE
:10326300E0F0750C00A90C740902706874F712037E
:103273009AE9FE8A828B83A3A3A3A3A3A3E05408A2
:1032830060338A828B83A3A3A3A3A3A3E054026026
:10329300218A828B83A3A3A3A3A3A3A3A3A3E064F1
:1032A30006600F74E96E600A74CD6E600574F06E8B
:1032B3007003121D300252BB74E812039A74F812A1
:1032C30009737406120BB31256FFECFEEDFF891758
:1032D30075150012352D1226BA8A0A8B0BEA450B97
:1032E30070030234DAEE24101259C6FAA90A121B2B
:1032F300AA8A128B13EA451370030234DAEE24030D
:10330300F50CE43FF50DEE2406F508E43FF5097CE2
:10331300008508821248D91226B48A108B11850CB5
:1033230082850D83123522125A9E8512828513835C
:10333300A3A3A3A3125A01123522A3A3A3A3125A30
:1033430062851282851383A3A3A3A3A3A312706030
:10335300126E8B1208F9EE1248853F1262C685126F
:1033630082851383A3125A6B1210CA74031208BF07
:103373007428120BB3124BF7E512125037351312A0
:103383005AFB742A120BB3E0C0E0E51212487935F8
:1033930013F583D0E0F07514007423120BB3E0F53A
:1033A300167424120BB3780C120B4402346185108B
:1033B30082851183125A7112269C8508828509839E
:1033C300A3EAF0A3EB123544A3A312695612353EC8
:1033D300A2E6500F850882850983A3A3A3A3A3E0D4
:1033E300D2E1F0E5157066850882850983124BF6F4
:1033F300901C88E0687003A3E0697051850882859A
:103403000983A3A3A3124197751000781012090131
:10341300780C1208F5E516F51078101209017426D8
:10342300120BB312070D901C9512070D790074103F
:10343300120BB3126875121EE6740A1208BF8508D0
:1034430082850983A3A3A3A3A3E04405F074012504
:1034530014FC12352D1226B48A108B110514E510B5
:103463004511604EC3E514950AE4950B5044E514E9
:1034730075F006A4F8A9F0E51228F8E51339F9E880
:10348300240FF508E439F509850882F583E41278F9
:1034930068E0640160030233B17515018508828514
:1034A30009837401123544125926A3E8F0A3E902F3
:1034B30033C8AA12AB13121BB078121208FDAD1653
:1034C3007424120BB3E0FCA917EEFAEFFB121D2ACA
:1034D30074021208BF803E8E828F83A3A3A3E0C031
:1034E300E07403120BB3D0E0F0EE24121259C6C0FD
:1034F300E07404120BB3D0E0F0E50A450B700974D5
:1035030005120BB374B980077405120BB374101250
:1035130062CF121EE074081208BF7F1002060BE090
:10352300851282851383A3A3A3228E828F83125ACB
:10353300778E828F83A3A3A3E0F922A3126ACEE03E
:103543002212786CA32274E812039A74F21209739C
:10355300E9851882851983F08A0C8B0D8C168D17DB
:103563007426120BB3125A33AA08FB121B9EE9F5F9
:1035730014AA08AB09121BA4E9F515E5147003029C
:103583003810751300800F8E828F83A3A3A3A3A388
:10359300E0D2E3F005131245C6E0F8E513C3984003
:1035A30003023807E5147003023807E51375F006C4
:1035B300A4F8A9F0E50828F8E50939F9E8240FFE8D
:1035C300E439FF8E828F83A3A3A3A3A3E0A2E040E9
:1035D300C3750E00901B06E060046401704A8E827E
:1035E3008F83E07043125A72121A3C8A0A8B0BA81B
:1035F3000AA90BE849603188828983A3A3A3A3E0C6
:103603006401600D88828983A3A3A3A3E06403708C
:10361300178E828F83A3A3A3A3A3E0D2E7F0750E33
:1036230001E5157003023597750F00750A08750BD0
:1036330000E5176003750F207C087D007900740195
:1036430012094B1210D68E828F83E06044901CD8EF
:10365300E06401701CE50FD2E3F50F750B10124BFC
:10366300F27401120BB3E8F0A3E9124D7774FF80F3
:103673003E430F0C750A0C8E828F83A3123823A34B
:10368300A3A3A3125AFD7401120BB374FFF0A3801A
:103693001E851882851983E06009E50FD2E6F50FD0
:1036A300750A0A124BF27401120BB3E8F0A3E9F0A6
:1036B3007403120BB3E50FF0124883350DF583E065
:1036C300C0E07405120BB3D0E0F07406120BB374B0
:1036D30001F012094B121E92740D120BB3E060033A
:1036E3000237E27409120BB3125A8A8E828F83A3B4
:1036F300A3A3A3F07409120BB31256E8E50AF0A3CF
:10370300E50BF01256A3E51612353F6011901CD855
:10371300E0C0E07409120BB31256D8D0E0F074097C
:10372300120BB31245D6A3A3A3123815241C1256A9
:10373300F91270C012381512569AEAF0A3EB126D03
:10374300CFC0E0125690D0E0126E97C0E074091219
:103753000BB31251D7D0E01265B7C0E07409120B56
:10376300B31251CBD0E0F07409120BB31238231209
:1037730051BA123964123815242C1256F9E50C1279
:103783005017350DF583E0C0E01251B2D0E0F0746C
:1037930009120BB3125A73850C82850D8312381AE2
:1037A3002428F582E43B125AFBE50C124879350DC7
:1037B300F58312707075120078101208F91248839D
:1037C300350D1262C6EA12653B3BF583125A73123A
:1037D30010CA74031208BF740112094B121E988E8B
:1037E300828F83A3A3A3A3A3E0D2E0F0740D120BF3
:1037F300B3E0600302358AE50EA2E0500215151509
:10380300140235977900AA08AB09121D36740E020B
:10381300351A125A7DE822A3A3A3A3124BFBEA2273
:10382300124BFB850C82850D832274EE12039A746E
:10383300E91209738A088B09890A8A828B83A3A3F5
:10384300A3A3A3A3A3A3E0F9121BC88A0C8B0DEABD
:10385300450D70030238F3125A16124280E50A60CE
:10386300030238F87C04850882850983A3A3A3A3F4
:10387300A3A3A3A3E0F9121BCEEE4F60738E828F36
:1038830083A3A3A3124BF67406120BB31261A01207
:103893004BF67408120BB3126003C0E07410120BE2
:1038A300B3D0E0123964124BF6740E120BB3125AF2
:1038B300FD7411120BB3E4125A8FC8241FF582E46E
:1038C30038F583125A12C413135403FC70027C0498
:1038D3008E828F83E0F9780C1208FD742059FD74F1
:1038E3004059F9740212094B121D2A74021208BFBF
:1038F30074170270687C08850882850983A3A3A3D3
:10390300A3A3A3A3A3E0F9121BCE8B0FEA450F7069
:103913000302387CEE4F60D8E50AF50B780B1209E9
:1039230001850C82850D83A3A3A3A3A3A3A3E0F521
:103933000B780B1209018A828B83A3A3A3E0FB8A72
:1039430082850F831242688A82850F83E0FA8E8212
:103953008F83A3A3E0F912279874021208BF0238D9
:1039630080F0850C82850D83A3A3A3A3A3A3A3A3A4
:103973002274F712039A74FA120973E9FE7C017D2B
:10398300017F0080037D000F1259BBE0F8EFC3985D
:103993005028EF75F006A4F885F008A908EA28F87E
:1039A300EB39F9E82414125C98A2E050D8540C6067
:1039B300D4E0A2E250D17C0080CD8A828B83A3A382
:1039C300A3A3A3A3E0703DEDA2E0400574016E70D4
:1039D300338A828B83A3A3A3A3A3A3740112507F6F
:1039E300E0C0E07403120BB3D0E0125077E0C0E004
:1039F3007404120BB3D0E0F07405120BB3EC126233
:103A0300CF121EE074060252B8C082C0837901123D
:103A13001D36025E1F74F412039AEA4B901ECE60A9
:103A230022E4F08A088B09F50AF50B78081208F5E9
:103A33007A027B00901C33E0F912125674041208C8
:103A4300BF800F7401F07A027B00901C33E0F912FF
:103A53001262800574021208BF7F0402060B74E829
:103A630012039A74FC1209737402120BB3E4F0A3E9
:103A7300F0901C52124280851882851983E4F0A3CA
:103A8300F0751401901C82E0A2E35003023B18126C
:103A9300127A8A088B098C0A8D0B8A0C8B0D8C0E7B
:103AA3008D0F901C54780C12095B123B937810799C
:103AB3000C120AF650077A017B00023B87850C142F
:103AC300850D15850E16850F177814791012032BA3
:103AD300A814A915901EBFE0C398E4995003E08091
:103AE30001E8F514123B93780C791012032BE4F5DB
:103AF30012F513780879101209DE901C5478081215
:103B03000B268011123B8C125AFDEEFAEFFB1211B9
:103B130096AE08AF09EE4F60638E828F83A3A3A393
:103B2300E0F8E514C3985029EE2403F582E43FF549
:103B330083A814E0C398F060217402120BB3124DF2
:103B43006E125759EEF0A3EF1265BCFEA3E0FF809F
:103B5300C48E828F83A3A3A3E4F08E828F83125A31
:103B63002F851882851983125A528E828F83A3A3BD
:103B7300A3A36090126887125AE0808B7402120B21
:103B8300B3125A73740402351A124BFB901C52225F
:103B9300901EBDE0F510A3E0F511E4F512F5132234
:103BA30074F212039A8A0A8B0BE9FE7A007B009067
:103BB3001C52125A33901C52125A52601E0A850824
:103BC30082850983A3A3A3A3125A52600E0AEA7043
:103BD300010B88088909E8450970E3901EC0124B60
:103BE300F7C3EA98EB994003023C967A067B0012EE
:103BF30011908A0C8B0DA80CA90DE8497003023CA7
:103C03009688828983E50AF0A3E50BF0EE88828922
:103C130083A3A3F0901EBF125D0AA3A3A31250A710
:103C2300A3A3A3E4F0A3F0901C52124BFF600F85F3
:103C33000882850983A3A3A3A3125AFD801F901CA6
:103C430052125AFD901C82E0A2E3401112127AEA4A
:103C5300F8EBF9ECFAEDFB901C54120B60901C820C
:103C6300E0A2E3502E7A087B00901C33E0F9121295
:103C730068EA4B4C4D701C901EBD12766678081294
:103C830008F57A087B00901C33E0F912125C740487
:103C93001208BF023154C082C083E9901ECFF09056
:103CA3001C4C746CF0A3741DF0901C4E747EF0A336
:103CB300741DF0901C507490F0A3741DF0025E1FED
:103CC30074F712039AEAFEEBFF8908EE4F700312B2
:103CD300264E901C58125A527008901C588022127B
:103CE3004BF788828983A3A3A3A3A3A3A3A3A312AC
:103CF3004BFF88828983A3A3A3A3A3A3A3A3A37036
:103D0300DEEEF0A3EF126972A3A3A3E4F0126971CC
:103D1300E508F00252BB74F712039A901C58800D09
:103D23008E828F83A3A3A3A3A3A3A3A3A3124280DF
:103D3300EE4F60348E828F83A3A3A3A3A3A3A3E038
:103D43006970DD8E828F83A3A3A3A3E06A7003A3AC
:103D5300E06B70CC8E828F83A3A3A3A3A3A3E06C99
:103D630070BEEEFAEFFB80047A007B000252BB7454
:103D7300F712039A901C58124280901C5812381E56
:103D8300687002EB69701EE0C82409F582E438F517
:103D930083124BF7901C58125AFD901C5812428004
:103DA3008027124273EE4F60208E828F83A3A3A3DA
:103DB300A3A312381A687002EB6970E68A828B83B8
:103DC300A3A3A3123DD6125AFD121196EEFAEFFBEE
:103DD3000252BBA3A3A3A3A3A31245E2A3A3A3A33A
:103DE300A32274F012039A74FA1209738A088B09D6
:103DF3008A828B83A3A3A3A3A3A3A3A3E0603364B7
:103E030001602F8A828B83125A7312214AE970222E
:103E1300850882850983A3A3A3A3A3A3A3A3E06423
:103E23000370147404120953AA08AB09121E1AE989
:103E330070167902023FE1850882850983124BF7E8
:103E43007404120BB3125AFD127036243412618BB0
:103E53001211908A0A8B0BAE0AAF0BEE4F7003025E
:103E63003FDF7C347D0079001210D6740212094BB7
:103E7300850882850983A3A3A3A3A3A3A3A3A3E084
:103E8300F91227447402120BB3E0C0E0123FF0D0E2
:103E9300E0F0EE242EF50AE43FF50B7403120BB3A6
:103EA300E0850A82850B83F07901EEFAEFFB121DA0
:103EB3005A85080C85090D750E00780C1208F97CDB
:103EC3001E7D00123FF81210CA74031208BFEE24BD
:103ED300321243A32434F8E43FF98A828B83125AC3
:103EE300FDE5082411F8E43509F9E8FCE9FD8C82C5
:103EF3008D831256F42430125AF712439B127853CF
:103F03001208F98C828D83124007125A731210CA59
:103F130074031208BF7404120BB31245DE125AFD68
:103F2300901C34124000A3A3A3F0901C34E004F0CF
:103F330012127A8E828F83125743242C1248AE7545
:103F43000D00850A82850B83E0780C120A8C8A8225
:103F53008B83E50CF0123FE6E50C125759E4F0E5CC
:103F630008241512703AA2E074015007120BB374BF
:103F7300018004120BB3E4F0EE2429125A26AA1886
:103F8300AB19122768E924FE850882850983F0EEC0
:103F93002430F8E43FF9E8FCE9FD12400F12025225
:103FA300E88E828F83A3A3A3A3A3A3A3A3F01240AA
:103FB3000F1202528B09EA4509600F8E828F83A389
:103FC300A3A3A3A3A3A3A3E004F0EE24201259C642
:103FD30044081248FA1211307900800279107406ED
:103FE3000243C8EE242BF582E43FF58322EE1265EB
:103FF3003B3FF58322EE240BFAE43FFB2212689D3C
:10400300A3A3A32212426D8A828B83228C828D8387
:1040130012592AE0FA7B002274F412039AEAFEEBA7
:10402300FF12127A8E828F831256FF901EB3E0F82E
:10403300EE242D1259C6C398400302417C1248BA9C
:104043007012EE242D1259C6041259F9C0E0123F22
:10405300E6D0E0F0EE242A1259C6FC79008001096B
:10406300EE242E1259C6F8E9C39850267508017537
:104073000900E97808120A8C1248BA550860E0E989
:104083002CFC750801750900E97808120A8CE045D3
:1040930008F0EE24291259C6FAEE2430F582E43FE3
:1040A300F583EC8AF0A4F8ABF0E42BF9E098F8A3DD
:1040B300E099F9C3E89AE99400EE403124291259B2
:1040C300C6F81248BA602C123FF0124197A3E4F0ED
:1040D300EC7047EE24201259C64420126007C0E05A
:1040E3001259E7D0E01259F1FAA3E08052123FE7E8
:1040F30074FFF0901C78E0FA901EB612418EABF07C
:1041030075F064A4FAADF075F064EBA42DFB8E8218
:104113008F83A3A3EAF0A3EB80B5EE24201259C644
:1041230054DF1259E2ECF0FAEE2429F582E43FF56C
:104133008312418EFAABF0EE12568A3F1248D0FB3F
:10414300126E6FEAF0A3EB126981C0E0EE2425F54D
:1041530082E43FF583D0E0125710E8125A62901CB4
:104163005A125A52600BECF9126DA2120525E9702E
:1041730017123FF8121DF6800F7BE91243B912277D
:104183009EEEFAEFFB121D66023A5CE0F508EA8543
:1041930008F0A42212689DA3F02274F412039A90EB
:1041A3001C5812428012127A8A0A8B0B78FF79FF0D
:1041B3008020E0C39AFCA3E09BFDC3EC98ED9950EB
:1041C3000E8E828F83A3A3E0C39AF8A3E09BF91218
:1041D3004273EE4F605C8E828F83125A73E50AC37B
:1041E3009AFAE50B9BFB8E828F83124267C3EA9C8C
:1041F300EB9D8E828F83A3A340B8A3A3A3A3E06404
:1042030002701AEE240B1248BD6009124899125A23
:10421300731210F4EEFAEFFB121D668007EEFAEF4D
:10422300FB121D727A017B00901ECFE0F912113050
:10423300802974FF68700374FF69601F8808890907
:10424300E4F50AF50B78081208F57A017B00901E55
:10425300CFE0F912125674041208BF023A5CA3A30A
:10426300A3A3A3A3A3A312426D22E0FCA3E0FD2218
:104273008E828F83A3A3A3A3A3A3A3A3A3E0FEA3DD
:10428300E0FF2274F012039A8A088B09ECFAEDFB23
:10429300890A7C01127036F9121D608A0C8B0DAEEF
:1042A3000CAF0DEE4F700302438FE50A6003024328
:1042B3008F12439B1243B168600302438F12439BE7
:1042C300E0FAEE242E1259C6F8EA28FAE43400FB89
:1042D3008E828F83A3A3A3A3A3A3A3A3E0F8EA9847
:1042E300EB9400C365D033401CE508241412703AE4
:1042F300F470127B001243B912279EEEFAEFFB1201
:104303001D6602438FE508241412703AF47042EEDE
:10431300242B1243A3242EF8E43FF9E8FCE9FD75AE
:1043230008FF7509008C828D83E07808120A8C8A55
:10433300828B83E508F0124391E508F08C828D832C
:104343001243B128F0EE242DF582E43FF583E48097
:104353001BE5082414F8E43509F9E0C0E0124391A1
:10436300D0E01261B2C0E0123FE6D0E0F012127A60
:104373008E828F83125743123FF11243ADA3125A19
:10438300627A01FB901ECFE0F9121130803AEE24DD
:104393002CF582E43FF58322E50824131245CE224F
:1043A300F8E43FF9E8FAE9FBEE2212689D22E0F80F
:1043B300EE125CAFE022EE242212572EFAEE241402
:1043C30012572EF9221208BF7F0802060B74EC1253
:1043D300039A74FE1209738A0A8B0B8C0E8D0F8954
:1043E300108A828B83A3A3E0F91227748A088B09AE
:1043F300AE08AF09EE4F70077A007B000245B27A30
:10440300127B001211908A088B09EA450970030296
:1044130045AE7C127D0079001210D6AA18AB19851F
:104423000A82850B83A3A3E0F9122744E508240F2E
:10443300F50CE43509F50D7401120BB3E0850C821C
:10444300850D83F07902AA08AB09121D5A850E82E5
:10445300850F831245D61245F412486D12694DF04B
:104463007512FF751300850C82850D83E078121297
:104473000A8C1270C0E5121251E3126DA0E0C0E085
:104483001245C6D0E0F012488FF50CE508240D1252
:1044930070C4E50CF0E50A1248A1850CF0A4A9F05C
:1044A3002427FAE439FB1210EE8A0C8B0DAE0CAF05
:1044B3000DE508126D78EEF0A3EFF0EE4F700302F6
:1044C30045A18E828F83741A125A628E828F83A3C0
:1044D300A3F0A31245FA1245DE125AFDAC0EAD0F3E
:1044E300126E79122750850A82850B83A3A3A3E05A
:1044F300C0E0125A08D0E0F0901C951256F4241034
:104503001245EE1256E2350B1256F21262B1E8F082
:10451300A3E91245FAA3A3A3A31256F42412125A31
:10452300F7850A82850B83A3A3E0C0E01245BCD0C4
:10453300E0F0E50A125037124874E0C0E012666DED
:10454300D0E0F07416120BB3126DA8C0E012702401
:10455300D0E012696CC0E0126D7ED0E0126DB1C084
:10456300E0126D88D0E0125705E510F07418120BB5
:10457300B3120B6CEE241AF582E43FF583120B6041
:10458300EE2427F8E43FF9EE24221245EE12617778
:10459300124874E0C0E0126E81D0E0F0800DAA08EA
:1045A300AB09121D66750800750900AA08AB0974EA
:1045B300021208BF7F0C02060BEE2414F582E43FBF
:1045C300F583221245CA22E508240BF582E4350956
:1045D300F5832212592AA3A3A3A3221245E222128E
:1045E3006AE38E828F83A3A3A3A322F582E43FF51C
:1045F30083125771E50A22F0850A82850B83A3A3F0
:10460300A3A3A3A32274ED12039A8A0A8B0B8C1023
:104613008D118912750900EA1248A1F508901C5AF8
:10462300125A52600EA908126DA2120525E9600301
:104633000248687C02851082851183125A73E50A49
:1046430012486DE0F9121D608A0C8B0DAE0CAF0D94
:10465300EE4F7054850A82850B83A3E0A2E04003EA
:104663000248687415120BB31207097417120BB3BF
:1046730012070DA912AC10AD11AA0AAB0B121D84BF
:1046830074061208BF8A0C8B0DAE0CAF0DEE4F7083
:10469300030248688E828F83A3A3A3A3A3A3A3A328
:1046A300E5081248FA121130A8088E828F83A3A35B
:1046B300A3A3A3A3A3A3E024FFFAE434FFFBEA68C4
:1046C3004B7003750901EE240B1248BD70030248B9
:1046D3001D850A82850B83A3E0A2E05003750800C1
:1046E3001248E7E5089AE49BC365D033401CE0F821
:1046F300EE240E1259C628F0750CFF750D00E878EC
:104703000C120A8C125F23E50CF0E50A12487912A9
:104713004874126F271208F9E50A124885350B12FF
:1047230062C6EE240D1259C6F50CE508850CF0A4FB
:10473300FAABF01248991265642422F582E4381228
:1047430048D0FB1210CA74031208BF750C0112483B
:10475300C2780C120A8C1259C3450CF0E509A2E089
:104763005063EE240C1248AE1248C204780C120AAD
:104773008C8A828B83E0450C12572385080C850CA9
:10478300F0A4F8A9F012488FFCE82CFCE439FD12E0
:1047930048991265642420F582E438F583ECF0A38C
:1047A300ED12574AF4701EEE240BF50CE43FF50DA1
:1047B300EE1248853F1248D91210FA850C82850DF6
:1047C3008374FF805412127A8E828F831256FF9065
:1047D3001C78E0FA901EB6E0F50CEA850CF0A4FA1A
:1047E300ABF0F8EBF9901EB3E0F50CE8850CF0A400
:1047F300F8ACF0850CF0E9A42CF9EA28F8EB39F9C8
:10480300E875F064A4F8AAF075F064E9A42AF98EB7
:10481300828F83A3A3E8F0A3E9F0A8081248E7EA8C
:1048230024FF1AEB34FFFBEA687001EB600EEE2401
:104833000C1248BD6006E509A2E05029E50A1248BA
:10484300A6ECF01259C3C0E0E50A2414F582E41281
:104853004874D0E0F0AC0AAD0B8510828511831249
:104863005A73121DE47F0B02060B12501712487481
:1048730022350BF5832212487D22240EF582E42291
:10488300E50C124889222410F582E422E50A124835
:1048930089124874E022EE1248893FF583221248B8
:1048A300A6E022125011350BF58322F8E43FF9E814
:1048B300FAE9FB750CFF22EE242B12572EF4227516
:1048C3000D0012572BF5F0E50884E5F022F583E09F
:1048D3002AFAA3E03B22F583125A7D850C82850DCB
:1048E30083E0F922EE240E12572EFC12572BFAEC1A
:1048F3002AFAE43400FB22F07A017B00901ECFE019
:10490300F922C082C083901ECFE0F91210FA025E32
:104913001F74F412039A8A088B09EB5480703BEAE4
:10492300A2E05053121D78E5086401FAAB09804BED
:104933008E828F83E06401701A12498D1207091267
:1049430049811208FDEE2412124995121D8A74063C
:104953001208BFEEFAEFFB1210F4901ECFE0F9122B
:1049630011068A0A8B0BAE0AAF0BEE4F70C2AA0870
:10497300E5096480FB80047A007B00023A5CEE2444
:104983000FF50AE43FF50B780A22EE1250113FF5BA
:10499300832212572EF9EE2402FCE43FFDEE241984
:1049A300FAE43FFB2274F112039A890A8A088B09FD
:1049B3008A828B83125A73121DA28B0DEA450D60F6
:1049C3000579B8024A50121DC0E9F8902D99E49375
:1049D300F9E8C399400479B280737A157B00121108
:1049E300908A0C8B0DAE0CAF0DEE4F7004791080D6
:1049F3005C8E828F83E4F0A3126AC9A3E50A126D69
:104A0300C21208F97C127D00EE2403FAE43FFB1284
:104A130010CA74031208BF901C5C125A52901C5C9B
:104A23007006EEF0A3EF801FE0FAA3E08003E8FA3C
:104A3300E9FB8A828B83125A5270F3EEF8EFF98AFC
:104A4300828B83E8F0A3E9F0121DD27900025AC2E7
:104A5300C082C083901C5C80048C828D8312426967
:104A6300EC4D60288C828D83A3A3E069600574FFFD
:104A73006970E68C828D83A3A3A3E06A7003A3E02D
:104A83006B70D6EC2403FAE43DFB80047A007B00D0
:104A9300025E1F74F712039AE9FD74FE6D70047CC5
:104AA3000180027C00901C5C80096D70027C01888F
:104AB300828983125A52601F88828983A3A3A3E049
:104AC3006A7003A3E06B70E7ECA2E088828983A39A
:104AD300A3E050D6F9800279FE0252BB74F61203AA
:104AE3009AE9FF7E00901C5CE0FCA3E0802D8C82A1
:104AF3008D83A3A3E06F701E8C828D83A3124B283A
:104B030025E0F8E433F9EA28F582EB39F583E50883
:104B1300F0A3E509F00E125A3FFCE9FDEC4D70CE0F
:104B2300EEF90250B1A3A3125A37EE2274F712031F
:104B33009AE9FE901C5C124BF77C007D00800BE829
:104B4300FCE9FD88828983124BF7E849603D88823E
:104B53008983A3A3E06E70E788828983A3A3A3E07C
:104B63006A7003A3E06B70D7EC4D88828983700869
:104B7300125A73901C5C80031252A7126236FAE930
:104B8300FB121196121DD27901800279000252BBE9
:104B930074F512039A890A901C5C125A7375080003
:104BA3007509008015125926E8F0A3E912574AFE49
:104BB300A3E0FF121196EEFAEFFBEA4B602B8A8219
:104BC3008B83A3A3E0650A7012E50845098A828BEB
:104BD3008370D2124BF7901C5C80CD8A088B098AB4
:104BE300828B83E0FAA3E080D0121DD20271358E4E
:104BF300828F83A3124BFB22126AE322125A7DEAAD
:104C03004B22C082C0837900901C5C800109125A38
:104C1300738A828B83E582458370F2025E1F74F68A
:104C230012039AE4F508F50978081208FD902D9906
:104C3300E49375F013A4A9F0124D631212087402E1
:104C43001208BFE9FE6003121DCC024B2374F61257
:104C5300039A74FE120973851882851983E4F0A3FD
:104C6300F0A818A9198808890978081208FD750899
:104C73000275090078081208FD7C007D007A427BEA
:104C83000012121474041208BF0250AC74F512031C
:104C93009A74EB120973851882851983E4F0A3F0E3
:104CA300901C5CE0FEA3E0807E8E828F83A3A3E052
:104CB300C0E07402120BB3D0E0124D77A982AA832D
:104CC30089088A09750A0078081208F97C127D00A0
:104CD3007406120BB3AA82AB831210CA74031208B0
:104CE300BF74021209438808890978081208FD7500
:104CF300081375090078081208FD7404120BB31227
:104D03005A4375F013A4F8AAF075F013E9124D5F36
:104D130012121474041208BF851882851983124D68
:104D23006E126FF2E8FEE9FFEE4F6003024CACA88F
:104D330018A9198808890978081208FD75080275E9
:104D4300090078081208FD7C007D007A427B00127E
:104D5300121474041208BF7415027132A42AF9E8FC
:104D63002402FCE439FD7A427B0022E02401F0A313
:104D7300E0340022124D7B22124D7F22124D8322FA
:104D8300126ACEA3A3A32274F412039A74EB12093A
:104D9300737E007F00A818A919880889097808126A
:104DA30008FD7508028E0978081208FD7C007D0055
:104DB3007A427B0012121A74041208BFE9706E8ED5
:104DC3000880587402120943880A890B780A12086A
:104DD300FD750A13750B00780A1208FDE50875F0D6
:104DE30013A4F8AAF075F013E509124D5F12121A15
:104DF30074041208BFE9701B7403120BB3AA82ABCD
:104E0300837402120BB3E0F9121D9CE970050EEED8
:104E130070010F0508E508700205098518828519D8
:104E230083124BF7C3E50898E509994096EEFAEF2C
:104E3300FB7415023A5974F612039A8C828D83A37C
:104E4300A312506DF0EA2417F582E43BF583E0C02A
:104E5300E012503DD0E0F012501D124BF7125027D4
:104E630012506DA3F0A3F0EA241FF582E43BF5830F
:104E7300124280EC1256E23DF583EEF0A3EFF0EA26
:104E8300125F1D3BF58312504EA3A3A3A3A3A3EE6E
:104E9300F0A3EF1261B2FE8C828D831250977403DC
:104EA3005EFEC394034003025004EE600574026E79
:104EB30070798C828D83E0540CFE740C6E70030247
:104EC3004F6BE0A2E4400D88828983E08C828D835E
:104ED300A312509F74086E6003024F6B12502F741D
:104EE30001F08A828B83A3A3A3A3A3125AB77014DE
:104EF3008C828D83E0440C125077A3A312504EEEA4
:104F0300F0A3EFF08C828D83E0A2E4401E12505C8C
:104F130012508850010912505CA3A312508850010B
:104F2300098882898312504512509788828983E0C9
:104F3300C0E0EC1250173DF583D0E01250978C82FD
:104F43008D83E0A2E7507888828983E0FE8C828D8E
:104F53008312509F74FC5E700C8C828D83A3E0548B
:104F6300036403701B02500412502FE4F0740C6EA0
:104F73006003024EE512505C12508A508709808408
:104F83008C828D83A3E05403603888828983E0C0D8
:104F9300E0EC1250113DF583D0E01250A08C828DCD
:104FA30083E054036402701A88828983E0C0E0ECD2
:104FB3002414F582E43DF583D0E01250A08003A3CE
:104FC300E4F0EC1248793D125AFBEC2410FEE43D68
:104FD300FF12501DE0F5088E828F83E0C3982508E9
:104FE300F508F0EA2417F8E43BF988828983E0C3E3
:104FF3009508C0E0125027D0E01261B2C395085063
:105003000A125027E4F012503DE4F00250B1241389
:10501300F582E4222411F582E422EA241DF582E4D8
:105023003BF58322EC125F1D3DF58322EC125037D2
:105033003DF58322240CF582E422EC1248893DF5E8
:105043008322E08C828D83A3A3A322E0FEA3E0FF4F
:105053008C828D83A3A3A3A32288828983E0F5088E
:10506300A3E0FFE5088C828D8322E4F08C828D839C
:10507300A3A3A32212507FA3A3A3A322F08A828B0C
:1050830083A3A3A322A3A3A3A3A3A3F0A3EFF0E863
:105093002402F8221250A7A882A98322A31250A7A0
:1050A30008A983221261B7A32274021208BF7F02E8
:1050B30002060B74F412039A74F31209738A0A8BAF
:1050C3000BECFEEDFF8E828F83E0540CF508E0A21B
:1050D300E75006E508D2E7F508E508D2E1F508123E
:1050E3005AB77006E508D2E4F508E0A2E55006E5F4
:1050F30008D2E5F5087C087D007900AA18AB1912DF
:1051030010D67402120BB3E5081251E3C0E0740326
:10511300120BB3D0E0125759E50AF0A3E50BF07474
:1051230005120BB31262CD121E92740C120BB3E074
:1051330070787408120BB312656412617738126BBE
:1051430073C0E07408120BB31251D7D0E01265B7E5
:10515300C0E07408120BB31251CBD0E0F074081204
:105163000BB31258A41251BA126007125736241106
:105173001259C6C0E01251B2D0E0F0EE2414125915
:10518300C6C0E07408120BB31265642435F582E4DB
:1051930038F583D0E012571BC0E07408120BB3122A
:1051A30056CCD0E01262CF121E98740D023A59E821
:1051B30012568A39F58322125A77E8242AF582E4B3
:1051C30039F583EAF0A3EB221265B22427F582E4D2
:1051D30038F583221265B22426F582E438F583225A
:1051E300126AC9E02274F712039A7E008A828B83C3
:1051F300A3A3A3A3A3A3A3A3A3E0640460030252F2
:1052030094125AAFE060030252941252983B125A1E
:1052130050607E88828983E054037075E8240C1201
:105223005C98FA8C828D83A3A3E0FBA3E0CB12509E
:10523300173BF583E06A705988828983A3A3A3A3EC
:10524300A31252A3E06A7003A3E06B7044888289BF
:10525300831252A3A3A3125CC524061259C66A7013
:1052630003A3E06B702B88828983A3A3E0F88C826D
:105273008D83A3A3E0F9A3E0F5838982A3A3E06868
:10528300600D8C828D83125A10540C640470027E5C
:1052930001EEF98023EA12529D22240FF582E422C3
:1052A300A3A3A3A3125A7D8C828D8322740C120BA9
:1052B300B3E0F9740D1208BF7F0102060B74F612F6
:1052C300039A74FC120973EAFEEBFFECFAEDFB8A16
:1052D300828B83A3E054036016901C4E125A5260D3
:1052E300597900EEFCEFFD126DA2120525804B8566
:1052F3001882851983EEF0A3EFF07402120BB31238
:1053030056FFAC18AD197AEA7B1D1220428A088B2E
:1053130009A808A909E849602188828983A3A3A36E
:10532300A3A3A3A3A3A37406F07A0088828983129C
:105333006564126541E0F9121F6474040250AE748F
:10534300F212039A74F3120973EAFEEBFF8E828F53
:1053530083A3A3A3A3A3A3A3A3A3A3E0F50A901EDC
:10536300CEE0700579BA0256857508017509007596
:105373000C00750D007C087D007900AA18AB19128A
:1053830010D67405120BB3740112575154046012F2
:105393007402120BB3E0D2E612575154087003752E
:1053A3000803E05410600674404508F508E054080B
:1053B30060227402120BB3E044C0125751542060B0
:1053C3000A7403120BB3E0D2E080087403120BB328
:1053D300E0D2E1F0EE24151259C61256B4700374EC
:1053E3000169700674084508F5088E828F83A3A3AC
:1053F300A3A3A3A3A3A3E070161220AE85188285EE
:1054030019831256FF7402120BB3E0D2E2802C64AC
:105413000F70107402120BB312576174044508F530
:1054230008807B8E828F83A3A3A3A3A3A3A3A3E05C
:1054330064028E828F837006125FFBF08060A3A3E9
:10544300A3A3A3A3A3A3E06403700DAC18AD19EE4B
:10545300FAEFFB121E1A80468E828F83A3A3A3A3A7
:10546300A3A3A3A3E064017035901CD8E06010747B
:1054730002120BB3125761750910750AFF80187475
:1054830002120BB3E0440C12575974FDF0A374FFDE
:10549300F074044508F5088E828F831256C0EE24FB
:1054A300151259C6A2E0503F7402120BB3E0540C1C
:1054B300701B8E828F83125A7312180EE97005794E
:1054C300BB0256857402120BB3E0D2E5F0EE24154D
:1054D3001259C6A2E050107402120BB3E0540C64CC
:1054E300047004E0D2E5F0EE24111259C6C0E07452
:1054F30004120BB3D0E01262CF121E92740C120B83
:10550300B3E0600302567E7408120BB31256E8E54B
:1055130008F0A3E509F0EE24181259C6C0E01256AC
:10552300A3D0E0125705E0C0E07408120BB3126574
:105533006412501138F583D0E012600764017011D2
:10554300901CD8E0C0E07408120BB31256D8D0E018
:10555300F07408120BB31256F424171259C6FAE862
:10556300241CF582E439F583EA125A62EE2415FA13
:10557300E43FFB8A828B83124269E812569AECF06D
:10558300A3ED125710E0C0E0125690D0E012574A34
:105593001256B4700374016970137408120BB312BA
:1055A3005A8AFAEE241D1259C6F9121BD48E828F21
:1055B30083A3A3A3A3A3A3A3A3A3E0C0E07408129C
:1055C3000BB31251D7D0E0F07408120BB31251CBC6
:1055D300E50AF07408120BB3125A432428F582E447
:1055E30039F583E50CF0A3E50D125723FAA3E0FB8D
:1055F300E8242A12573D240F1259C612573624178E
:105603001259C6C0E0E82433F582E439F583D0E0CB
:10561300F01256ADC0E07408120BB31256CCD0E0B2
:10562300F0EE241A1259C6C0E07408120BB31265C7
:105633006412568A38F583D0E012571B1230EE12EB
:1056430008F9126D70124269740B120BB3125FD911
:105653001210CA74031208BFEE24151259C654401F
:105663006012901C68125A52600AAA18AB19126D84
:10567300A2120525AA18AB19121E98740C120BB3AB
:10568300E0F9740D0231512432F582E422E824203A
:10569300F582E439F58322241EF582E439F5832269
:1056A300E82412F582E439F58322EE241B12572EE7
:1056B300225480F8A3E05401F9748068221256C47E
:1056C30022E0F50CA3E0F50D221265B22434F58235
:1056D300E438F583221265B21256E238F5832224A8
:1056E30015F582E422125A4712529D39F58322F5A9
:1056F30083124BFBEE22F582E439F583EAF0A3EB48
:10570300F022F0EE2419F582E43FF58322F0EE2433
:105713001CF582E43FF58322F0EE241312572E2268
:10572300F0EE240D12572E22EE240FF582E43FF5FE
:1057330083E022FAA3E0FBE8242CF582E439F58325
:10574300EAF0A3EBF0EE22F08A828B83E022F0EE04
:10575300241512572E22F085188285198322E0D250
:10576300E3126FF612576B22851882851983E8F0CE
:10577300A3E9F02274F712039A7E638A828B83E093
:10578300600C7905121F40E9F87456C398FE901C0B
:1057930080E0600CF9121F40E9F8EEC39824F2FE92
:1057A30002529474F612039A74FE120973851882D6
:1057B3008519831256FFE9FEECFAEDFB9004D4122F
:1057C3005A526035A818A919880889097808120857
:1057D300FD7D01740E120BB3E0FCEEF99004D412BC
:1057E300655D12052574021208BF8B09EA4509603D
:1057F300047900800679B2800279B60250AC74F75E
:1058030012039AE9FE901C42125A52601F74091245
:105813000BB3E0F5087808120901EEF9901C421267
:10582300655D12052574011208BF800279B6025224
:10583300BB74F712039A8908ECFEEDFF79B5E5080E
:10584300245F600C14603114601224F86045804EAC
:10585300901C351258A4E8F0A3E980199004D612DD
:105863004BFF603A9004D612655D1205258E828F38
:1058730083EAF0A3EBF08024901C44124269EC4DC0
:10588300601CEEFCEFFD901C4412655D120525E9DA
:10589300F9800B901C401268751212A47900025211
:1058A300BB124BFB8E828F832274F712039AE97922
:1058B300B5245F600624F6600E80178C828D8312F8
:1058C30058D8125AFD8009901C40125A731212A420
:1058D30079000252BB124BFB901C3522A90A0231FC
:1058E3005474F212039AEAFEEBFF8C088D09750AD1
:1058F300011220A88A0C8B0DAC0CAD0DEEFAEFFB58
:1059030012129EE96401700B901C88125926125AD8
:10591300FD800EAC08AD09EEFAEFFB1219CAE9F5EA
:105923000A80B912592A22126AE3850882850983FB
:105933002274F612039AEAFEEBFF7A0D7B00121132
:1059430090EA4B6070EE2424127018F0EE242512B6
:105953007018A31259E212701EA3A3126DB7125945
:10596300CAF0EE125CAB124BF78A828B83A3A3A31C
:10597300A3E8F0A3E91259F91259D3125AFDEE2400
:105983002EF582E43FF5831259CAA3A3A3A3A3F080
:10599300EE24331259C6C0E01259BBD0E0126B7724
:1059A3001259D3A3A3A3E8F0A3E91259F1C0E0125B
:1059B3005AAFD0E0F00250B1EA125CA53BF5832266
:1059C300EE240C12572E22E08A828B83A3A3A322F8
:1059D300F8A3E0F98A828B83A3A3A3A3A3A322F052
:1059E3001259E722EE2426F582E43FF58322F0EEF6
:1059F300243212572E22F0EE242C12572E22125745
:105A030071126D9622EE12529D3FF58322A3A312CB
:105A1300639322E508240F1245CE22125A26888268
:105A2300F58322F8E43FF98808890922A3A3A3A3F5
:105A3300125A3722E0F508A3E0F509228C828D8300
:105A4300125A4722126AE3E822F582E438F58312F8
:105A53005A4749221265B212529D38F5837404F0F5
:105A6300A3E4F0228E828F83A3A3A3A3A3A3A3A360
:105A7300125A7D22A3A3A3A3A3A3E0FAA3E0FB22CC
:105A8300A3A3125F3CA322125AE6E022125A9322E6
:105A9300125A972212703FF8A3E022125A93F92266
:105AA300C082C083125AAFE4F0025E1FEA1250377D
:105AB3003BF58322E05403640122740D1208BF7F77
:105AC3000702060B790102088AF8E43FF988828904
:105AD30083E0FAA3E0CA22126532A3A322125ADAA0
:105AE300A3A3221261C8C812487D38F58322124B42
:105AF300FBEE240BF582E43FF58312577122C0823B
:105B0300C083125AAF7401F0025E1F025AC7C082EB
:105B1300C083901C5E7426F0A3741EF0901C607406
:105B230032F0A3741EF0901C627438F0A3741EF05C
:105B3300901C64742CF0A3741EF0025E1F74F412A4
