:020000040000FA
:06000000020AFB0201EB05
:03002B000208F5D3
:0300430002063979
:0300530002012B7C
:03006B000207A4E5
:1000830002017F01965118000200002F0F000000AB
:1000930000C90EAD0FFF0E770F0000F30E00000036
:1000A300000000000000000000000000000000004D
:1000B300000000000006FFFFFF01010400AF19006C
:1000C3000000E8030000FFFF7E1AE803000064005D
:1000D3006400B801A0BB0D00A0BB0D000202000824
:1000E300000005020701010A1E02054602011E0A5D
:1000F300010301080803B80B02803E0102FEFFE87A
:10010300030A050001FFFF0A1401E00101050301D1
:1001130001FF0F10FEFFD22A000000004429000057
:100123000000FF000000FF00C0E074F2120402A20E
:10013300AFE433F508D2AFAFA7AEA1EE5F541060C2
:1001430006120C5375A1EFEE5F54086008120C59A8
:1001530075A1F78023EEA2E092F0EFA2E082F050C7
:1001630017906198E0F8900926E0C398A2D265D071
:10017300335002E8F075A1FEE5088063C0E074F235
:10018300120402A2AFE433FED2AF9061A4E0F8758B
:100193009B00E59158540860087591F7120CA180F3
:1001A30023E59158541060087591EF120CA7801441
:1001B300E591A2E092F0E8A2E082F05007E0C2E00D
:1001C300F0120DFD9061A3E0F8E5E9585404600EC8
:1001D300120DD375E9FB906193E0A2E640F2EEA223
:1001E300E092AF7F01020461C0E074F2120402A244
:1001F300AFE433FED2AF9061A5E0F8E5BF585404F5
:10020300600675BFFB120E1580D4C3E498F8E49919
:10021300F912024E8026C3E49AFAE49BFBE920E735
:10022300E912024EE498F8E499F922C3E498F8E459
:1002330099F912024EE498F8E499F9C3E49AFAE4BE
:100243009BFB22EB20E7CFE920E7E0B90010BB00DE
:1002530008E88AF084F8AAF022E4FBC8FA22EB70DB
:10026300227B10C833C8C933C9335007C39AC3DBD1
:10027300F280069A50012ADBEAC833F4C8C933F482
:10028300C9FA2275F008E4C833C8C933C933C99A17
:10029300C99B5004C92AC93BD5F0ECFBC833F4C849
:1002A300E4C9FA22080808EAC0E0EBC0E086F0E7F8
:1002B300A4FA180986F0E7A42AFA180986F0E7A435
:1002C3002AFA180986F0E7A42AFA1986F0E7A4FBAC
:1002D300E5F02AFA190886F0E7A42BFBE5F03AFAD1
:1002E300190886F0E7A42BFBE5F03AFA18180986FB
:1002F300F0E7A4C5F02BFBE43AFA1908E7C5F0C60A
:10030300A426F6E5F03BFBE43AFA1886F0E7A4F6F8
:10031300E5F00826F6E43B08F6E43A08F6D0E0FBFD
:10032300D0E0FA22E4CFC0E0E4CEC0E0E4CDC0E008
:10033300E4CCC0E075F020E626F608E633F608E6DE
:1003430033F608E633F6181818EC33FCED33FDEEFC
:1003530033FEEF33FFC3EC9709ED9709EE9709EFEF
:1003630097191919400FFFEC97FC09ED97FD09EE5A
:1003730097FE191906D5F0BFECF709EDF709EEF76B
:1003830009EFF7191919D0E0FCD0E0FDD0E0FED059
:10039300E0FF222518C582C0E0E51934FFC583C0FC
:1003A300E0E518C3958224F810AF08858319858288
:1003B300188008858319858218D2AFCEF0A3E52073
:1003C300F0A37808E608F0A3DEFAEFF0A3E58124B2
:1003D300FAF8E608F0A3E608F0A3E608F0A3080895
:1003E300E608F0A3E608F0A315811581D0E0FED05E
:1003F300E0F8158115811581E8C0E0EEC0E022C068
:10040300D02518C582C0E0E51934FFC583C0E0E5F7
:1004130018C3958224F310AF088583198582188049
:1004230008858319858218D2AFC8F0A3E9F0A3EA3F
:10043300F0A3EBF0A37908E709F0A3D8FAECF0A353
:10044300EDF0A3EEF0A3EFF0A3D0E0F0A3D0E0F043
:10045300A3D0E0F0A3E520F0A3E5F0F0A3228519F3
:1004630083851882E0C0E0A3E0F9A3E0FAA3E0FBF0
:10047300A37808E0F608A3DFFAE0FCA3E0FDA3E01D
:10048300FEA3E0FFA3E0C0E0A3E0C0E0A3E0F5D05B
:10049300A3E0F520A3E0A3F5F010AF088583198549
:1004A30082188008858319858218D2AFD082D083C1
:1004B300D0E0F8D0E032120B8DB900030204F8E467
:1004C3009004D17888791A8002F0A3D8FCD9FA7AFB
:1004D300587B1E90008678A679018015E493A3AD1E
:1004E30082AE838A828B83F0A3AA82AB838D828EB2
:1004F30083D8E9D9E77582B97583F5740512086C59
:10050300758241758327740012086CE47375F010CB
:100513008E1A8F1B85821F85831E851882851983FA
:10052300E0CEA3E0CF851F82851E83EBC9EAC8ED29
:10053300CBECCAC3E833C8E933C9EA33CAEB33CBDC
:10054300C3EA9EF51DEB9FF51CB35004AB1CAA1D1B
:10055300EC33CCED33CDD5F0DAAE1AAF1B22D0831A
:10056300D082ECC0E0EDC0E0E493A3FCE493A3FDF0
:10057300ED4C600D12067CEC24FFFCED34FFFD8096
:10058300EFE493A3FCE493A3FDED4C600D12074F3E
:10059300EC24FFFCED34FFFD80EFD0E0FDD0E0FC68
:1005A300E493A3C0E0E493C0E02285198385188215
:1005B300E0A3FEE0A3F5207808E0A3F608DFFAE065
:1005C300A3FFE0A3C0E0E0A3C0E0E0A3C0E0E0A39A
:1005D300C0E0E0A3C0E010AF0885821885831980CE
:1005E30008858218858319D2AFD083D0820208721E
:1005F300D083D082E9C0E0E493A3C386F0C5F0952D
:10060300F0F908E493A386F0C5F095F0700BE4933A
:10061300A3C3994005E9048002A3E475F002A4256D
:1006230082F582E5F03583F583D0E0F9E493A3C046
:10063300E0E493C0E022C0E074F2120402A2AFE44B
:1006430033FED2AFC2C0901B28E0700BE5D1A2E409
:10065300501D120BC38018E5D1A2E3500675D1F7E4
:10066300122657E5D1A2E4500675D1EF12264BEEC0
:10067300A2E092AF7F01020461C0E0C3E493960855
:100683007401939618400FE49366700808740193FD
:10069300661870007019A3A3C3E4939608740193BA
:1006A3009618A3A3400DD0E0D0E0D0E002059DA3AF
:1006B300A3A3A3A3A3D0E022D083D082C5F0E49365
:1006C300A3C5F0C395F0F5F0E493A3C395F04005FB
:1006D300E5F0048001E475F002A42582F582E5F0DB
:1006E3003583F583E493A3C0E0E493C0E02274046C
:1006F300800474028000CCC0E0EDC0E0E518C39C28
:10070300CCAD1950011D10AF068C188D1980068CC5
:10071300188D19D2AF1207EED0E0FDD0E0FC2274A1
:10072300028000CCC0E0EDC0E0E518C39CCCAD195D
:1007330050011D10AF068C188D1980068C188D1969
:10074300D2AF1207CCD0E0FDD0E0FC22C0E0C0F075
:1007530088F0E4936670080874019366187000A823
:10076300F0A3A3700BD0F0D0E0D0E0D0E002059D61
:10077300A3A3D0F0D0E022D083D082CCC0E0E49316
:10078300A3600612084D1470FAE493A360061209DD
:100793006E1470FAD0E0FCE493A3C0E0E493C0E0ED
:1007A30022C0E074F2120402758900C2C5901B28AE
:1007B300E0700E7A007B109009BEE0F91210D98028
:1007C300031219197F01020461CAC0E0E493A3C5AF
:1007D30082CCC582C583CDC583F0A3C582CCC58237
:1007E300C583CDC583DAE5D0E0CA22CAC0E0E0A361
:1007F300C582CCC582C583CDC583F0A3C582CCC5D4
:1008030082C583CDC583DAE6D0E0CA227009080821
:1008130008226016181818C6C333C608C633C6089C
:10082300C633C608C633C6D5E0EA22C008C3E0967D
:10083300F50808A3E096420808A3E096420808A337
:10084300E09645087001D3D00822C0E0E493A3D317
:100853009C5010E493A3C39C400AD0E0D0E0D0E0C6
:10086300020797A3A3A3D0E022C09FF59FE473D010
:100873009F22D083D082C09FE493C0E0740193C0D1
:10088300E0740293F59F2200C0D0251810AF08F53D
:1008930018500C05198008F51850020519D2AFD06D
:1008A300D0222518F58210AF08F518400C151980D1
:1008B30008F51840021519D2AF85198322740480F4
:1008C3000A74038006740280027401C0E0F4041207
:1008D30008A5D0E0120B3822BB0102E722C082C078
:1008E3008389828A83BB0003E08002E493D083D0B0
:1008F3008222C0E0C0D0E8C0E0A8A8D2AFC2C7E857
:10090300A2E792AFD0E0F8D0D0D0E032601608086A
:1009130008C6C313C618C613C618C613C618C6130B
:10092300C6D5E0EA222518F8E43519F9222518FA84
:10093300E43519FB222518FCE43519FD22C3E0C672
:1009430096F608A3E0C696F608A3E0C696F608A3B3
:10095300E0C696F622251810AF08F518400C1519B5
:100963008008F51840021519D2AF22C0E0E493A322
:100973006C7009D0E0D0E0D0E0020797A3A3D0E0E9
:1009830022C3E09608A3E09608A3E09608A3E096A6
:10099300A2D265D03322E066701008A3E066700A25
:1009A30008A3E066700408A3E06622E766701008F7
:1009B30009E766700A0809E76670040809E7662212
:1009C300C3E697F60809E697F60809E697F60809D5
:1009D300E697F622C3E4939608740193960874028B
:1009E3009396087403939622C3E096F008A3E096C7
:1009F300F008A3E096F008A3E096F022E657F60885
:100A030009E657F60809E657F60809E657F622E01D
:100A130026F608A3E036F608A3E036F608A3E03688
:100A2300F622E493F608740193F608740293F60829
:100A3300740393F622E056F608A3E056F608A3E003
:100A430056F608A3E056F622E056F008A3E056F067
:100A530008A3E056F008A3E056F022E647F608099B
:100A6300E647F60809E647F60809E647F622700462
:100A730022600D18C6C333C608C633C6D5E0F418C2
:100A830022E627F60809E637F60809E637F60809E5
:100A9300E637F622E026F008A3E036F008A3E036B6
:100AA300F008A3E036F022E4C396F608E496F608CD
:100AB300E496F608E496F622600D08C6A2E713C68C
:100AC30018C613C6D5E0F322C6F4C608C6F4C60892
:100AD300C6F4C608C6F4C622C3E7960809E7960813
:100AE30009E7960809E79622C3E09608A3E096086B
:100AF300A3E09608A3E0962275D00075813F751890
:100B0300D1751904000204B9E6F008A3E6F008A3BE
:100B1300E6F008A3E6F022600C08C6C313C618C6A5
:100B230013C6D5E0F422E0F608A3E0F608A3E0F646
:100B330008A3E0F622CAC0E0E6F0A308DAFAD0E0A0
:100B4300FA22E8F0A3E9F0A3EAF0A3EBF022E0F83D
:100B5300A3E0F9A3E0FAA3E0FB22ECF0A3EDF0A3FA
:100B6300EEF0A3EFF022E0FCA3E0FDA3E0FEA3E0A0
:100B7300FF22EAF0A3EBF0A3ECF0A3EDF022E0FAFE
:100B8300A3E0FBA3E0FCA3E0FD22E5C754F8440186
:100B9300F5C77901222518F582E43519F58322C2B8
:100BA300AF75D69F0200002212087526C2051208EF
:100BB30075EEC205120875CFC30512087544C50545
:100BC300120875ABC505120875FEC5051208750F29
:100BD300C6051208751FC60512087591C6051208C9
:100BE30075A7C605120875B9C605120875E2B105E1
:100BF3001208750EB205120875B6B4051208750D04
:100C0300B50512087549B5051208755DB5051208D5
:100C13007576B50512087567B60512087543B705ED
:100C230012087557B7051208751DF90512087541A5
:100C3300F9051208755AF90512087598F90512088D
:100C430075C8F905120875F5F9051208755BFA05FB
:100C53001208755EFA0512087568FA0512087575AB
:100C6300FA05120875F3FC0312087513FD03120845
:100C73007552FD0312087570FD031208758BFD0391
:100C8300120875F1FD03120875FDFD031208755A6C
:100C9300FE031208757EFE031208753FFF03120858
:100CA300754CFF031208755DFF03120875FC84067B
:100CB300120875148506120875408506120875C258
:100CC300D00512087516D20512087524D20512082C
:100CD3007537D2051208754CD20512087561D20515
:100CE30012087574D205120875F0D20512087555ED
:100CF300D305120875EBD305120875C4D405120881
:100D030075D4D405120875E3D405120875CE83068D
:100D1300120875F283061208751A840612087542C2
:100D23008406120875C3EE05120875EAEE0512086B
:100D33007509EF051208756DEF05120875F6FC02CB
:100D43001208750FFD021208751BFD021208752F9C
:100D5300FD021208754DFD0212087557FD021208B7
:100D63007561FD0212087574FD0212087505FE0215
:100D730012087572FE02120875A6FE02120875F4B7
:100D8300FE0212087541FF021208755CFF02120889
:100D93007566FF021208758CFF02120875F1FF02D7
:100DA300120875678406120875898406120875E3AC
:100DB300FF0112087561F6041208758DF604120816
:100DC30075AAF604120875BDF604120875D8F60460
:100DD30012087532F70412087560F7041208756A71
:100DE300FB04120875BBFC04120875EDFC04120821
:100DF300754FFD04120875E2FE041208750AFF041C
:100E03001208751FFF041208752FFF041208756F6F
:100E1300FF04120875B1FF04120875C1FF0412081C
:100E230075DAFB05120875F4FB051208751CFC0541
:100E330012087535FC0512087559FC0512087577FB
:100E4300FC051208758EFC05120875BCFC0512081A
:100E530075D7FC05120875818506120875B3E80578
:100E6300120875C3E805120875CAE905120875FE6C
:100E7300E90512087520EA0512087543EA05120808
:100E83007561EA051208759BEA0512087504EB05FE
:100E930012087546EB051208758DEB05120875BA35
:100EA300EB05120875F1EB0512087519D505120843
:100EB300757BD50512087522D60512087559D60516
:100EC300120875D9CD0412087588CE04120875BAB4
:100ED300D00412087591D30412087523D50412089F
:100EE3007585D50412087505D9041208754DDA0401
:100EF3001208750AFD0512087555FD05120875934C
:100F0300BC0512087552BF05120875EFBF0512081C
:100F1300751BC00512087549C0051208757EC0050A
:100F2300120875A6C00512087506C1051208750ECC
:100F33008D05120875029105120875F992051208BC
:100F430075279405120875079505120875B596055A
:100F53001208756A98051208753699051208758A7C
:100F630099051208753CF10512087546F10512083A
:100F73007567F10512087590DB04120875AFE0047C
:100F830012087514E204120875F0E304120875EDF3
:100F9300E4041208751DE60412087535E704120807
:100FA3007550E8041208750080041208753880042F
:100FB300120875E68A04120875E38B041208753566
:100FC3008D04120875928E041208756B8F04120833
:100FD300753990041208752091041208750F920454
:100FE300120875B79204120875E7920412087599EE
:100FF30094041208750F95041208752895041208B5
:1010030075899604120875479704120875E69704C4
:101013001208758F9804120875FD98041208759BC1
:1010230099041208751E9A041208753C9A04120852
:1010330075539B04120875219C04120875D29C04F5
:10104300120875B1F705120875DBF705120875ED7F
:10105300F805120875F0F8051208753FFF05120828
:101063007585FF05120875C7FF05120875D7FF05BB
:1010730012087554AB0512087592AB05120875FB7F
:10108300AB051208751AAC0512087533AC051208C6
:1010930075E5AC05120875EEAC051208753FAD0594
:1010A30012087575AD051208758CAD05120875F833
:1010B300AD0512087588AE05120875BEAE05120897
:1010C3007502AF0512087563AF0512087595AF0574
:1010D30012087508B0051208755CB00512087599F9
:1010E300B005120875D0B005120875E2B0051208F4
:1010F30075F4B0051208752CB10512087578B105A1
:10110300120875B6B105120875CCC6051208750C20
:10111300C8051208752FC80512087540C8051208BE
:101123007558CA0512087578CA051208757CF30547
:10113300120875B2F305120875FAF305120875560D
:10114300F505120875B1B904120875EFBA0412084F
:10115300752BBB04120875FABC0412087524BD0470
:10116300120875BBBF04120875FBBF041208759003
:10117300C10412087525C20412087583C20412083B
:101183007516C30412087550C30412087592C3047C
:1011930012087505C50412087589C604120875AED0
:1011A300C804120875DCC80412087508C9041208BB
:1011B3007511C90412087567C904120875F7C904C3
:1011C300120875FACC041208757CCD041208753E1A
:1011D30086061208755486061208751AD905120870
:1011E3007530D905120875D5D90512087514DA05B5
:1011F30012087531DA0512087562DA05120875AF3F
:10120300DA05120875E3DA051208751EDB05120804
:10121300750ADD05120875008006120875558006EB
:10122300120875A080061208752CFE051208759E1B
:10123300FE05120875DCFE051208751DFF05120870
:1012430075EE7700120875F477001208753B780085
:10125300120875477A00120875777A00120875E349
:101263007A00120875A07B00120875E17B00120852
:1012730075137C001208759D7C00120875B47C0000
:10128300120875C17C00120875CB7C001208756BBF
:101293007E001208755D7F00120875BB7F0012087F
:1012A3007566F7011208757CF7011208752EF801AF
:1012B30012087558F9011208754DFA01120875EAFA
:1012C300FA0112087525FB0112087597FB01120834
:1012D30075F5FB0112087505FC011208752CFC015C
:1012E3001208757EFC01120875E7FD01120875EC02
:1012F300FD011208750EFE01120875DDDA021208EF
:101303007535DB02120875D5DB0212087552DD0252
:101313001208753EDE02120875FBDE021208751212
:10132300DF0212087561DF02120875D5DF021208A9
:10133300752BE0021208753EE002120875A2E00266
:1013430012087511E102120875C0E302120875CE86
:10135300E40212087529E5021208756FE502120806
:10136300751BE8021208756BE802120875ECE802B7
:101373001208752EE90212087508EA02120875416F
:10138300EA0212087560EA02120875ABEA02120853
:1013930075C1EA021208757CEB021208754AEC0269
:1013A30012087555EC02120875A3EC02120875F8C1
:1013B300EC0212087544ED02120875A8EE02120839
:1013C30075D2EE0212087557F10212087581F10207
:1013D30012087584F202120875B1F2021208752917
:1013E300F30212087504F40212087546F402120897
:1013F30075BAF402120875D4F50212087521F602C3
:1014030012087534F60212087537F6021208754091
:10141300F6021208755BF602120875D3F60212087B
:10142300750CF70212087528F70212087554F702B3
:101433001208757BF7021208759FF70212087518D8
:10144300F8021208758BF802120875CEF80212081A
:1014530075D8F80212087507F9021208751DF9020A
:1014630012087539F90212087568F90212087588AD
:10147300F902120875D1F9021208750CFA02120862
:101483007518FB021208757BFC021208759AFC02A0
:10149300120875B1FC02120875C3FC021208751319
:1014A3008206120875248206120875AD8206120898
:1014B300756BB705120875A9B70512087542B8050B
:1014C3001208754DB90512087595BB0512087512FA
:1014D300BC0512087528A40512087577A40512081F
:1014E3007535A60512087508A80512087546A805DE
:1014F3001208751CA90512087525AA051208754757
:10150300AA05120875A3AA0512087524AB051208CB
:101513007525BA0312087547BA03120875B1BB03E0
:10152300120875FABB031208756CBC03120875EA3E
:10153300BC031208754FBD0312087596BD0312084C
:101543007505BE03120875ABBE0312087520BF03F1
:1015530012087565BF0312087579C30312087592E3
:10156300C503120875D0C5031208750FC603120808
:101573007529C903120875B0C90312087550CB0346
:1015830012087587CC0312087597CD0312087508E6
:10159300CE03120875E5CE0312087569CF0312084E
:1015A300757DCF0312087545D0031208756FD103FB
:1015B3001208759CD303120875AFD5031208758BF7
:1015C300D6031208751CD903120875F1D903120842
:1015D300750FDB0312087562DE0312087572DE03F2
:1015E300120875F2DF031208758FE003120875AE57
:1015F300E10312087540E20312087597E30312082A
:1016030075DEE3031208758DE403120875859D04E6
:10161300120875259E04120875919E04120875AC74
:101623009E041208754F9F04120875979F041208B1
:1016330075C3A00412087502A10412087579A104E8
:10164300120875CAA10412087531A204120875DDC7
:10165300A204120875C0A504120875D9A6041208BD
:10166300755CA7041208751FA904120875C4A904A0
:101673001208756EAA04120875D3AA0412087542DB
:10168300AB0412087561AC041208755AAD04120854
:1016930075A4AD04120875BBAD041208757AAE04C7
:1016A300120875B9AE0412087534AF04120875B880
:1016B300B00412087550B204120875BEB3041208C0
:1016C3007520B50412087532B604120875C5B60440
:1016D30012087533B70412087545B8041208754C1F
:1016E300E503120875B7E503120875FFE503120851
:1016F3007566E603120875C2E603120875FDE60374
:1017030012087599E703120875F3E7031208755F6A
:10171300E903120875D8E9031208750FEB031208E1
:101723007537EB0312087515EC0312087526EC03E5
:101733001208753EEC0312087535ED03120875584F
:10174300ED0312087521EE031208754BEE03120820
:101753007562EE031208757CEE03120875A8EE039A
:10176300120875C8EE03120875EEEE03120875052C
:10177300EF03120875DAEF0312087534F003120849
:101783007505F10312087581F10312087598F103C9
:101793001208751BF20312087563F20312087589A8
:1017A300F203120875E1F303120875E6F303120856
:1017B3007524F4031208759BF40312087507F503E7
:1017C30012087502F603120875DCF6031208752871
:1017D300F70312087540F8031208753CF903120861
:1017E30075DEF90312087524FA0312087539FA0332
:1017F3001208754BFB03120875ECFB0312087548BE
:10180300FC031208750BE105120875C6E205120800
:10181300758EE305120875E3E30512087569E4059F
:1018230012087517DD0512087535DD05120875797F
:10183300DD051208759FDD05120875C6DD05120862
:1018430075DEDD05120875F6DD051208750EDE0579
:10185300120875B8DE05120875FADE051208750F51
:10186300DF0512087516E00512087531E005120848
:10187300753AE00512087543E0051208754CE0055A
:1018830012087556E005120875D3E005120875CCE9
:10189300CB05120875F8CF0512087514D005120888
:1018A3007519D00512087537F605120875B0FF03D0
:1018B30012087513E5051208759EE605120875E909
:1018C300E60512087555E70512087553E805120871
:1018D3007582E80512087594E8051208757FFA0504
:1018E30012087549EC05120875A5EC05120875E593
:1018F300EC051208754EED0512087572ED05120818
:101903007587ED051208759EED05120875BEED0588
:10191300120875BAC105120875E4ED0512087510B1
:10192300EE05120875A0EE05120875C785061208A4
:1019330075008002120875578002120875C3800271
:101943001208754F81021208750582021208754D3F
:1019530082021208756682021208758982021208D1
:1019630075C7820212087516830212087541830235
:101973001208759F8302120875468402120875EED9
:1019830084021208756A85021208753786021208E6
:10199300757E8602120875CA86021208755287027E
:1019A3001208758B8702120875E18702120875FD0C
:1019B30087021208752C8802120875388A021208E9
:1019C30075668B02120875928B02120875C68B021C
:1019D300120875E78B02120875F68B02120875015F
:1019E3008C02120875B08C02120875208D02120841
:1019F30075AB8D02120875B38D02120875208E0225
:101A03001208755C8E02120875228F02120875F592
:101A13008F021208754A9002120875E990021208A3
:101A23007543910212087588910212087521940278
:101A33001208756495021208754E980212087532E1
:101A43009902120875169A021208753B9A02120837
:101A5300754C9A02120875BE9A02120875559B02BC
:101A6300120875C99B02120875B99C02120875DE2B
:101A73009C02120875F69D02120875149E02120844
:101A830075309E02120875A39E02120875B29E025B
:101A93001208753A9F0212087537A002120875449E
:101AA300A0021208754DA0021208752FA202120897
:101AB300755BA3021208756BA302120875A6A40234
:101AC30012087525A50212087556A602120875920A
:101AD300A6021208756CA80212087529AC02120836
:101AE300753DAC0212087547AC0212087551AC0281
:101AF3001208755BAC0212087565AC021208757E9C
:101B0300AC0212087588AC02120875FFAC02120809
:101B1300750AAD0212087539AD0212087561AD027E
:101B23001208756CAD02120875D1AD02120875DB8F
:101B3300AD02120875E6AD021208750AAE0212086C
:101B4300752EAE02120875A0AE02120875E9AE0238
:101B530012087505AF0212087576AF02120875C236
:101B6300AF021208750BB00212087549B0021208D1
:101B730075CAB00212087571B10212087536B30244
:101B83001208759BB302120875C9B402120875EFE7
:101B9300B40212087537B60212087571B902120839
:101BA300756FBB021208753ABD02120875D3BD02E8
:101BB300120875D4BF0212087589C002120875C2D3
:101BC300C00212087532C1021208753CC102120824
:101BD3007565C30212087568C402120875A5C502AB
:101BE300120875FCC502120875A7C60212087557BC
:101BF300C802120875A4C902120875C4C9021208E2
:101C03007519CA021208751ACB0212087542CB0263
:101C1300120875A1CB0212087599CC02120875102F
:101C2300CD0212087523CE0212087591CE02120856
:101C33007590CF02120875EAD10212087513D20209
:101C430012087579D302120875FBD4021208755273
:101C5300D50212087500D602120875A5D60212081D
:101C63007508D702120875C6D70212087558D8022C
:101C7300120875B7D802120875F9D8021208752A26
:101C8300D90212087581DA02120875252D0012088F
:101C930075572D00120875902D00120875592F00E5
:101CA3001208759D2F00120875733000120875D243
:101CB3003000120875E8310012087534320012083A
:101CC30075C23400120875A63700120875ED380086
:101CD300120875853900120875913900120875DAF2
:101CE30039001208751C3B00120875123C001208DB
:101CF300753C3C00120875923C00120875EB3C00E1
:101D03001208755E3D00120875943F00120875169F
:101D13004100120875FF410012087549430012087B
:101D2300758145001208757E48001208758D4800BC
:101D3300120875214900120875CC49001208750F65
:101D43004A00120875584A00120875A84A0012087A
:101D5300750C4B001208757E4B001208759A4B00E8
:101D6300120875C94B00120875084C001208750358
:101D73004D00120875B24D001208752F500012085D
:101D830075615100120875395200120875BB520073
:101D9300120875F056001208751F57001208757A5D
:101DA3005700120875AD5700120875255800120820
:101DB300755D5800120875AD58001208751C5A005D
:101DC300120875405A001208757A5A00120875876E
:101DD3005A001208758A5A00120875B95A00120877
:101DE30075B15C00120875705D001208759F5D0087
:101DF300120875BD5E00120875855F0012087546EE
:101E03006100120875B66100120875E861001208D6
:101E1300754E62001208755D62001208758A6200D1
:101E2300120875A462001208751763001208753B47
:101E330065001208759A6500120875EE65001208B0
:101E4300751D68001208750069001208758869001D
:101E53001208756C6A00120875F66A001208750A92
:101E63006B001208751E6B00120875326B001208A6
:101E730075466B00120875736B00120875A36B002F
:101E83001208755E6D00120875346E00120875D85D
:101E93006E001208752D6F00120875766F00120818
:101EA30075FA6F00120875417000120875B370005F
:101EB300120875087200120875B17200120875C90C
:101EC30072001208756C7300120875E87500120829
:101ED30075907700120875AE77001208752381019B
:101EE300120875658101120875D286011208751EE4
:101EF3008701120875648701120875B588011208F5
:101F0300751A89011208755E8901120875C48A0160
:101F13001208751F8E01120875528F01120875E1A0
:101F23009A01120875719B011208755B9E011208D4
:101F330075C09F0112087523A0011208753FA10106
:101F4300120875A9A20112087588A301120875F673
:101F5300A50112087588A70112087519A8011208AE
:101F63007538A901120875C5A901120875CFA90111
:101F7300120875F7A9011208759AAA011208758546
:101F8300AB011208754DAC01120875DAAC011208E9
:101F930075F0AC011208750DAD0112087536AD016F
:101FA30012087563AD01120875A7AF011208757A9F
:101FB300B001120875BEB00112087540B1011208D4
:101FC30075E1B10112087513B2011208755AB20115
:101FD3001208758DB201120875D1B201120875206D
:101FE300B30112087525B30112087581B3011208F4
:101FF30075C5B301120875AFB40112087514B501A4
:1020030012087572B501120875F1B50112087569E8
:10201300B9011208756CBA0112087502BC011208E5
:102023007545BF01120875E7BF0112087530C2017B
:10203300120875EBC2011208752AC301120875EE66
:10204300C4011208750BC50112087514C5011208E5
:10205300751DC50112087528C50112087547C5010C
:102063001208756BC701120875C8C701120875D22B
:10207300C701120875DCC7011208753FC8011208B1
:10208300759BC801120875A8C90112087509CA0110
:102093001208751ACB0112087563CB011208752D4E
:1020A300CC0112087544CD0112087508CE0112083F
:1020B3007554CF0112087558D00112087551D1011A
:1020C30012087569D101120875A0D101120875AA09
:1020D300D101120875B4D101120875BFD1011208DC
:1020E30075DDD10112087525D20112087583D2015D
:1020F300120875AAD201120875BCD20112087565BF
:10210300D3011208759ED301120875CFD4011208AA
:10211300752CD5011208751DD60112087553D60109
:10212300120875C3D6011208753FD701120875C08E
:10213300D801120875E7D901120875A9DA01120846
:102143007577DB01120875FCDB01120875ABDC0146
:1021530012087593DD011208752CDE01120875084B
:10216300DF0112087570DF011208752FE0011208F4
:10217300758BE001120875EFE001120875B5E101F6
:10218300120875D8E10112087592E201120875B4BC
:10219300E20112087515E30112087545E5011208FD
:1021A300753EE601120875EAE60112087507E901B2
:1021B30012087550E9011208759BE901120875F7B9
:1021C300E90112087555EA0112087579EA01120846
:1021D300759DEA01120875D2EA01120875FAEA013F
:1021E3001208753FEB011208759DEB01120875F695
:1021F300EB01120875F0EC011208759CEE01120850
:1022030075E1EE011208750AEF0112087593EF01EB
:1022130012087506F00112087514F00112087538DA
:10222300F0011208758EF001120875A9F001120869
:102233007564F10112087590F101120875D3F1016B
:1022430012087536F20112087546F4011208757208
:10225300F4011208752DF50112087511F601120823
:1022630075A5F601120875A89905120875E0990578
:10227300120875019A05120875439A05120875A785
:102283009A05120875B19A05120875C19A051208C4
:1022930075F89A05120875A19E0512087569A005BF
:1022A3001208754DA205120875EFA205120875797B
:1022B300A305120875508003120875F980031208EC
:1022C30075D88103120875E4820312087504830329
:1022D300120875268403120875D685031208754300
:1022E30086031208751487031208751A88031208E7
:1022F30075928803120875CD880312087526890321
:10230300120875618903120875AA89031208753EBC
:102313008A03120875D48A03120875A98B0312085D
:10232300757C8C031208750A8D03120875308D03B2
:102333001208755D8D031208758E8D031208755B87
:102343008E031208756B8E03120875BE8E03120876
:1023530075CB8E03120875D88E03120875E18E03B0
:10236300120875458F03120875A38F03120875EEC3
:102373008F03120875099003120875309003120831
:10238300754D9003120875599003120875EA91036D
:102393001208750392031208757F9203120875924F
:1023A3009203120875A2920312087546930312084A
:1023B30075B29403120875C59503120875659603E3
:1023C3001208756F9603120875EE9603120875FFCF
:1023D30096031208753E97031208756C970312084B
:1023E30075399803120875909803120875C99803F4
:1023F3001208751F99031208753D99031208758B0E
:102403009903120875569A03120875A49A031208C1
:1024130075F19A03120875749B031208759E9B034A
:10242300120875D49B03120875E39B0312087542C7
:102433009C03120875BA9C03120875FB9C031208CF
:10244300754B9D03120875769D03120875909D03C5
:10245300120875AA9D031208757F9E0312087589D9
:102463009E03120875C49E03120875D49E031208B6
:1024730075DD9E031208752E9F03120875429F0394
:1024830012087564A00312087577A0031208758CEF
:10249300A0031208751FA10312087593A103120864
:1024A3007538A20312087543A203120875A6A30385
:1024B300120875C2A3031208750EA4031208757CD3
:1024C300A403120875AEA403120875C8A403120866
:1024D3007528A503120875C7A50312087512A6036C
:1024E30012087565A803120875FDA8031208757410
:1024F300A903120875D1AB03120875E9AB031208DF
:1025030075ECAB03120875F8AB031208750CAC033A
:1025130012087514AC031208754BAC031208753F0F
:10252300AD03120875C9AD031208754BAE0312084B
:1025330075CBAE03120875A2AF03120875C4AF03BF
:102543001208755DB003120875BAB003120875BDA1
:10255300B0031208752CB10312087578B203120880
:10256300758BB30312087516B40312087529B503E6
:10257300120875F0B50312087521B60312087547E2
:10258300B60312087550B6031208757FB603120816
:10259300752FB703120875DFB70312087552B80316
:1025A300120875F5B80312087568B903120875A700
:1025B300B903120875F0B9031208759BFF031208DB
:1025C300758BFF03120875E1FF05120875F77F008D
:1025D300120875AD83061208750F8306120875FE7F
:1025E300820612087574F504120875C3F404120800
:1025F30075DFF30412087532F204120875F1F10461
:10260300120875C8F10412087575F104120875CE25
:10261300F00412087536F00412087514F004120859
:1026230075BCEF0412087582EF0412087500EF04FD
:102633001208759FEE041208755AEE041208757598
:10264300ED0412087599EC04120875138606120836
:102653007541EC04120875058606120875FC85069B
:10266300120875F385061208751C86061208756E26
:1026730086061208755E8606120875F47F00120836
:1026830075FA8106120875B1EB041208756CEB0438
:1026930012087550EB04120875F5E90412087592D7
:1026A3008106120875B7E90412087591E904120846
:1026B3007515E904120875D78C051208750E810685
:1026C3001208758C8C05120875CEED05120875334A
:1026D3008C05120875068C05120875D58B05120832
:1026E30075A58B051208757D8B051208751D8B0565
:1026F300120875FF8A05120875C48A051208754405
:102703008A0512087567860512087545840512083F
:10271300750182051208757B8105120875298105EB
:10272300120875B48005120875F4FF031208756D5D
:102733008005120875008005120875FDE405000088
:102743000080FB8F0001001C1B870001001B1B3551
:102753000004009F1E25000200A31E26000200A500
:102763001E27000200A71E28000100B11E29000138
:1027730000B21E84000400B31E86000100B71E2AA7
:10278300000100B81E2B000100B91E2C000100BD82
:102793001E2D000800001B2E000100BE1E2F00018D
:1027A30000BF1E30000100C01E31000100C11E32F7
:1027B300000100C21E33000100C31E34000100C427
:1027C3001E36000100C51E38000100C61E39000177
:1027D30000BC1E83000200DA1E63000100181B64A4
:1027E300000100BA1E65000100BB1E6D0001001947
:1027F3001B71000800F81A66000100D91E4300018E
:1028030000CA1E44000200CB1E45000100CD1E4637
:10281300000200CE1E47000800101B48000100D034
:102823001E4B000100D11E04000100DC1EA10001AB
:1028330000DF1E37000100DE1E88000100DD1E3CA4
:10284300000100081B3D000100C71E49000200D221
:102853001E670001001A1B4D000200D41E4E00012A
:1028630000D61E4F000200D71E3E0001000F1B5171
:10287300000100091B52000100C81E53000100C9DA
:102883001E540001000A1B00000000000000013676
:1028930036010100010201000103010001040106E8
:1028A3000605020000070100340801000F090401B6
:1028B300010D0100FF0E08000017020000190100BE
:1028C300FF1A0100011B0100FE1C0100081D02008C
:1028D300001F01000120010001210200002301006B
:1028E3000F2402000026010001270100082802002E
:1028F300FF2A0100072B0102402C0100002D0100DB
:10290300012E0100012F0100FF30010B1D310800D2
:10291300003A0100083B01000F3C0100013D0100AA
:10292300FF3E04000042040000460400004A040085
:10293300004E04000052040000560400005A040034
:1029430000010371030103010301030103010322D6
:102953000302030103100300030003000300030049
:1029630003000300034203000324030603000300E0
:10297300030403120325032303250323030403048E
:1029830003000300030003440300030003230300C5
:1029930003650321003503810300030503000300DE
:1029A3000300030003250323030101710101010156
:1029B30001110101013101010101018001100161D6
:1029C300013B0014006301730172016201430100C2
:1029D30001130106013D013500040112010001004C
:1029E300010001000104010401330133013C0144EE
:1029F300013201360000010001650100013500814B
:102A0300010001050182018301000103027102300B
:102A1300016002110270020102020202028002102E
:102A23000261023A004100630273027202620243CE
:102A33000200021302380000020002040212020024
:102A43000200020002000204020402370037003CC5
:102A5300024402000239000002000265020002354E
:102A63000281020002050282028302000203047152
:102A73000402046004110470040204020401040249
:102A830004100461040004140463047304720462F4
:102A930004430400041304060400040004040412A1
:102AA3000400040004000400045104640000040052
:102AB300040004440400040004000400046504004A
:102AC3000435048104640005040004830400040342
:102AD30000710030016000110070003102200350CA
:102AE3000480001000610000001400630073007292
:102AF3000062004300000013000600000000000411
:102B03000012000000000000000000040004003771
:102B13000037003C02440000000000000000006594
:102B23000000003500810000000500000083000064
:102B33000036000100060000000F00000000000046
:102B43000000000000000003FFFF00000403FFFF7C
:102B53000000FFFF0FF4010005C40403200001007F
:102B6300F50B000000000000000003010F0000004F
:102B73000000000000000000000000000000000052
:102B83000000000000000000000000000000000042
:102B9300004F161300AD151F00B3151F80B91501A3
:102BA300004F160200351503003B150400411505BF
:102BB300004715060053153000711531006B1532AF
:102BC300007D15330083153500891534008F1536C4
:102BD3000095151100A1151400A71515006515FF23
:102BE300FF00000A000000020000000400000008CB
:102BF30000000010000000200000004000000080E2
:102C030000000000010000000200000004000000BA
:102C13000800000010000000200000004000000138
:102C2300251F065B1F08551F0B731F103D1C0A85CC
:102C33001F022B1F05491F07311F0C0D1F0D191FE5
:102C430064151AFF000007ECFDFDFDECDCDCCCBCD9
:102C5300ACAC9C9C8C7C7C6C6C5C5C5C4C4C3C3C61
:102C63002C2C1C1C00160F00000B150B020002225B
:102C73000F3300000E01030507090B0D0F000204BB
:102C830006080A0C0D5A6967426565416C6C6961F7
:102C93006E63653039140AE5D5C5B5A5A595858557
:102CA300756500011916181616182303003030161F
:102CB300181920231A1C1E30303017181921301B05
:102CC3001D1F3000393D3F373C3C362C442D00035B
:102CD3004A49434E181A2505020C0E020B040B0A2F
:102CE3000708000F020402010101010902E80300C1
:102CF3000000BE040A492C00000000982C0E00FAC4
:102D0300067F00B80BFF080F0805480404001010E5
:102D13002809080903010C030508090C00FF0A0C24
:102D23000400C082C0831226B1901C5674A9F0A37C
:102D3300741CF0901C5874AFF0A3741CF0901C5AD0
:102D430074B5F0A3741CF0901C5C74BBF0A3741CEA
:102D5300F0025D9874F7120396E9FE901C48E4F0C4
:102D6300EE901C47F0901ECE125851125A767C10EA
:102D73007D1B7A4B7B1C12123B901ED0E0901C53A0
:102D8300F0901C5474F8F0A3741A023C8E74F01281
:102D930003968A088B09EB54807003022EE8901C7B
:102DA30047E0F91210AF8A0A8B0BAE0AAF0BEE4F56
:102DB3007003022EDF125626707EEE241F12593F37
:102DC30064137002A3E070708E828F83A3A3E0F577
:102DD3000EA3E0F50F901C661259EC750A00750BF3
:102DE30000800D123B05125A7612113FAA0CAB0D4F
:102DF300EA4B60448A828B83E0650E7004A3E0652E
:102E03000F70288A828B83A3A3A3A3125639E50AE2
:102E1300450B8A828B83A3A3A3A360C7124B708540
:102E23000A82850B83A3A3A3A380BB8A0A8B0B8A85
:102E3300828B831259E880B8EE242A12593FF91283
:102E430067E6901C66123F80A3A3A3A3A3A3A3A337
:102E5300E0640270378A828B831259EC80078C827C
:102E63008D831241DEEC4D60208C828D83E06A708D
:102E730003A3E06B70E88C828D83A3A3E06970DE0B
:102E8300901ED6124FBEF0804C121CE58E828F83AB
:102E9300E064017034EE2418122F511208CC124949
:102EA300061206F1EE2412122F511208CC1248FA20
:102EB3001208C81262331206F5EE241712490E12D5
:102EC3002711740A12088A800CE064027007EEFA74
:102ED300EFFB121E23EEFAEFFB12109DAA08E50981
:102EE3006480FB8066901B1BE0600464017019EA38
:102EF300A2E05014901C5E1259CB6006126D1B1297
:102F0300050EE5086401803AEA5402600C901EE560
:102F13007401F0EA6402FA8032EA54086029121C50
:102F2300DF8B0BEA450B7016901C68E4F0A3F0A34B
:102F3300F0A3F07A08FB901C47E0F91211FFE508B3
:102F43006408FAAB0980047A007B000243441256FA
:102F5300A7F50A780A2274F4120396EA4B901C5ED2
:102F63006026ECF0A3EDF08A088B09E4F50AF50B73
:102F730078081208C07A017B00901C47E0F912110F
:102F8300F3740412088A800FE4F0A3F07A01FB9033
:102F93001C47E0F91211FF0239D574F41203968A23
:102FA300088B098A828B831264DA1247FE38F58311
:102FB300E02409FA7B001210978A0A8B0BAE0AAF42
:102FC3000BEE4F70030230618E828F837402F0A385
:102FD300E4126EC9A3A3A3A3E8F0A3E912680EA3A6
:102FE300A3A3A3A3A3A3F0E5082403F8E4350912DC
:102FF3005A481247FE3AF583123F79F0EE2409FA54
:10300300E43FFB8E828F83A3A3126136F58388820C
:10301300E0A2E58E828F83A3A3A3A3A3500474012C
:103023008001E4F0E5082403F8888289831259ECCF
:10303300EA1247F23BF5831230661208C4EA241001
:1030430012623B8E828F831259EA12107374031239
:10305300088AEEFAEFFB901C47E0F91210A302393D
:10306300D5A3A3E0F508A3E0F509750A00780822C3
:1030730074F21203968A088B09ECFAEDFB740E12B4
:103083000B98E0FC1226458A0C8B0DAE0CAF0DEEAF
:103093004F6030AC08AD0912268DE96026AC08AD4F
:1030A30009EEFAEFFB122687E970148E828F8312E2
:1030B3004AA1FAEFFB122693AA08AB0912262D792F
:1030C30000800279B4800312088A7F060205AD747A
:1030D300EE12039674F71209588A0A8B0BECFEED75
:1030E300FF750CB3750D00750E008002050E902D53
:1030F3000FE493F8E50EC39840030231E1AA0E7B77
:10310300001226098A088B09EA450960DF8A828B47
:1031130083A3A3A3A3A3E0250DF50DF8C3E50A98A4
:10312300E50B940050C67C157D007900EEFAEFFBA9
:1031330012107F850882850983A3A3A3A3A3E0F8C4
:10314300E50AC3950D2825E0F8E433F9E50828F5E9
:1031530082E50939F583123D4F125A7612203F8AD0
:103163000A8B0BAC0AAD0BEEFAEFFB12123B850890
:1031730082850983A3E06401700B1249067401126E
:10318300777BA3803DAC18AD19850882850983122E
:1031930059EA122621E9602D7408120B98E0C0E069
:1031A300124906D0E0F07408120B98E06403700C27
:1031B300AC18AD19123F7112123B80098518828534
:1031C3001983125A6A850882850983124326A3A3A9
:1031D300126E1FC0E0124535D0E0F0750C00A90C4B
:1031E3007409026FE174F7120396E9FE8A828B83F6
:1031F300A3A3A3A3A3A3E0540860338A828B83A36E
:10320300A3A3A3A3A3E0540260218A828B83A3A375
:10321300A3A3A3A3A3A3A3E06406600F74E96E6052
:103223000A74CD6E600574F06E7003121CC70252EF
:103233003474E812039674F81209587406120B9842
:10324300125678ECFEEDFF89177515001234A6129D
:1032530026398A0A8B0BEA450B7003023453EE249A
:103263001012593FFAA90A121B418A128B13EA451D
:10327300137003023453EE2403F50CE43FF50DEE13
:103283002406F508E43FF5097C00850882124852BC
:103293001226338A108B11850C82850D8312349B81
:1032A300125A17851282851383A3A3A3A312597AF3
:1032B30012349BA3A3A3A31259DB85128285138324
:1032C300A3A3A3A3A3A3126FD9126E041208C4EE7F
:1032D3001247FE3F12623F851282851383A3125960
:1032E300E4121073740312088A7428120B98124B99
:1032F30070E512124FB03513125A74742A120B98D8
:10330300E0C0E0E5121247F23513F583D0E0F07523
:1033130014007423120B98E0F5167424120B98789A
:103323000C120B290233DA8510828511831259EAB4
:1033330012261B850882850983A3EAF0A3EB1234C6
:10334300BDA3A31268CF1234B7A2E6500F8508823B
:10335300850983A3A3A3A3A3E0D2E1F0E5157066D7
:10336300850882850983124B6F901C9CE06870036B
:10337300A3E0697051850882850983A3A3A3124141
:103383001075100078101208CC780C1208C0E516DE
:10339300F51078101208CC7426120B981206F590CB
:1033A3001CA91206F579007410120B981267EE121D
:1033B3001E7D740A12088A850882850983A3A3A344
:1033C300A3A3E04405F074012514FC1234A61226CD
:1033D300338A108B110514E5104511604EC3E514B3
:1033E300950AE4950B5044E51475F006A4F8A9F08A
:1033F300E51228F8E51339F9E8240FF508E439F55F
:1034030009850882F583E41277E1E0640160030231
:10341300332A75150185088285098374011234BD29
:1034230012589FA3E8F0A3E9023341AA12AB131287
:103433001B4778121208C8AD167424120B98E0FCCF
:10344300A917EEFAEFFB121CC1740212088A803E20
:103453008E828F83A3A3A3E0C0E07403120B98D0E2
:10346300E0F0EE241212593FC0E07404120B98D01E
:10347300E0F0E50A450B70097405120B9874B980E6
:10348300077405120B987410126248121E777408A1
:1034930012088A7F100205ADE0851282851383A38B
:1034A300A3A3228E828F831259F08E828F83A3A3CC
:1034B300A3E0F922A3126A47E0221277E5A322745C
:1034C300E812039674F2120958E985188285198364
:1034D300F08A0C8B0D8C168D177426120B981259CB
:1034E300ACAA08FB121B35E9F514AA08AB09121B99
:1034F3003BE9F515E5147003023789751300800F56
:103503008E828F83A3A3A3A3A3E0D2E3F0051312B8
:10351300453FE0F8E513C3984003023780E5147094
:1035230003023780E51375F006A4F8A9F0E508282F
:10353300F8E50939F9E8240FFEE439FF8E828F8319
:10354300A3A3A3A3A3E0A2E040C3750E00901B1B9B
:10355300E060046401704A8E828F83E070431259E5
:10356300EB1219D38A0A8B0BA80AA90BE84960311D
:1035730088828983A3A3A3A3E06401600D88828961
:1035830083A3A3A3A3E0640370178E828F83A3A3F3
:10359300A3A3A3E0D2E7F0750E01E515700302358E
:1035A30010750F00750A08750B00E5176003750F9A
:1035B300207C087D007900740112093012107F8E7F
:1035C300828F83E06044901CECE06401701CE50F83
:1035D300D2E3F50F750B10124B6B7401120B98E8C5
:1035E300F0A3E9124CF074FF803E430F0C750A0CF4
:1035F3008E828F83A312379CA3A3A3A3125A76743C
:1036030001120B9874FFF0A3801E8518828519831D
:10361300E06009E50FD2E6F50F750A0A124B6B74E9
:1036230001120B98E8F0A3E9F07403120B98E50F6D
:10363300F01247FC350DF583E0C0E07405120B98DA
:10364300D0E0F07406120B987401F0120930121EC8
:1036530029740D120B98E0600302375B7409120B97
:1036630098125A038E828F83A3A3A3A3F074091223
:103673000B98125661E50AF0A3E50BF012561CE510
:10368300161234B86011901CECE0C0E07409120B00
:1036930098125651D0E0F07409120B9812454FA3BB
:1036A300A3A312378E241C12567212703912378E4E
:1036B300125613EAF0A3EB126D48C0E0125609D07C
:1036C300E0126E10C0E07409120B98125150D0E052
:1036D300126530C0E07409120B98125144D0E0F027
:1036E3007409120B9812379C1251331238DD1237BA
:1036F3008E242C125672E50C124F90350DF583E093
:10370300C0E012512BD0E0F07409120B981259EC5F
:10371300850C82850D831237932428F582E43B12AE
:103723005A74E50C1247F2350DF583126FE97512E1
:103733000078101208C41247FC350D12623FEA12DA
:1037430064B43BF5831259EC121073740312088AA4
:103753007401120930121E2F8E828F83A3A3A3A399
:10376300A3E0D2E0F0740D120B98E060030235037E
:10377300E50EA2E05002151515140235107900AAC2
:1037830008AB09121CCD740E0234931259F6E822C9
:10379300A3A3A3A3124B74EA22124B74850C828554
:1037A3000D832274EE12039674E91209588A088B6A
:1037B30009890A8A828B83A3A3A3A3A3A3A3A3E058
:1037C300F9121B5F8A0C8B0DEA450D700302386CEE
:1037D30012598F1241F9E50A60030238717C04859E
:1037E3000882850983A3A3A3A3A3A3A3A3E0F91238
:1037F3001B65EE4F60738E828F83A3A3A3124B6F5F
:103803007406120B98126119124B6F7408120B98FD
:10381300125F7CC0E07410120B98D0E01238DD12F6
:103823004B6F740E120B98125A767411120B98E4A4
:10383300125A08C8241FF582E438F58312598BC441
:1038430013135403FC70027C048E828F83E0F97897
:103853000C1208C8742059FD744059F974021209F6
:1038630030121CC1740212088A7417026FE17C08BB
:10387300850882850983A3A3A3A3A3A3A3A3E0F934
:10388300121B658B0FEA450F70030237F5EE4F608D
:10389300D8E50AF50B780B1208CC850C82850D83CD
:1038A300A3A3A3A3A3A3A3E0F50B780B1208CC8ACD
:1038B300828B83A3A3A3E0FB8A82850F831241E15A
:1038C3008A82850F83E0FA8E828F83A3A3E0F912A5
:1038D3002717740212088A0237F9F0850C82850DC6
:1038E30083A3A3A3A3A3A3A3A32274F7120396748E
:1038F300FA120958E9FE7C017D017F0080037D00F7
:103903000F125934E0F8EFC3985028EF75F006A46E
:10391300F885F008A908EA28F8EB39F9E824141225
:103923005C11A2E050D8540C60D4E0A2E250D17CE8
:103933000080CD8A828B83A3A3A3A3A3A3E0703DBE
:10394300EDA2E0400574016E70338A828B83A3A3DA
:10395300A3A3A3A37401124FF8E0C0E07403120BF6
:1039630098D0E0124FF0E0C0E07404120B98D0E05E
:10397300F07405120B98EC126248121E777406025B
:103983005231C082C0837901121CCD025D9874F458
:10399300120396EA4B901EE56022E4F08A088B0935
:1039A300F50AF50B78081208C07A027B00901C47D1
:1039B300E0F91211F3740412088A800F7401F07A8B
:1039C300027B00901C47E0F91211FF80057402127C
:1039D300088A7F040205AD74E812039674FC120989
:1039E300587402120B98E4F0A3F0901C661241F98C
:1039F300851882851983E4F0A3F0751401901C9651
:103A0300E0A2E35003023A911212118A088B098C47
:103A13000A8D0B8A0C8B0D8C0E8D0F901C68780C05
:103A2300120940123B0C7810790C120ADB50077A0A
:103A3300017B00023B00850C14850D15850E168550
:103A43000F1778147910120327A814A915901ED6FE
:103A5300E0C398E4995003E08001E8F514123B0CAD
:103A6300780C7910120327E4F512F513780879100E
:103A73001209C3901C687808120B0B8011123B05C6
:103A8300125A76EEFAEFFB12113FAE08AF09EE4F72
:103A930060638E828F83A3A3A3E0F8E514C39850D9
:103AA30029EE2403F582E43FF583A814E0C398F0DC
:103AB30060217402120B98124CE71256D2EEF0A357
:103AC300EF126535FEA3E0FF80C48E828F83A3A32C
:103AD300A3E4F08E828F831259A8851882851983F7
:103AE3001259CB8E828F83A3A3A3A3609012680085
:103AF300125A59808B7402120B981259EC740402F7
:103B03003493124B74901C6622901ED4E0F510A3DC
:103B1300E0F511E4F512F5132274F21203968A0A02
:103B23008B0BE9FE7A007B00901C661259AC901C4B
:103B3300661259CB601E0A850882850983A3A3A355
:103B4300A31259CB600E0AEA70010B88088909E8B1
:103B5300450970E3901ED7124B70C3EA98EB994066
:103B630003023C0F7A067B001211398A0C8B0DA8D5
:103B73000CA90DE8497003023C0F88828983E50A8A
:103B8300F0A3E50BF0EE88828983A3A3F0901ED601
:103B9300125C83A3A3A3125020A3A3A3E4F0A3F076
:103BA300901C66124B78600F850882850983A3A356
:103BB300A3A3125A76801F901C66125A76901C9605
:103BC300E0A2E34011121211EAF8EBF9ECFAEDFB73
:103BD300901C68120B45901C96E0A2E3502E7A08C5
:103BE3007B00901C47E0F9121205EA4B4C4D701C08
:103BF300901ED41275DF78081208C07A087B0090F3
:103C03001C47E0F91211F9740412088A0230CDC07E
:103C130082C083E9901EE6F0901C607403F0A374E5
:103C23001DF0901C627415F0A3741DF0901C647455
:103C330027F0A3741DF0025D9874F7120396EAFE51
:103C4300EBFF8908EE4F70031225CD901C6C1259BF
:103C5300CB7008901C6C8022124B7088828983A3DE
:103C6300A3A3A3A3A3A3A3A3124B7888828983A3AB
:103C7300A3A3A3A3A3A3A3A370DEEEF0A3EF1268F1
:103C8300EBA3A3A3E4F01268EAE508F0025234744C
:103C9300F7120396901C6C800D8E828F83A3A3A3CF
:103CA300A3A3A3A3A3A31241F9EE4F60348E828F83
:103CB30083A3A3A3A3A3A3A3E06970DD8E828F8351
:103CC300A3A3A3A3E06A7003A3E06B70CC8E828FDF
:103CD30083A3A3A3A3A3A3E06C70BEEEFAEFFB80C0
:103CE300047A007B0002523474F7120396901C6C22
:103CF3001241F9901C6C123797687002EB69701EC1
:103D0300E0C82409F582E438F583124B70901C6CEB
:103D1300125A76901C6C1241F980271241ECEE4F37
:103D230060208E828F83A3A3A3A3A312379368700B
:103D330002EB6970E68A828B83A3A3A3123D4F1221
:103D43005A7612113FEEFAEFFB025234A3A3A3A358
:103D5300A3A312455BA3A3A3A3A32274F012039608
:103D630074FA1209588A088B098A828B83A3A3A346
:103D7300A3A3A3A3A3E060336401602F8A828B8390
:103D83001259EC1220E1E97022850882850983A388
:103D9300A3A3A3A3A3A3A3E064037014740412094D
:103DA30038AA08AB09121DB1E970167902023F5A0D
:103DB300850882850983124B707404120B98125A7A
:103DC30076126FAF24341261041211398A0A8B0BF5
:103DD300AE0AAF0BEE4F7003023F587C347D00797F
:103DE3000012107F7402120930850882850983A3AB
:103DF300A3A3A3A3A3A3A3A3E0F91226C37402124C
:103E03000B98E0C0E0123F69D0E0F0EE242EF50AF3
:103E1300E43FF50B7403120B98E0850A82850B834C
:103E2300F07901EEFAEFFB121CF185080C85090D00
:103E3300750E00780C1208C47C1E7D00123F7112AF
:103E43001073740312088AEE243212431C2434F8CC
:103E5300E43FF98A828B83125A76E5082411F8E449
:103E63003509F9E8FCE9FD8C828D8312566D243007
:103E7300125A701243141277CC1208C48C828D83A9
:103E8300123F801259EC121073740312088A7404DF
:103E9300120B98124557125A76901C48123F79A379
:103EA300A3A3F0901C48E004F01212118E828F83BA
:103EB3001256BC242C124827750D00850A82850BE7
:103EC30083E0780C120A718A828B83E50CF0123F2F
:103ED3005FE50C1256D2E4F0E5082415126FB3A285
:103EE300E074015007120B9874018004120B98E4DC
:103EF300F0EE242912599FAA18AB191226E7E924D8
:103F0300FE850882850983F0EE2430F8E43FF9E862
:103F1300FCE9FD123F8812024EE88E828F83A3A331
:103F2300A3A3A3A3A3A3F0123F8812024E8B09EA13
:103F33004509600F8E828F83A3A3A3A3A3A3A3A387
:103F4300E004F0EE242012593F4408124873121083
:103F5300D97900800279107406024341EE242BF5CF
:103F630082E43FF58322EE1264B43FF58322EE240C
:103F73000BFAE43FFB22126816A3A3A3221241E625
:103F83008A828B83228C828D831258A3E0FA7B0072
:103F93002274F4120396EAFEEBFF1212118E828F43
:103FA30083125678901ECAE0F8EE242D12593FC3AF
:103FB3009840030240F51248337012EE242D125933
:103FC3003F04125972C0E0123F5FD0E0F0EE242AA2
:103FD30012593FFC7900800109EE242E12593FF853
:103FE300E9C3985026750801750900E97808120A93
:103FF30071124833550860E0E92CFC750801750916
:1040030000E97808120A71E04508F0EE24291259F4
:104013003FFAEE2430F582E43FF583EC8AF0A4F80E
:10402300ABF0E42BF9E098F8A3E099F9C3E89AE937
:104033009400EE4031242912593FF8124833602C82
:10404300123F69124110A3E4F0EC7047EE242012F2
:10405300593F4420125F80C0E0125960D0E01259EA
:104063006AFAA3E08052123F6074FFF0901C8CE068
:10407300FA901ECD124107ABF075F064A4FAADF0CF
:1040830075F064EBA42DFB8E828F83A3A3EAF0A3C8
:10409300EB80B5EE242012593F54DF12595BECF04C
:1040A300FAEE2429F582E43FF583124107FAABF0D7
:1040B300EE1256033F124849FB126DE8EAF0A3EBF8
:1040C3001268FAC0E0EE2425F582E43FF583D0E0E0
:1040D300125689E81259DB901C6E1259CB600BEC17
:1040E300F9126D1B12050EE97017123F71121D8D27
:1040F300800F7BE912433212271DEEFAEFFB121CED
:10410300FD0239D5E0F508EA8508F0A42212681605
:10411300A3F02274F4120396901C6C1241F912124C
:10412300118A0A8B0B78FF79FF8020E0C39AFCA3E6
:10413300E09BFDC3EC98ED99500E8E828F83A3A371
:10414300E0C39AF8A3E09BF91241ECEE4F605C8E5A
:10415300828F831259ECE50AC39AFAE50B9BFB8E17
:10416300828F831241E0C3EA9CEB9D8E828F83A3EF
:10417300A340B8A3A3A3A3E06402701AEE240B1216
:10418300483660091248121259EC12109DEEFAEFEC
:10419300FB121CFD8007EEFAEFFB121D097A017B6F
:1041A30000901EE6E0F91210D9802974FF687003AD
:1041B30074FF69601F88088909E4F50AF50B78081C
:1041C3001208C07A017B00901EE6E0F91211F37425
:1041D3000412088A0239D5A3A3A3A3A3A3A3A312FA
:1041E30041E622E0FCA3E0FD228E828F83A3A3A3FA
:1041F300A3A3A3A3A3A3E0FEA3E0FF2274F01203EF
:10420300968A088B09ECFAEDFB890A7C01126FAFE1
:10421300F9121CF78A0C8B0DAE0CAF0DEE4F700329
:10422300024308E50A600302430812431412432AB7
:10423300686003024308124314E0FAEE242E125975
:104243003FF8EA28FAE43400FB8E828F83A3A3A30A
:10425300A3A3A3A3A3E0F8EA98EB9400C365D03328
:10426300401CE5082414126FB3F470127B00124350
:104273003212271DEEFAEFFB121CFD024308E5087C
:104283002414126FB3F47042EE242B12431C242E19
:10429300F8E43FF9E8FCE9FD7508FF7509008C8235
:1042A3008D83E07808120A718A828B83E508F01205
:1042B300430AE508F08C828D8312432A28F0EE240A
:1042C3002DF582E43FF583E4801BE5082414F8E42C
:1042D3003509F9E0C0E012430AD0E012612BC0E0D7
:1042E300123F5FD0E0F01212118E828F831256BC00
:1042F300123F6A124326A31259DB7A01FB901EE692
:10430300E0F91210D9803AEE242CF582E43FF583CC
:1043130022E508241312454722F8E43FF9E8FAE9B5
:10432300FBEE2212681622E0F8EE125C28E022EE81
:1043330024221256A7FAEE24141256A7F9221208C1
:104343008A7F080205AD74EC12039674FE120958B5
:104353008A0A8B0B8C0E8D0F89108A828B83A3A301
:10436300E0F91226F38A088B09AE08AF09EE4F7005
:10437300077A007B0002452B7A127B001211398ADF
:10438300088B09EA450970030245277C127D0079F1
:104393000012107FAA18AB19850A82850B83A3A389
:1043A300E0F91226C3E508240FF50CE43509F50DF1
:1043B3007401120B98E0850C82850D83F07902AAB3
:1043C30008AB09121CF1850E82850F8312454F122B
:1043D300456D1247E61268C6F07512FF7513008526
:1043E3000C82850D83E07812120A71127039E5127E
:1043F30012515C126D19E0C0E012453FD0E0F0129B
:104403004808F50CE508240D12703DE50CF0E50AAB
:1044130012481A850CF0A4A9F02427FAE439FB12F8
:1044230010978A0C8B0DAE0CAF0DE508126CF1EEF4
:10443300F0A3EFF0EE4F700302451A8E828F837460
:104443001A1259DB8E828F83A3A3F0A31245731232
:104453004557125A76AC0EAD0F126DF21226CF8568
:104463000A82850B83A3A3A3E0C0E0125981D0E0A5
:10447300F0901CA912566D241012456712565B3535
:104483000B12566B12622AE8F0A3E9124573A3A339
:10449300A3A312566D2412125A70850A82850B83C8
:1044A300A3A3E0C0E0124535D0E0F0E50A124FB017
:1044B3001247EDE0C0E01265E6D0E0F07416120B8F
:1044C30098126D21C0E0126F9DD0E01268E5C0E044
:1044D300126CF7D0E0126D2AC0E0126D01D0E01229
:1044E300567EE510F07418120B98120B51EE241A35
:1044F300F582E43FF583120B45EE2427F8E43FF9F8
:10450300EE24221245671260F01247EDE0C0E0127C
:104513006DFAD0E0F0800DAA08AB09121CFD7508F6
:1045230000750900AA08AB09740212088A7F0C02FD
:1045330005ADEE2414F582E43FF5832212454322B0
:10454300E508240BF582E43509F583221258A3A369
:10455300A3A3A32212455B22126A5C8E828F83A3DC
:10456300A3A3A322F582E43FF5831256EAE50A22C8
:10457300F0850A82850B83A3A3A3A3A3A32274EDCF
:104583001203968A0A8B0B8C108D11891275090000
:10459300EA12481AF508901C6E1259CB600EA9084E
:1045A300126D1B12050EE960030247E17C028510C0
:1045B300828511831259ECE50A1247E6E0F9121CD1
:1045C300F78A0C8B0DAE0CAF0DEE4F7054850A823B
:1045D300850B83A3E0A2E040030247E17415120BAD
:1045E300981206F17417120B981206F5A912AC1063
:1045F300AD11AA0AAB0B121D1B740612088A8A0C92
:104603008B0DAE0CAF0DEE4F70030247E18E828F20
:1046130083A3A3A3A3A3A3A3A3E508124873121020
:10462300D9A8088E828F83A3A3A3A3A3A3A3A3E0E4
:1046330024FFFAE434FFFBEA684B7003750901EECB
:10464300240B1248367003024796850A82850B8332
:10465300A3E0A2E05003750800124860E5089AE45D
:104663009BC365D033401CE0F8EE240E12593F285B
:10467300F0750CFF750D00E8780C120A71125E9C40
:10468300E50CF0E50A1247F21247ED126EA012088C
:10469300C4E50A1247FE350B12623FEE240D125990
:1046A3003FF50CE508850CF0A4FAABF012481212A2
:1046B30064DD2422F582E438124849FB1210737436
:1046C3000312088A750C0112483B780C120A711206
:1046D300593C450CF0E509A2E05063EE240C124866
:1046E3002712483B04780C120A718A828B83E045B7
:1046F3000C12569C85080C850CF0A4F8A9F01248FE
:1047030008FCE82CFCE439FD1248121264DD242075
:10471300F582E438F583ECF0A3ED1256C3F4701E72
:10472300EE240BF50CE43FF50DEE1247FE3F124865
:10473300521210A3850C82850D8374FF80541212CC
:10474300118E828F83125678901C8CE0FA901ECDC6
:10475300E0F50CEA850CF0A4FAABF0F8EBF9901E47
:10476300CAE0F50CE8850CF0A4F8ACF0850CF0E990
:10477300A42CF9EA28F8EB39F9E875F064A4F8AA4F
:10478300F075F064E9A42AF98E828F83A3A3E8F07D
:10479300A3E9F0A808124860EA24FF1AEB34FFFBF0
:1047A300EA687001EB600EEE240C1248366006E5F1
:1047B30009A2E05029E50A12481FECF012593CC047
:1047C300E0E50A2414F582E41247EDD0E0F0AC0AE8
:1047D300AD0B8510828511831259EC121D7B7F0B63
:1047E3000205AD124F901247ED22350BF5832212CD
:1047F30047F622240EF582E422E50C124802222415
:1048030010F582E422E50A1248021247EDE022EE97
:104813001248023FF5832212481FE022124F8A35C5
:104823000BF58322F8E43FF9E8FAE9FB750CFF2264
:10483300EE242B1256A7F422750D001256A4F5F0A0
:10484300E50884E5F022F583E02AFAA3E03B22F5AC
:10485300831259F6850C82850D83E0F922EE240E2E
:104863001256A7FC1256A4FAEC2AFAE43400FB22EF
:10487300F07A017B00901EE6E0F922C082C08390AB
:104883001EE6E0F91210A3025D9874F41203968AEF
:10489300088B09EB5480703BEAA2E05053121D0FC2
:1048A300E5086401FAAB09804B8E828F83E06401D3
:1048B300701A1249061206F11248FA1208C8EE24B9
:1048C3001212490E121D21740612088AEEFAEFFB2A
:1048D30012109D901EE6E0F91210AF8A0A8B0BAE00
:1048E3000AAF0BEE4F70C2AA08E5096480FB80048F
:1048F3007A007B000239D5EE240FF50AE43FF50B6D
:10490300780A22EE124F8A3FF583221256A7F9EE58
:104913002402FCE43FFDEE2419FAE43FFB2274F188
:10492300120396890A8A088B098A828B831259ECAF
:10493300121D398B0DEA450D600579B80249C9127C
:104943001D57E9F8902D12E493F9E8C399400479CF
:10495300B280737A157B001211398A0C8B0DAE0C61
:10496300AF0DEE4F70047910805C8E828F83E4F07C
:10497300A3126A42A3E50A126D3B1208C47C127D9E
:1049830000EE2403FAE43FFB121073740312088A47
:10499300901C701259CB901C707006EEF0A3EF8040
:1049A3001FE0FAA3E08003E8FAE9FB8A828B831213
:1049B30059CB70F3EEF8EFF98A828B83E8F0A3E921
:1049C300F0121D697900025A3BC082C083901C70AB
:1049D30080048C828D831241E2EC4D60288C828DA1
:1049E30083A3A3E069600574FF6970E68C828D83FD
:1049F300A3A3A3E06A7003A3E06B70D6EC2403FACD
:104A0300E43DFB80047A007B00025D9874F7120397
:104A130096E9FD74FE6D70047C0180027C00901C9D
:104A23007080096D70027C01888289831259CB6082
:104A33001F88828983A3A3A3E06A7003A3E06B703A
:104A4300E7ECA2E088828983A3A3E050D6F9800231
:104A530079FE02523474F6120396E9FF7E00901C2D
:104A630070E0FCA3E0802D8C828D83A3A3E06F70A4
:104A73001E8C828D83A3124AA125E0F8E433F9EA60
:104A830028F582EB39F583E508F0A3E509F00E126A
:104A930059B8FCE9FDEC4D70CEEEF902502AA3A300
:104AA3001259B0EE2274F7120396E9FE901C7012AD
:104AB3004B707C007D00800BE8FCE9FD88828983D4
:104AC300124B70E849603D88828983A3A3E06E702E
:104AD300E788828983A3A3A3E06A7003A3E06B70D2
:104AE300D7EC4D8882898370081259EC901C708032
:104AF300031252201261AFFAE9FB12113F121D6932
:104B030079018002790002523474F5120396890AFE
:104B1300901C701259EC7508007509008015125825
:104B23009FE8F0A3E91256C3FEA3E0FF12113FEE84
:104B3300FAEFFBEA4B602B8A828B83A3A3E0650A1F
:104B43007012E50845098A828B8370D2124B7090EC
:104B53001C7080CD8A088B098A828B83E0FAA3E0DC
:104B630080D0121D690270AE8E828F83A3124B74A4
:104B730022126A5C221259F6EA4B22C082C0837960
:104B830000901C708001091259EC8A828B83E582A4
:104B9300458370F2025D9874F6120396E4F508F506
:104BA3000978081208C8902D12E49375F013A4A98C
:104BB300F0124CDC1211B1740212088AE9FE600390
:104BC300121D63024A9C74F612039674FE1209586E
:104BD300851882851983E4F0A3F0A818A919880819
:104BE300890978081208C87508027509007808123F
:104BF30008C87C007D007A427B001211BD74041248
:104C0300088A02502574F512039674EB120958852D
:104C13001882851983E4F0A3F0901C70E0FEA3E0F2
:104C2300807E8E828F83A3A3E0C0E07402120B9870
:104C3300D0E0124CF0A982AA8389088A09750A0078
:104C430078081208C47C127D007406120B98AA829D
:104C5300AB83121073740312088A74021209288832
:104C630008890978081208C87508137509007808B7
:104C73001208C87404120B981259BC75F013A4F8E7
:104C8300AAF075F013E9124CD81211BD740412087E
:104C93008A851882851983124CE7126F6BE8FEE947
:104CA300FFEE4F6003024C25A818A919880889094B
:104CB30078081208C875080275090078081208C830
:104CC3007C007D007A427B001211BD740412088AB5
:104CD30074150270ABA42AF9E82402FCE439FD7AC6
:104CE300427B0022E02401F0A3E0340022124CF4C2
:104CF30022124CF822124CFC22126A47A3A3A322CD
:104D030074F412039674EB1209587E007F00A818FE
:104D1300A9198808890978081208C87508028E0934
:104D230078081208C87C007D007A427B001211C308
:104D3300740412088AE9706E8E088058740212098E
:104D430028880A890B780A1208C8750A13750B009C
:104D5300780A1208C8E50875F013A4F8AAF075F0EC
:104D630013E509124CD81211C3740412088AE970AE
:104D73001B7403120B98AA82AB837402120B98E084
:104D8300F9121D33E970050EEE70010F0508E508F1
:104D930070020509851882851983124B70C3E508D3
:104DA30098E509994096EEFAEFFB74150239D2742F
:104DB300F61203968C828D83A3A3124FE6F0EA24A6
:104DC30017F582E43BF583E0C0E0124FB6D0E0F084
:104DD300124F96124B70124FA0124FE6A3F0A3F09E
:104DE300EA241FF582E43BF5831241F9EC12565B8A
:104DF3003DF583EEF0A3EFF0EA125E963BF58312E6
:104E03004FC7A3A3A3A3A3A3EEF0A3EF12612BFEAB
:104E13008C828D8312501074035EFEC3940340038F
:104E2300024F7DEE600574026E70798C828D83E093
:104E3300540CFE740C6E7003024EE4E0A2E4400DC9
:104E430088828983E08C828D83A312501874086E44
:104E53006003024EE4124FA87401F08A828B83A38D
:104E6300A3A3A3A3125A3070148C828D83E0440C45
:104E7300124FF0A3A3124FC7EEF0A3EFF08C828D75
:104E830083E0A2E4401E124FD512500150010912D3
:104E93004FD5A3A312500150010988828983124F71
:104EA300BE12501088828983E0C0E0EC124F903D1F
:104EB300F583D0E01250108C828D83E0A2E7507806
:104EC30088828983E0FE8C828D8312501874FC5E85
:104ED300700C8C828D83A3E054036403701B024F18
:104EE3007D124FA8E4F0740C6E6003024E5E124F05
:104EF300D512500350870980848C828D83A3E0549C
:104F030003603888828983E0C0E0EC124F8A3DF564
:104F130083D0E01250198C828D83E05403640270B5
:104F23001A88828983E0C0E0EC2414F582E43DF51D
:104F330083D0E01250198003A3E4F0EC1247F23D52
:104F4300125A74EC2410FEE43DFF124F96E0F5086C
:104F53008E828F83E0C3982508F508F0EA2417F8BA
:104F6300E43BF988828983E0C39508C0E0124FA02F
:104F7300D0E012612BC39508500A124FA0E4F0123F
:104F83004FB6E4F002502A2413F582E4222411F5EB
:104F930082E422EA241DF582E43BF58322EC125ECF
:104FA300963DF58322EC124FB03DF58322240CF598
:104FB30082E422EC1248023DF58322E08C828D8349
:104FC300A3A3A322E0FEA3E0FF8C828D83A3A3A36C
:104FD300A32288828983E0F508A3E0FFE5088C8299
:104FE3008D8322E4F08C828D83A3A3A322124FF836
:104FF300A3A3A3A322F08A828B83A3A3A322A3A3A5
:10500300A3A3A3A3F0A3EFF0E82402F822125020F5
:10501300A882A98322A312502008A98322126130F7
:10502300A322740212088A7F020205AD74F41203EC
:105033009674F31209588A0A8B0BECFEEDFF8E82ED
:105043008F83E0540CF508E0A2E75006E508D2E7A9
:10505300F508E508D2E1F508125A307006E508D2E2
:10506300E4F508E0A2E55006E508D2E5F5087C087A
:105073007D007900AA18AB1912107F7402120B98E5
:10508300E50812515CC0E07403120B98D0E012568D
:10509300D2E50AF0A3E50BF07405120B98126246F1
:1050A300121E29740C120B98E070787408120B9876
:1050B3001264DD1260F038126AECC0E07408120B5F
:1050C30098125150D0E0126530C0E07408120B986A
:1050D300125144D0E0F07408120B9812581D12516B
:1050E30033125F801256AF241112593FC0E01251A0
:1050F3002BD0E0F0EE241412593FC0E07408120BD9
:10510300981264DD2435F582E438F583D0E0125635
:1051130094C0E07408120B98125645D0E01262480E
:10512300121E2F740D0239D2E812560339F5832269
:105133001259F0E8242AF582E439F583EAF0A3EB67
:105143002212652B2427F582E438F5832212652B7E
:105153002426F582E438F58322126A42E02274F7AA
:105163001203967E008A828B83A3A3A3A3A3A3A384
:10517300A3A3E06404600302520D125A28E0600303
:1051830002520D1252113B1259C9607E88828983E3
:10519300E054037075E8240C125C11FA8C828D8341
:1051A300A3A3E0FBA3E0CB124F903BF583E06A702F
:1051B3005988828983A3A3A3A3A312521CE06A7014
:1051C30003A3E06B70448882898312521CA3A31249
:1051D3005C3E240612593F6A7003A3E06B702B8870
:1051E300828983A3A3E0F88C828D83A3A3E0F9A330
:1051F300E0F5838982A3A3E068600D8C828D83121E
:105203005989540C640470027E01EEF98023EA127A
:10521300521622240FF582E422A3A3A3A31259F664
:105223008C828D8322740C120B98E0F9740D120892
:105233008A7F010205AD74F612039674FC120958B5
:10524300EAFEEBFFECFAEDFB8A828B83A3E05403C7
:105253006016901C621259CB60597900EEFCEFFD89
:10526300126D1B12050E804B851882851983EEF093
:10527300A3EFF07402120B98125678AC18AD197A9A
:10528300817B1D121FD98A088B09A808A909E8493F
:10529300602188828983A3A3A3A3A3A3A3A3A37445
:1052A30006F07A00888289831264DD1264BAE0F919
:1052B300121EFB740402502774F212039674F31245
:1052C3000958EAFEEBFF8E828F83A3A3A3A3A3A3B4
:1052D300A3A3A3A3E0F50A901EE5E0700579BA0243
:1052E30055FE750801750900750C00750D007C08E5
:1052F3007D007900AA18AB1912107F7405120B9860
:1053030074011256CA540460127402120B98E0D24C
:10531300E61256CA54087003750803E05410600679
:1053230074404508F508E0540860227402120B9893
:10533300E044C01256CA5420600A7403120B98E06A
:10534300D2E080087403120B98E0D2E1F0EE24154A
:1053530012593F12562D7003740169700674084583
:1053630008F5088E828F83A3A3A3A3A3A3A3A3E01B
:105373007016122045851882851983125678740297
:10538300120B98E0D2E2802C640F70107402120B9F
:10539300981256DA74044508F508807B8E828F8351
:1053A300A3A3A3A3A3A3A3A3E064028E828F83700A
:1053B30006125F74F08060A3A3A3A3A3A3A3A3E037
:1053C3006403700DAC18AD19EEFAEFFB121DB1803A
:1053D300468E828F83A3A3A3A3A3A3A3A3E0640105
:1053E3007035901CECE060107402120B981256DAC0
:1053F300750910750AFF80187402120B98E0440CAB
:105403001256D274FDF0A374FFF074044508F50836
:105413008E828F83125639EE241512593FA2E05023
:105423003F7402120B98E0540C701B8E828F831210
:1054330059EC1217A5E9700579BB0255FE740212E7
:105443000B98E0D2E5F0EE241512593FA2E050107C
:105453007402120B98E0540C64047004E0D2E5F07B
:10546300EE241112593FC0E07404120B98D0E012DD
:105473006248121E29740C120B98E060030255F760
:105483007408120B98125661E508F0A3E509F0EED3
:10549300241812593FC0E012561CD0E012567EE089
:1054A300C0E07408120B981264DD124F8A38F5833A
:1054B300D0E0125F8064017011901CECE0C0E074D6
:1054C30008120B98125651D0E0F07408120B981280
:1054D300566D241712593FFAE8241CF582E439F576
:1054E30083EA1259DBEE2415FAE43FFB8A828B83AD
:1054F3001241E2E8125613ECF0A3ED125689E0C014
:10550300E0125609D0E01256C312562D70037401EF
:105513006970137408120B98125A03FAEE241D12C1
:10552300593FF9121B6B8E828F83A3A3A3A3A3A35B
:10553300A3A3A3E0C0E07408120B98125150D0E06B
:10554300F07408120B98125144E50AF07408120B18
:10555300981259BC2428F582E439F583E50CF0A3AD
:10556300E50D12569CFAA3E0FBE8242A1256B62452
:105573000F12593F1256AF241712593FC0E0E824C7
:1055830033F582E439F583D0E0F0125626C0E07497
:1055930008120B98125645D0E0F0EE241A12593F28
:1055A300C0E07408120B981264DD12560338F583B9
:1055B300D0E01256941230671208C4126CE91241FB
:1055C300E2740B120B98125F5212107374031208D9
:1055D3008AEE241512593F54406012901C7C1259D4
:1055E300CB600AAA18AB19126D1B12050EAA18ABD1
:1055F30019121E2F740C120B98E0F9740D0230CAA5
:105603002432F582E422E82420F582E439F583226A
:10561300241EF582E439F58322E82412F582E43965
:10562300F58322EE241B1256A7225480F8A3E054DC
:1056330001F97480682212563D22E0F50CA3E0F5CF
:105643000D2212652B2434F582E438F5832212658A
:105653002B12565B38F583222415F582E422125966
:10566300C012521639F58322F583124B74EE22F5DC
:1056730082E439F583EAF0A3EBF022F0EE2419F586
:1056830082E43FF58322F0EE241CF582E43FF583A8
:1056930022F0EE24131256A722F0EE240D1256A781
:1056A30022EE240FF582E43FF583E022FAA3E0FB28
:1056B300E8242CF582E439F583EAF0A3EBF0EE223B
:1056C300F08A828B83E022F0EE24151256A722F093
:1056D30085188285198322E0D2E3126F6F1256E494
:1056E30022851882851983E8F0A3E9F02274F71262
:1056F30003967E638A828B83E0600C7905121ED742
:10570300E9F87456C398FE901C94E0600CF9121EDD
:10571300D7E9F8EEC39824F2FE02520D74F6120391
:105723009674FE120958851882851983125678E9F2
:10573300FEECFAEDFB9004D41259CB6035A818A9FE
:10574300198808890978081208C87D01740E120B9C
:1057530098E0FCEEF99004D41264D612050E74029C
:1057630012088A8B09EA450960047900800679B238
:10577300800279B602502574F7120396E9FE901C55
:10578300561259CB601F7409120B98E0F50878087C
:105793001208CCEEF9901C561264D612050E740151
:1057A30012088A800279B602523474F7120396897A
:1057B30008ECFEEDFF79B5E508245F600C14603159
:1057C30014601224F86045804E901C4912581DE85D
:1057D300F0A3E980199004D6124B78603A9004D66E
:1057E3001264D612050E8E828F83EAF0A3EBF0804B
:1057F30024901C581241E2EC4D601CEEFCEFFD902E
:105803001C581264D612050EE9F9800B901C541231
:1058130067EE12123B7900025234124B748E828F60
:10582300832274F7120396E979B5245F600624F6A0
:10583300600E80178C828D83125851125A7680091C
:10584300901C541259EC12123B7900025234124B41
:1058530074901C4922A90A0230CD74F2120396EA0D
:10586300FEEBFF8C088D09750A0112203F8A0C8B11
:105873000DAC0CAD0DEEFAEFFB121235E9640170BD
:105883000B901C9C12589F125A76800EAC08AD09DF
:10589300EEFAEFFB121961E9F50A80B91258A32257
:1058A300126A5C8508828509832274F6120396EADC
:1058B300FEEBFF7A0D7B00121139EA4B6070EE2488
:1058C30024126F91F0EE2425126F91A312595B12EB
:1058D3006F97A3A3126D30125943F0EE125C24129A
:1058E3004B708A828B83A3A3A3A3E8F0A3E9125985
:1058F3007212594C125A76EE242EF582E43FF58348
:10590300125943A3A3A3A3A3F0EE243312593FC018
:10591300E0125934D0E0126AF012594CA3A3A3E861
:10592300F0A3E912596AC0E0125A28D0E0F00250FD
:105933002AEA125C1E3BF58322EE240C1256A722A0
:10594300E08A828B83A3A3A322F8A3E0F98A828B44
:1059530083A3A3A3A3A3A322F012596022EE2426B8
:10596300F582E43FF58322F0EE24321256A722F0AB
:10597300EE242C1256A7221256EA126D0F22EE12B3
:1059830052163FF58322A3A312630C22E508240FCA
:105993001245472212599F8882F58322F8E43FF982
:1059A3008808890922A3A3A3A31259B022E0F5080A
:1059B300A3E0F509228C828D831259C022126A5CFE
:1059C300E822F582E438F5831259C0492212652B87
:1059D30012521638F5837404F0A3E4F0228E828FFA
:1059E30083A3A3A3A3A3A3A3A31259F622A3A3A3AD
:1059F300A3A3A3E0FAA3E0FB22A3A3125EB5A32211
:105A0300125A5FE022125A0C22125A1022126FB855
:105A1300F8A3E022125A0CF922C082C083125A283A
:105A2300E4F0025D98EA124FB03BF58322E05403A1
:105A3300640122740D12088A7F070205AD79010201
:105A43000872F8E43FF988828983E0FAA3E0CA2266
:105A53001264ABA3A322125A53A3A322126141C817
:105A63001247F638F58322124B74EE240BF582E4C9
:105A73003FF5831256EA22C082C083125A2874016A
:105A8300F0025D98025A40C082C083901C7274BDBC
:105A9300F0A3741DF0901C7474C9F0A3741DF090EE
:105AA3001C7674CFF0A3741DF0901C7874C3F0A31C
:105AB300741DF0025D9874F4120396EA2408FCE462
:105AC3003BFD1259B82424125C11FE74035EF509E0
:105AD300125C193912566B88828983F0A3A882A9B4
:105AE30083E5096009740265096003025B85740C30
:105AF3005EF5086017740865086011740465087022
:105B030013740265097005EEA2E4402C125C442470
:105B130027125C89740C65087018125C36242812ED
:105B23005C6EFCA3E0CC2428F582E43CF583A3124D
:105B33005C8F740265097005EEA2E44045125C3681
