:020000040000FA
:06000000020B160201EFE5
:03002B000208A226
:0300430002065161
:030053000201297E
:03006B000207BCCD
:10008300020180010196511800020000920F000046
:1000930000002C0F1010620FDA0F0000560F000043
:1000A300000000000000000000000000000000004D
:1000B30000000000000006FFFFFF01010400991982
:1000C300000000E8030000FFFF681AE80300006473
:1000D300006400B801A0BB0D00A0BB0D000202002C
:1000E3000800000502070101051E02051E020A0A97
:1000F30001080803B80B02803E0102FEFFE8030A71
:10010300050001FFFF0A1401E0010105030101FFDE
:100113000F10FEFF5F2B00000000D129000000003C
:10012300FF000000FF00C0E074F212046EA2AFE40F
:1001330033F508D2AFAFA7AEA1EE5F54106006123D
:100143000CA475A1EFEE5F54086008120CAA75A108
:10015300F78023EEA2E092F0EFA2E082F050179036
:100163006198E0F8900928E0C398A2D265D0335093
:1001730002E8F075A1FE751A00E5088066C0E07418
:10018300F212046EA2AFE433FED2AF9061A4E0F8A2
:10019300759B00E59158540860087591F7120CF2AD
:1001A3008023E59158541060087591EF120CF88084
:1001B30014E591A2E092F0E8A2E082F05007E0C2D9
:1001C300E0F0120E5A9061A3E0F8E5E95854046098
:1001D3000E120E3075E9FB906193E0A2E640F275D2
:1001E3001A00EEA2E092AF7F010204CDC0E074F2E8
:1001F30012046EA2AFE433FED2AF9061A5E0F8E53E
:10020300BF585404600675BFFB120E7280D1C3E45D
:1002130098F8E499F91202528026C3E49AFAE49B0F
:10022300FBE920E7E9120252E498F8E499F922C3C2
:10023300E498F8E499F9120252E498F8E499F9C3BE
:10024300E49AFAE49BFB22EB20E7CFE920E7E0B94D
:100253000010BB0008E88AF084F8AAF022E4FBC887
:10026300FA22EB70227B10C833C8C933C933500755
:10027300C39AC3DBF280069A50012ADBEAC833F43F
:10028300C8C933F4C9FA2275F008E4C833C8C933BE
:10029300C933C99AC99B5004C92AC93BD5F0ECFBA1
:1002A300C833F4C8E4C9FA22080808EAC0E0EBC07E
:1002B300E086F0E7A4FA180986F0E7A42AFA1809F9
:1002C30086F0E7A42AFA180986F0E7A42AFA198621
:1002D300F0E7A4FBE5F02AFA190886F0E7A42BFB64
:1002E300E5F03AFA190886F0E7A42BFBE5F03AFAB1
:1002F30018180986F0E7A4C5F02BFBE43AFA1908AD
:10030300E7C5F0C6A426F6E5F03BFBE43AFA188607
:10031300F0E7A4F6E5F00826F6E43B08F6E43A082D
:10032300F6D0E0FBD0E0FA22E4CFC0E0E4CEC0E0B8
:10033300E4CDC0E0E4CCC0E075F020E626F608E6A4
:1003430033F608E633F608E633F6181818EC33FCF0
:10035300ED33FDEE33FEEF33FFC3EC9709ED970961
:10036300EE9709EF97191919400FFFEC97FC09ED68
:1003730097FD09EE97FE191906D5F0BFECF709EDC5
:10038300F709EEF709EFF7191919D0E0FCD0E0FDF2
:10039300D0E0FED0E0FF222518C582C0E0E5193485
:1003A300FFC583C0E0E518C3958224F810AF088524
:1003B30083198582188008858319858218D2AFCE68
:1003C300F0A3E520F0A37808E608F0A3DEFAEFF047
:1003D300A3E58124FAF8E608F0A3E608F0A3E6080B
:1003E300F0A30808E608F0A3E608F0A31581158139
:1003F300D0E0FED0E0F8158115811581E8C0E0EE6C
:10040300C0E022120BA8B90003020458E49004D1FF
:100413007876791A8002F0A3D8FCD9FA781A90007A
:10042300867A01BA00028007E493A3F608DAF97A20
:10043300467B1E90008778A379018015E493A3ADD2
:1004430082AE838A828B83F0A3AA82AB838D828E52
:1004530083D8E9D9E77582FA7583FB74051208849A
:100463007582CE7583277400120884C0D02518C501
:1004730082C0E0E51934FFC583C0E0E518C3958267
:1004830024F310AF088583198582188008858319A2
:10049300858218D2AFC8F0A3E9F0A3EAF0A3EBF08A
:1004A300A37908E709F0A3D8FAECF0A3EDF0A3EEE3
:1004B300F0A3EFF0A3D0E0F0A3D0E0F0A3D0E0F0FE
:1004C300A3E520F0A3E5F0F0A32285198385188224
:1004D300E0C0E0A3E0F9A3E0FAA3E0FBA37808E01F
:1004E300F608A3DFFAE0FCA3E0FDA3E0FEA3E0FF30
:1004F300A3E0C0E0A3E0C0E0A3E0F5D0A3E0F520D3
:10050300A3E0A3F5F010AF0885831985821880084E
:10051300858319858218D2AFD082D083D0E0F8D0FA
:10052300E032E473FF75F0108E218F2285822685D9
:100533008325851882851983E0CEA3E0CF852682A3
:10054300852583EBC9EAC8EDCBECCAC3E833C8E918
:1005530033C9EA33CAEB33CBC3EA9EF524EB9FF5E9
:1005630023B35004AB23AA24EC33CCED33CDD5F025
:10057300DAAE21AF2222D083D082ECC0E0EDC0E01E
:10058300E493A3FCE493A3FDED4C600D120694ECFD
:1005930024FFFCED34FFFD80EFE493A3FCE493A37D
:1005A300FDED4C600D120767EC24FFFCED34FFFDFD
:1005B30080EFD0E0FDD0E0FCE493A3C0E0E493C07F
:1005C300E022D083D082E9C0E0E493A3C386F0C5E0
:1005D300F095F0F908E493A386F0C5F095F0700B5D
:1005E300E493A3C3994005E9048002A3E475F002F0
:1005F300A42582F582E5F03583F583D0E0F9E49311
:10060300A3C0E0E493C0E022851983851882E0A3A8
:10061300FEE0A3F5207808E0A3F608DFFAE0A3FFE5
:10062300E0A3C0E0E0A3C0E0E0A3C0E0E0A3C0E03B
:10063300E0A3C0E010AF0885821885831980088580
:100643008218858319D2AFD083D08202088AC0E092
:1006530074F212046EA2AFE433FED2AFC2C0901B99
:1006630015E0700BE5D1A2E4501D120C028018E5D1
:10067300D1A2E3500675D1F7120BD8E5D1A2E4500D
:100683000675D1EF120BDEEEA2E092AF7F010204FA
:10069300CDC0E0C3E49396087401939618400FE429
:1006A3009366700808740193661870007019A3A309
:1006B300C3E49396087401939618A3A3400DD0E066
:1006C300D0E0D0E00205B5A3A3A3A3A3A3D0E02267
:1006D300D083D082C5F0E493A3C5F0C395F0F5F0C1
:1006E300E493A3C395F04005E5F0048001E475F0BD
:1006F30002A42582F582E5F03583F583E493A3C054
:10070300E0E493C0E0227404800474028000CCC04F
:10071300E0EDC0E0E518C39CCCAD1950011D10AF4E
:10072300068C188D1980068C188D19D2AF12080605
:10073300D0E0FDD0E0FC2274028000CCC0E0EDC02C
:10074300E0E518C39CCCAD1950011D10AF068C1801
:100753008D1980068C188D19D2AF1207E4D0E0FDF5
:10076300D0E0FC22C0E0C0F088F0E4936670080893
:1007730074019366187000A8F0A3A3700BD0F0D097
:10078300E0D0E0D0E00205B5A3A3D0F0D0E022D0C2
:1007930083D082CCC0E0E493A360061208461470B1
:1007A300FAE493A360061209891470FAD0E0FCE41A
:1007B30093A3C0E0E493C0E022C0E074F212046E9D
:1007C300758900C2C5901B15E0700E7A007B1090EE
:1007D30009C0E0F912113C800312198E7F01020453
:1007E300CDCAC0E0E493A3C582CCC582C583CDC581
:1007F30083F0A3C582CCC582C583CDC583DAE5D09A
:10080300E0CA22CAC0E0E0A3C582CCC582C583CDBD
:10081300C583F0A3C582CCC582C583CDC583DAE683
:10082300D0E0CA22C008C3E096F50808A3E09642C8
:100833000808A3E096420808A3E09645087001D390
:10084300D00822C0E0E493A3D39C5010E493A3C345
:100853009C400AD0E0D0E0D0E00207AFA3A3A3D02E
:10086300E0227009080808226016181818C6C33356
:10087300C608C633C608C633C608C633C6D5E0EABB
:1008830022C09FF59FE473D09F22D083D082C09F64
:10089300E493C0E0740193C0E0740293F59F22C017
:1008A300E0C0D0E8C0E0A8A8D2AFC2C7751A00E87C
:1008B300A2E792AFD0E0F8D0D0D0E03200C0D0258C
:1008C3001810AF08F518500C05198008F5185002D8
:1008D3000519D2AFD0D0222518F58210AF08F5182C
:1008E300400C15198008F51840021519D2AF851967
:1008F30083227404800A74038006740280027401E4
:10090300C0E0F4041208DAD0E0120B5322BB010258
:10091300E722C082C08389828A83BB0003E080020E
:10092300E493D083D082226016080808C6C313C696
:1009330018C613C618C613C618C613C6D5E0EA22CE
:100943002518F8E43519F9222518FAE43519FB229C
:100953002518FCE43519FD22C3E0C696F608A3E08A
:10096300C696F608A3E0C696F608A3E0C696F62256
:10097300251810AF08F518400C15198008F5184014
:10098300021519D2AF22C0E0E493A36C7009D0E042
:10099300D0E0D0E00207AFA3A3D0E022E06670105E
:1009A30008A3E066700A08A3E066700408A3E06683
:1009B30022C3E09608A3E09608A3E09608A3E09676
:1009C300A2D265D03322E76670100809E766700A81
:1009D3000809E76670040809E76622C3E697F60884
:1009E30009E697F60809E697F60809E697F622C39B
:1009F300E49396087401939608740293960874031B
:100A0300939622C3E096F008A3E096F008A3E0963D
:100A1300F008A3E096F022E657F60809E657F60831
:100A230009E657F60809E657F622E026F608A3E09A
:100A330036F608A3E036F608A3E036F622E493F68A
:100A430008740193F608740293F608740393F6226C
:100A5300E056F608A3E056F608A3E056F608A3E02E
:100A630056F622E056F008A3E056F008A3E056F04D
:100A730008A3E056F022E647F60809E647F6080918
:100A8300E647F60809E647F622700422600D18C609
:100A9300C333C608C633C6D5E0F41822E627F608E2
:100AA30009E637F60809E637F60809E637F622E0DD
:100AB30026F008A3E036F008A3E036F008A3E036FA
:100AC300F022E4C396F608E496F608E496F608E402
:100AD30096F622600D08C6A2E713C618C613C6D53C
:100AE300E0F322C6F4C608C6F4C608C6F4C608C6B0
:100AF300F4C622C3E7960809E7960809E7960809AA
:100B0300E79622C3E09608A3E09608A3E09608A31D
:100B1300E0962275D00075813F7518D175190400D0
:100B2300020406E6F008A3E6F008A3E6F008A3E64D
:100B3300F022600C08C6C313C618C613C6D5E0F46A
:100B430022E0F608A3E0F608A3E0F608A3E0F62205
:100B5300CAC0E0E6F0A308DAFAD0E0FA22E8F0A38C
:100B6300E9F0A3EAF0A3EBF022E0F8A3E0F9A3E0B5
:100B7300FAA3E0FB22ECF0A3EDF0A3EEF0A3EFF079
:100B830022E0FCA3E0FDA3E0FEA3E0FF22EAF0A342
:100B9300EBF0A3ECF0A3EDF022E0FAA3E0FBA3E07B
:100BA300FCA3E0FD22E5C754F84401F5C77901220F
:100BB3002518F582E43519F58322C2AF75D69F0255
:100BC30000002212088DF7FB0512088D8CFF01121D
:100BD300088D95FF0112088D9EFF0112088DACFF51
:100BE3000112088D33B30512088D9FB30512088DCA
:100BF30067B40512088D48B50512088D49B705126B
:100C0300088DB0B70512088D03B80512088D14B806
:100C13000512088D24B80512088D96B80512088DA3
:100C2300ACB80512088DB7B80512088DC5B8051202
:100C3300088DD7B80512088DEAB80512088D16B9C4
:100C43000512088DBEBB0512088D15BC0512088D53
:100C530051BC0512088D65BC0512088D7EBC0512BA
:100C6300088D6FBD0512088D4BBE0512088D5FBE42
:100C73000512088D00800612088D24800612088D47
:100C83003D800612088D7B800612088DAB8006120C
:100C9300088DD8800612088DE2800612088D4881DF
:100CA3000612088D4B810612088D55810612088D98
:100CB30062810612088D0FFD0212088D2FFD0212AC
:100CC300088D6EFD0212088D8CFD0212088DA7FDA2
:100CD3000212088D0DFE0212088D19FE0212088DF4
:100CE30076FE0212088D9AFE0212088D5BFF021235
:100CF300088D68FF0212088D79FF0212088D848D1A
:100D03000612088D9C8D0612088DC88D0612088D5B
:100D130004CE0512088D58CF0512088D66CF051233
:100D2300088D79CF0512088D8ECF0512088DA3CFBC
:100D33000512088DB6CF0512088D32D00512088D25
:100D430097D00512088D1FD10512088D97D1051272
:100D5300088D70D20512088D80D20512088D8FD2AE
:100D63000512088D67FF0512088D8BFF0512088D8C
:100D7300B3FF0512088DDBFF0512088D38F5051248
:100D8300088D5FF50512088D7EF50512088DE2F5D5
:100D93000512088D32F20512088D4BF20512088DEB
:100DA30057F20512088D6BF20512088D89F20512B0
:100DB300088D93F20512088D9DF20512088DB0F28D
:100DC3000512088D41F30512088DAEF30512088D47
:100DD300E2F30512088D30F40512088D7DF4051237
:100DE300088D98F40512088DA2F40512088DC8F435
:100DF3000512088D2DF50512088DC88A0612088D77
:100E0300EA8A0612088D5D8B0612088DD27F0012C6
:100E1300088D61F60412088D8DF60412088DAAF66A
:100E23000412088DBDF60412088DD8F60412088D3D
:100E330032F70412088D60F70412088D6AFB04125E
:100E4300088DBBFC0412088DEDFC0412088D4FFDC8
:100E53000412088DE2FE0412088D0AFF0412088DA5
:100E63001FFF0412088D2FFF0412088D6FFF041259
:100E7300088DB1FF0412088DC1FF0412088DC782CB
:100E83000612088DE1820612088D09830612088D69
:100E930022830612088D46830612088D6483061288
:100EA300088D7B830612088DA9830612088DC483DF
:100EB3000612088D878B0612088DCD8B0612088DBE
:100EC30081EB0512088D91EB0512088D98EC051244
:100ED300088DCCEC0512088DEEEC0512088D11ED92
:100EE3000512088D2FED0512088D69ED0512088D89
:100EF300D2ED0512088D14EE0512088D5BEE051276
:100F0300088D88EE0512088DBFEE0512088DD1DB22
:100F13000512088D33DC0512088DDADC0512088D05
:100F230011DD0512088DD9CD0412088D88CE041267
:100F3300088DBAD00412088D91D30412088D23D5DD
:100F43000412088D85D50412088D05D90412088D65
:100F53004DDA0412088DF7830612088D42840612B7
:100F6300088D9BC30512088D5AC60512088DF7C656
:100F73000512088D23C70512088D51C70512088D68
:100F830086C70512088DAEC70512088D0EC8051257
:100F9300088D0E8D0512088D02910512088DF992A8
:100FA3000512088D27940512088D07950512088DE3
:100FB300B5960512088D6A980512088D36990512A3
:100FC300088D8A990512088DB5FD0312088DBFFDA2
:100FD3000312088DE0FD0312088D90DB0412088DC7
:100FE300AFE00412088D14E20412088DF0E304123A
:100FF300088DEDE40412088D1DE60412088D35E713
:101003000412088D50E80412088D00800412088D24
:1010130038800412088DE68A0412088DE38B0412CB
:10102300088D358D0412088D928E0412088D6B8FF6
:101033000412088D39900412088D20910412088D32
:101043000F920412088DB7920412088DE7920412CE
:10105300088D99940412088D0F950412088D289514
:101063000412088D89960412088D47970412088D7F
:10107300E6970412088D8F980412088DFD980412C8
:10108300088D9B990412088D1E9A0412088D3C9AB0
:101093000412088D539B0412088D219C0412088DA1
:1010A300D29C0412088DF2FD0512088D1CFE051258
:1010B300088D30FF0512088D33FF0512088DE28C71
:1010C3000612088D288D0612088D6A8D0612088D6A
:1010D3007A8D0612088DA5AC0512088DE3AC0512B6
:1010E300088D4CAD0512088D6BAD0512088D84ADCE
:1010F3000512088D36AE0512088D3FAE0512088D18
:1011030090AE0512088DC6AE0512088DDDAE051230
:10111300088D49AF0512088DD9AF0512088D0FB0A0
:101123000512088D53B00512088DB4B00512088D51
:10113300E6B00512088D59B10512088DADB105123F
:10114300088DEAB10512088D21B20512088D33B25C
:101153000512088D45B20512088D7DB20512088D62
:10116300C9B20512088D07B30512088DC2C805124E
:10117300088D02CA0512088D25CA0512088D36CAC4
:101183000512088D4ECC0512088D6ECC0512088D04
:10119300A9F70512088DDFF70512088D27F8051248
:1011A300088D83F90512088DB1B90412088DEFBAC1
:1011B3000412088D2BBB0412088DFABC0412088D8F
:1011C30024BD0412088DBBBF0412088DFBBF04129B
:1011D300088D90C10412088D25C20412088D83C2A4
:1011E3000412088D16C30412088D50C30412088D0F
:1011F30092C30412088D05C50412088D89C6041212
:10120300088DAEC80412088DDCC80412088D08C905
:101213000412088D11C90412088D67C90412088DC0
:10122300F7C90412088DFACC0412088D7CCD041280
:10123300088D3B8C0612088D518C0612088D5B8C31
:101243000612088DB78C0612088D74D70512088D07
:101253008AD70512088D2FD80512088D6ED805126E
:10126300088D8BD80512088DBCD80512088D09D9B5
:101273000512088D3DD90512088D78D90512088D00
:1012830054DB0512088DBFDB0512088D1985061284
:10129300088D6E850612088DC8850612088D368660
:1012A3000612088DA8860612088DE6860612088D9A
:1012B30027870612088D86F70112088D8CF7011215
:1012C300088DD3F70112088DDFF90112088D0FFA8B
:1012D3000112088D7BFA0112088D38FB0112088D6B
:1012E30079FB0112088DABFB0112088D35FC01124D
:1012F300088D4CFC0112088D59FC0112088D63FC0A
:101303000112088D03FE0112088DF5FE0112088DEE
:1013130053FF0112088D28A40512088D3EA405125F
:10132300088DF0A40512088D1AA60512088D0FA7C3
:101333000512088DACA70512088DE7A70512088DC5
:1013430059A80512088DB7A80512088DC7A805125C
:10135300088DEEA80512088D40A90512088DA9AACB
:101363000512088DAEAA0512088DD0AA0512088DA4
:10137300DDDA0212088D35DB0212088DD5DB02128D
:10138300088D52DD0212088D3EDE0212088DFBDE4F
:101393000212088D12DF0212088D61DF0212088D1E
:1013A300D5DF0212088D30E00212088D43E00212ED
:1013B300088DA7E00212088D16E10212088DC5E31D
:1013C3000212088DD3E40212088D2EE50212088D55
:1013D30074E50212088D2AE80212088D7AE80212D7
:1013E300088DFBE80212088D3DE90212088D17EA09
:1013F3000212088D50EA0212088D6FEA0212088D5C
:10140300BAEA0212088DD0EA0212088D8BEB02129F
:10141300088D59EC0212088D64EC0212088DB2ECAF
:101423000212088D07ED0212088D53ED0212088D8A
:10143300B7EE0212088DE1EE0212088D66F1021278
:10144300088D90F10212088D93F20212088DC0F2FA
:101453000212088D38F30212088D13F40212088D5C
:1014630055F40212088DC9F40212088DE3F5021235
:10147300088D30F60212088D43F60212088D46F6E7
:101483000212088D4FF60212088D6AF60212088DB9
:10149300E2F60212088D1BF70212088D37F70212CB
:1014A300088D63F70212088D8AF70212088DAEF7D2
:1014B3000212088D27F80212088D9AF80212088D7D
:1014C300DDF80212088DE7F80212088D16F90212F0
:1014D300088D2CF90212088D48F90212088D77F94C
:1014E3000212088D97F90212088DE0F90212088D95
:1014F3001BFA0212088D27FB0212088D8AFC0212C6
:10150300088DA9FC0212088DC0FC0212088DD2FCC2
:101513000212088D4E880612088D5F880612088D08
:10152300E8880612088D73BE0512088DB1BE051238
:10153300088D4ABF0512088D55C00512088D9DC23E
:101543000512088D1AC30512088D7A780012088DCA
:10155300C9780012088D877A0012088D5A7C001210
:10156300088D987C0012088D6E7D0012088D777EA1
:101573000012088D997E0012088DF57E0012088DE9
:10158300767F0012088DE9BA0312088D0BBB031294
:10159300088D75BC0312088DBEBC0312088D30BDC7
:1015A3000312088DAEBD0312088D13BE0312088DFE
:1015B3005ABE0312088DC9BE0312088D6FBF0312F2
:1015C300088DE4BF0312088D29C00312088D3DC4A2
:1015D3000312088D56C60312088D94C60312088D94
:1015E300D3C60312088DEDC90312088D74CA031202
:1015F300088D14CC0312088D4BCD0312088D5BCEDE
:101603000312088DCCCE0312088DA9CF0312088DC7
:101613002DD00312088D41D00312088D09D1031276
:10162300088D33D20312088D60D40312088D73D64C
:101633000312088D4FD70312088DE0D90312088DCA
:10164300B5DA0312088DD3DB0312088D26DF0312EC
:10165300088D36DF0312088DB6E00312088D53E1BF
:101663000312088D72E20312088D04E30312088D3E
:101673005BE40312088DA2E40312088D51E5031203
:10168300088D859D0412088D259E0412088D919E58
:101693000412088DAC9E0412088D4F9F0412088D0E
:1016A300979F0412088DC3A00412088D02A104128F
:1016B300088D79A10412088DCAA10412088D31A2E4
:1016C3000412088DDDA20412088DC0A50412088D32
:1016D300D9A60412088D5CA70412088D1FA9041251
:1016E300088DC4A90412088D6EAA0412088DD3AA0A
:1016F3000412088D42AB0412088D61AC0412088DEC
:101703005AAD0412088DA4AD0412088DBBAD0412AA
:10171300088D7AAE0412088DB9AE0412088D34AF69
:101723000412088DB8B00412088D50B20412088D4B
:10173300BEB30412088D20B50412088D32B604120C
:10174300088DC5B60412088D33B70412088D45B849
:101753000412088D10E60312088D7BE60312088D30
:10176300C3E60312088D2AE70312088D86E70312E6
:10177300088DC1E70312088D5DE80312088DB7E8F1
:101783000312088D23EA0312088D9CEA0312088DC5
:10179300D3EB0312088DFBEB0312088DD9EC031274
:1017A300088DEAEC0312088D02ED0312088DF9EDA2
:1017B3000312088D1CEE0312088DE5EE0312088D4B
:1017C3000FEF0312088D26EF0312088D40EF03126B
:1017D300088D6CEF0312088D8CEF0312088DB2EFA6
:1017E3000312088DC9EF0312088D9EF00312088DB2
:1017F300F8F00312088DC9F10312088D45F20312A4
:10180300088D5CF20312088DDFF20312088D27F3B3
:101813000312088D4DF30312088DA5F40312088DEE
:10182300AAF40312088DE8F40312088D5FF503127E
:10183300088DCBF50312088DC6F60312088DA0F7A9
:101843000312088DECF70312088D04F90312088DB7
:1018530000FA0312088DA2FA0312088DE8FA0312A4
:10186300088DFDFA0312088D0FFC0312088DB0FCDE
:101873000312088D0CFD0312088DC6E30512088DB3
:1018830081E50512088D49E60512088D9EE60512CD
:10189300088D24E70512088DD2DF0512088DF0DFCD
:1018A3000512088D34E00512088D5AE00512088DE3
:1018B30081E00512088D99E00512088DB1E005124B
:1018C300088DC9E00512088D73E10512088DB5E195
:1018D3000512088DCAE10512088DD1E20512088DA3
:1018E300ECE20512088DF5E20512088DFEE2051201
:1018F300088D07E30512088D11E30512088D278A69
:101903000612088DC0D20512088DECD60512088D7B
:1019130008D70512088D0DD70512088D78FC05121E
:10192300088DB8E70512088DCEE70512088D6CE91E
:101933000512088DB7E90512088D23EA0512088DF3
:1019430021EB0512088D50EB0512088D62EB051291
:10195300088D6C810612088D17EF0512088D73EF41
:101963000512088DB3EF0512088D73FB0512088D60
:10197300D0F00512088DE5F00512088DFCF0051274
:10198300088D33F10512088D43F10512088D5AF1C4
:101993000512088D7FF10512088D0FF20512088DCF
:1019A300A67F0012088D00800212088D5780021254
:1019B300088DC3800212088D4F810212088D0582A3
:1019C3000212088D4D820212088D66820212088D62
:1019D30089820212088DC7820212088D16830212B1
:1019E300088D41830212088D9F830212088D46845D
:1019F3000212088DEE840212088D6A850212088D88
:101A030037860212088D7E860212088DCA8602125C
:101A1300088D52870212088D8B870212088DE18789
:101A23000212088DFD870212088D2C880212088D80
:101A3300388A0212088D668B0212088D928B02126D
:101A4300088DC68B0212088DE78B0212088DF68B68
:101A53000212088D018C0212088DB08C0212088DBF
:101A6300208D0212088DAB8D0212088DB38D0212E8
:101A7300088D208E0212088D5C8E0212088D228F33
:101A83000212088DF58F0212088D4A900212088DFA
:101A9300E9900212088D43910212088D8891021277
:101AA300088D21940212088D64950212088D4E98B8
:101AB3000212088D32990212088D169A0212088DAD
:101AC3003B9A0212088D4C9A0212088DBE9A02129A
:101AD300088D559B0212088DC99B0212088DB99C73
:101AE3000212088DDE9C0212088DF69D0212088DEB
:101AF300149E0212088D309E0212088DA39E0212BC
:101B0300088DB29E0212088D3A9F0212088D37A0EB
:101B13000212088D44A00212088D4DA00212088DF6
:101B23002FA20212088D5BA30212088D6BA302126F
:101B3300088DA6A40212088D25A50212088D56A6AB
:101B43000212088D92A60212088D6CA80212088D4B
:101B530029AC0212088D3DAC0212088D47AC02126B
:101B6300088D51AC0212088D5BAC0212088D65AC76
:101B73000212088D7EAC0212088D88AC0212088D09
:101B8300FFAC0212088D0AAD0212088D39AD0212A4
:101B9300088D61AD0212088D6CAD0212088DD1ADB6
:101BA3000212088DDBAD0212088DE6AD0212088D1C
:101BB3000AAE0212088D2EAE0212088DA0AE0212DA
:101BC300088DE9AE0212088D05AF0212088D76AFBB
:101BD3000212088DC2AF0212088D0BB00212088DDB
:101BE30049B00212088DCAB00212088D71B10212F7
:101BF300088D36B30212088D9BB30212088DC9B447
:101C03000212088DEFB40212088D37B60212088D46
:101C130071B90212088D6FBB0212088D3ABD021210
:101C2300088DD3BD0212088DD4BF0212088D89C05E
:101C33000212088DC2C00212088D32C10212088D31
:101C43003CC10212088D65C30212088D68C40212DA
:101C5300088DA5C50212088DFCC50212088DA7C602
:101C63000212088D57C80212088DA4C90212088DEA
:101C7300C4C90212088D19CA0212088D1ACB0212A6
:101C8300088D42CB0212088DA1CB0212088D99CC8C
:101C93000212088D10CD0212088D23CE0212088D78
:101CA30091CE0212088D90CF0212088DEAD1021252
:101CB300088D13D20212088D79D30212088DFBD43A
:101CC3000212088D52D50212088D00D60212088D19
:101CD300A5D60212088D08D70212088DC6D70212A4
:101CE300088D58D80212088DB7D80212088DF9D87A
:101CF3000212088D2AD90212088D81DA0212088D88
:101D0300B12D0012088DE32D0012088D1C2E001238
:101D1300088DE52F0012088D29300012088DFF3041
:101D23000012088D5E310012088D74320012088D86
:101D3300C0320012088D4E350012088D3238001261
:101D4300088D79390012088D113A0012088D1D3A59
:101D53000012088D663A0012088DA83B0012088D08
:101D63009E3C0012088DC83C0012088D1E3D0012D7
:101D7300088D773D0012088DEA3D0012088D204042
:101D83000012088DA2410012088D8B420012088DAB
:101D9300D5430012088D0D460012088D0A49001222
:101DA300088D19490012088DAD490012088D584A53
:101DB3000012088D9B4A0012088DE44A0012088D18
:101DC300344B0012088D984B0012088D0A4C0012F8
:101DD300088D264C0012088D554C0012088D944C2A
:101DE3000012088D8F4D0012088D3E4E0012088D93
:101DF300BB500012088DED510012088DC552001220
:101E0300088D47530012088D7C570012088DAB577D
:101E13000012088D06580012088D39580012088DDB
:101E2300B1580012088DE9580012088D3959001273
:101E3300088DA85A0012088DCC5A0012088D065B33
:101E43000012088D135B0012088D165B0012088DBB
:101E5300455B0012088D3D5D0012088DFC5D00128C
:101E6300088D2B5E0012088D495F0012088D1160EA
:101E73000012088DD2610012088D42620012088D93
:101E830074620012088DDA620012088DE962001292
:101E9300088D16630012088D30630012088DA3634A
:101EA3000012088DC7650012088D26660012088D82
:101EB3007A660012088DA9680012088D8C690012D9
:101EC300088D146A0012088DF86A0012088D826B5F
:101ED3000012088D966B0012088DAA6B0012088DF4
:101EE300BE6B0012088DD26B0012088DFF6B0012BF
:101EF300088D2F6C0012088DEA6D0012088DC06EDC
:101F03000012088D646F0012088DB96F0012088DDE
:101F130002700012088D86700012088DCD700012B9
:101F2300088D3F710012088D94720012088D3D7365
:101F33000012088D55730012088DF8730012088D76
:101F430074760012088D1C780012088D3A780012FE
:101F5300088D43810112088D85810112088DF28657
:101F63000112088D3E870112088D84870112088DA6
:101F7300D5880112088D3A890112088D7E890112D4
:101F8300088DE48A0112088D3F8E0112088D728F2D
:101F93000112088D019B0112088D919B0112088D7E
:101FA3007B9E0112088DE09F0112088D43A0011250
:101FB300088D5FA10112088DC9A20112088DA8A383
:101FC3000112088D16A60112088DA8A70112088D0B
:101FD30039A80112088D58A90112088DE5A901122B
:101FE300088DEFA90112088D17AA0112088DBAAA4C
:101FF3000112088DA5AB0112088D6DAC0112088D7D
:10200300FAAC0112088D10AD0112088D2DAD01122D
:10201300088D56AD0112088D83AD0112088DC7AF2F
:102023000112088D9AB00112088DDEB00112088DDD
:1020330060B10112088D01B20112088D33B2011291
:10204300088D7AB20112088DADB20112088DF1B27A
:102053000112088D40B30112088D45B30112088D9A
:10206300A1B30112088DE5B30112088DCFB401129B
:10207300088D34B50112088D92B50112088D11B681
:102083000112088D89B90112088D8CBA0112088DCD
:1020930022BC0112088D65BF0112088D07C0011211
:1020A300088D50C20112088D0BC30112088D4AC35B
:1020B3000112088D0EC50112088D2BC50112088D62
:1020C30034C50112088D3DC50112088D48C50112A2
:1020D300088D67C50112088D8BC70112088DE8C7EB
:1020E3000112088DF2C70112088DFCC70112088D79
:1020F3005FC80112088DBBC80112088DC8C901123F
:10210300088D29CA0112088D3ACB0112088D83CBA1
:102113000112088D4DCC0112088D64CD0112088D7A
:1021230028CE0112088D74CF0112088D78D00112C8
:10213300088D71D10112088D89D10112088DC0D18A
:102143000112088DCAD10112088DD4D10112088D54
:10215300DFD10112088DFDD10112088D45D2011284
:10216300088DA3D20112088DCAD20112088DDCD2C8
:102173000112088D85D30112088DBED30112088D7B
:10218300EFD40112088D4CD50112088D3DD60112F2
:10219300088D73D60112088DE3D60112088D5FD71F
:1021A3000112088DE0D80112088D07DA0112088D9B
:1021B300C9DA0112088D97DB0112088D1CDC0112AC
:1021C300088DCBDC0112088DB3DD0112088D4CDEC6
:1021D3000112088D28DF0112088D90DF0112088D8E
:1021E3004FE00112088DABE00112088D0FE10112DF
:1021F300088DD5E10112088DF8E10112088DB2E2D4
:102203000112088DD4E20112088D35E30112088D05
:1022130065E50112088D5EE60112088D0AE70112D9
:10222300088D27E90112088D70E90112088DBBE9B9
:102233000112088D17EA0112088D75EA0112088D43
:1022430099EA0112088DBDEA0112088DF2EA011222
:10225300088D1AEB0112088D5FEB0112088DBDEB9F
:102263000112088D16EC0112088D10ED0112088D74
:10227300BCEE0112088D01EF0112088D2AEF011245
:10228300088DB3EF0112088D26F00112088D34F08A
:102293000112088D58F00112088DAEF00112088D5D
:1022A300C9F00112088D84F10112088DB0F10112F9
:1022B300088DF3F10112088D56F20112088D66F4B0
:1022C3000112088D92F40112088D4DF50112088D4B
:1022D30031F60112088DC5F60112088DA899051271
:1022E300088DE0990512088D019A0512088D439A0D
:1022F3000512088DA79A0512088DB19A0512088D4B
:10230300C19A0512088DF89A0512088DA19E05122F
:10231300088D69A00512088D4DA20512088DEFA244
:102323000512088D79A30512088D50800312088DBC
:10233300F9800312088DD8810312088DE4820312F9
:10234300088D04830312088D26840312088DD68515
:102353000312088D43860312088D14870312088D18
:102363001A880312088D92880312088DCD880312F0
:10237300088D26890312088D61890312088DAA89A5
:102383000312088D3E8A0312088DD48A0312088D26
:10239300A98B0312088D7C8C0312088D0A8D0312FE
:1023A300088D308D0312088D5D8D0312088D8E8D7F
:1023B3000312088D5B8E0312088D6B8E0312088D3A
:1023C300BE8E0312088DCB8E0312088DD88E031296
:1023D300088DE18E0312088D458F0312088DA38F9C
:1023E3000312088DEE8F0312088D09900312088DD6
:1023F30030900312088D4D900312088D59900312EB
:10240300088DEA910312088D03920312088D7F92BF
:102413000312088D92920312088DA2920312088D63
:1024230046930312088DB2940312088DC5950312C7
:10243300088D65960312088D6F960312088DEE962C
:102443000312088DFF960312088D3E970312088D21
:102453006C970312088D39980312088D9098031214
:10246300088DC9980312088D1F990312088D3D9991
:102473000312088D8B990312088D569A0312088D47
:10248300A49A0312088DF19A0312088D749B031208
:10249300088D9E9B0312088DD49B0312088DE39B2A
:1024A3000312088D429C0312088DBA9C0312088DF7
:1024B300FB9C0312088D4B9D0312088D769D03121E
:1024C300088D909D0312088DAA9D0312088D7F9E8F
:1024D3000312088D899E0312088DC49E0312088D72
:1024E300D49E0312088DDD9E0312088D2E9F0312C6
:1024F300088D429F0312088D64A00312088D77A0F4
:102503000312088D8EA00312088DA3A00312088D59
:1025130036A10312088DAAA10312088D4FA203123C
:10252300088D5AA20312088DBDA30312088DD9A3E7
:102533000312088D25A40312088D93A40312088D9A
:10254300C5A40312088DDFA40312088D3FA503124F
:10255300088DDEA50312088D29A60312088D7CA819
:102563000312088D14A90312088D8BA90312088D79
:10257300E8AB0312088D00AC0312088D03AC031201
:10258300088D0FAC0312088D23AC0312088D2BACFE
:102593000312088D62AC0312088D56AD0312088D29
:1025A300E0AD0312088D62AE0312088DE2AE031292
:1025B300088DB9AF0312088DDBAF0312088D74B019
:1025C3000312088DD1B00312088DD4B00312088D05
:1025D30001B10312088D16B10312088D85B10312E0
:1025E300088DD1B20312088DE4B30312088D6FB4C2
:1025F3000312088D82B50312088D49B60312088DA4
:102603007AB60312088DA0B60312088DA9B6031279
:10261300088DD8B60312088D88B70312088D38B811
:102623000312088DABB80312088D4EB90312088D3F
:10263300C1B90312088D00BA0312088D49BA0312F7
:10264300088D7EBA0312088D128A0612088D028A3B
:102653000612088DCEFF0112088DEF7F0012088D40
:10266300E8890612088D4A890612088D39890612EF
:10267300088D74F50412088DC3F40412088DDFF37A
:102683000412088D32F20412088DF1F10412088D40
:10269300C8F10412088D75F10412088DCEF00412EE
:1026A300088D36F00412088D14F00412088DBCEF67
:1026B3000412088D82EF0412088D00EF0412088DB6
:1026C3009FEE0412088D5AEE0412088D75ED041264
:1026D300088D99EC0412088D08FA0512088D41EC57
:1026E3000412088DE6F90512088DF87F0012088D93
:1026F300CBFF0112088DC8FF0112088DC5FF01121F
:10270300088DB5FF0112088DEC7F0012088D358806
:102713000612088DB1EB0412088D6CEB0412088DC0
:1027230050EB0412088DF5E90412088DCD870612CB
:10273300088DB7E90412088D91E90412088D15E993
:102743000412088DD78C0512088D49870612088D4F
:102753008C8C0512088DACF00512088D338C051294
:10276300088D068C0512088DD58B0512088DA58B57
:102773000512088D7D8B0512088D1D8B0512088DA2
:10278300FF8A0512088DC48A0512088D448A051232
:10279300088D67860512088D45840512088D018210
:1027A3000512088D7B810512088D29810512088D7C
:1027B300B4800512088DB88A0612088D6D80051243
:1027C300088D00800512088D8EE30500000080FB54
:1027D3008F000100091B87000100081B350004005E
:1027E3008D1E25000200911E26000200931E270065
:1027F3000200951E280001009F1E29000100A01E53
:1028030084000400A11E86000100A51E2A00010009
:10281300A61E2B000100A71E2C000100AB1E2D00DD
:102823000800EA1A2E000100AC1E2F000100AD1EA5
:1028330030000100AE1E31000100AF1E3200010066
:10284300F21A33000100F31A34000100B01E3600FF
:102853000100F41A38000100B11E39000100AA1E5C
:1028630083000200C51E63000100051B6400010014
:10287300A81E65000100A91E6D000100061B710062
:102883000800E21A66000100C41E43000100B51EE1
:1028930044000200B61E45000100B81E46000200B7
:1028A300B91E47000800FD1A48000100BB1E4B007B
:1028B3000100BC1E04000100C71EA1000100CA1EC6
:1028C30037000100C91E88000100C81E3C0001003A
:1028D300F51A3D000100B21E49000200BD1E67004B
:1028E3000100071B4D000200BF1E4E000100C11E68
:1028F3004F000200C21E3E000100FC1A51000100FD
:10290300F61A52000100B31E53000100B41E540016
:102913000100F71A00000000000000013636010133
:102923000001020100010301000104010606050282
:102933000000070100340801000F090401010D0123
:1029430000FF0E08000017020000190100FF1A0122
:1029530000011B0100FE1C0100081D0200001F01F5
:10296300000120010001210200002301000F2402C5
:1029730000002601000127010008280200FF2A01A8
:1029830000072B0102402C0100002D0100012E0144
:1029930000012F0100FF30010B1D310800003A0137
:1029A30000083B01000F3C0100013D0100FF3E0414
:1029B300000042040000460400004A0400004E04E4
:1029C300000052040000560400005A0400000103F2
:1029D3007103010301030103010301032203020342
:1029E30001031003000300030003000300030003BB
:1029F300000342030003240306030003000304034C
:102A03001203250323032503230304030403000301
:102A130000030003440300030003230300036503CF
:102A230021003503810300030503000300030003B2
:102A330000032503230301017101010101011101B8
:102A430001013101010101018001100161013B001C
:102A53001400630173017201620143010001130158
:102A630006013D01350004011201000100010001CE
:102A7300000104010401330133013C01440132012B
:102A830036000001000165010001350081010001EC
:102A9300050182018301000103027102300160021A
:102AA300110270020102020202028002100261029C
:102AB3003A0041006302730272026202430200029F
:102AC3001302380000020002040212020002000294
:102AD3000002000204020402370037003C024402F1
:102AE3000002390000020002650200023502810281
:102AF300000205028202830200020304710402043D
:102B030060041104700402040204010402041004AA
:102B13006104000414046304730472046204430430
:102B23000004130406040004000404041204000453
:102B330000040004000451046400000400040004C1
:102B43004404000400040004000465040004350484
:102B5300810464000504000483040004030071007D
:102B63003001600011007000310220035004800026
:102B73001000610000001400630073007200620023
:102B830043000000130006000000000004001200D0
:102B930000000000000000000400040037003700BC
:102BA3003C0244000000000000000000650000003B
:102BB300350081000000050000008300000036009E
:102BC3000100060000000F000000000000000000EC
:102BD3000000000003FFFF00000403FFFF0000FFED
:102BE300FF0FF4010005C4040320000100F50B00EE
:102BF3000000000000000003010F000000000000BF
:102C030000000000000000000000000000000000C1
:102C13000000000000000000000000000000C416D7
:102C2300130022161F0028161F802E160100C4163B
:102C33000200AA150300B0150400B6150500BC1563
:102C43000600C8153000E6153100E0153200F21514
:102C53003300F8153500FE153400041636000A1645
:102C63001100161614001C161500DA15FFFF0000DC
:102C73000A00000002000000040000000800000039
:102C83001000000020000000400000008000000051
:102C93000001000000020000000400000008000022
:102CA300001000000020000000400000019A1F06F1
:102CB300D01F08CA1F0BE81F10B21C0AFA1F02A07C
:102CC3001F05BE1F07A61F0C821F0D8E1F648A1AC5
:102CD300FF000007ECFDFDFDECDCDCCCBCACAC9CE8
:102CE3009C8C7C7C6C6C5C5C5C4C4C3C3C2C2C1C51
:102CF3001C00160F00000B150B020002220F3300FD
:102D0300000E01030507090B0D0F00020406080A54
:102D13000C0D5A6967426565416C6C69616E636548
:102D23003039140AE5D5C5B5A5A595858575650022
:102D33000119161816161823030030301618192017
:102D4300231A1C1E30303017181921301B1D1F3059
:102D530000393D3F373C3C362C442D00034A494360
:102D63004E181A2505020C0E020B040B0A07080065
:102D73000F020402010101010902E803000000BE81
:102D8300040AD62C00000000252D0E00FA067F0051
:102D9300E8031E1E08050C04040010102809080986
:102DA30003010C030508150300FF0A0C0400C0828D
:102DB300C08312273E901C44741EF0A3741DF09030
:102DC3001C467424F0A3741DF0901C48742AF0A3CD
:102DD300741DF0901C4A7430F0A3741DF0025E243D
:102DE30074F712039AE9FE901C36E4F0EE901C355A
:102DF300F0901EB91258DD125B027CFD7D1A7A3900
:102E03007B1C1212B0901EBBE0901C41F0901C4240
:102E130074E2F0A3741A023D1A74F012039A8A083A
:102E23008B09EB54807003022F74901C35E0F91268
:102E330011128A0A8B0BAE0AAF0BEE4F7003022FEF
:102E43006B1256B2707EEE241F1259CB64137002BC
:102E5300A3E070708E828F83A3A3E0F50EA3E0F549
:102E63000F901C54125A78750A00750B00800D12CE
:102E73003B91125B021211A2AA0CAB0DEA4B604408
:102E83008A828B83E0650E7004A3E0650F70288A45
:102E9300828B83A3A3A3A31256C5E50A450B8A829B
:102EA3008B83A3A3A3A360C7124BFC850A82850B64
:102EB30083A3A3A3A380BB8A0A8B0B8A828B83126F
:102EC3005A7480B8EE242A1259CBF9126872901CF6
:102ED3005412400CA3A3A3A3A3A3A3A3E06402706F
:102EE300378A828B83125A7880078C828D831242B1
:102EF3006AEC4D60208C828D83E06A7003A3E06BE3
:102F030070E88C828D83A3A3E06970DE901EC112EA
:102F1300504AF0804C121D5A8E828F83E0640170F8
:102F230034EE2418122FDD120901124992120709F7
:102F3300EE2412122FDD1209011249861208FD1226
:102F430062BF12070DEE241712499A12279E740AC4
:102F53001208BF800CE064027007EEFAEFFB121E4A
:102F630098EEFAEFFB121100AA08E5096480FB80D2
:102F730066901B08E0600464017019EAA2E0501433
:102F8300901C4C125A576006126DA7120525E508CE
:102F93006401803AEA5402600C901ED07401F0EA96
:102FA3006402FA8032EA54086029121D548B0BEA3A
:102FB300450B7016901C56E4F0A3F0A3F0A3F07A2F
:102FC30008FB901C35E0F912126EE5086408FAABB1
:102FD3000980047A007B000243D0125733F50A7844
:102FE3000A2274F412039AEA4B901C4C6026ECF00C
:102FF300A3EDF08A088B09E4F50AF50B78081208AB
:10300300F57A017B00901C35E0F912126274041208
:1030130008BF800FE4F0A3F07A01FB901C35E0F9C0
:1030230012126E023A6174F412039A8A088B098AA7
:10303300828B8312656612488A38F583E02409FA85
:103043007B001210FA8A0A8B0BAE0AAF0BEE4F709D
:10305300030230ED8E828F837402F0A3E4126F5566
:10306300A3A3A3A3E8F0A3E912689AA3A3A3A3A32A
:10307300A3A3F0E5082403F8E43509125AD412484F
:103083008A3AF583124005F0EE2409FAE43FFB8EF9
:10309300828F83A3A31261C2F5838882E0A2E58EA7
:1030A300828F83A3A3A3A3A3500474018001E4F03C
:1030B300E5082403F888828983125A78EA12487E45
:1030C3003BF5831230F21208F9EA24101262C78E1C
:1030D300828F83125A761210D674031208BFEEFA47
:1030E300EFFB901C35E0F9121106023A61A3A3E04D
:1030F300F508A3E0F509750A0078082274F21203B3
:103103009A8A088B09ECFAEDFB740E120BB3E0FC00
:103113001226D28A0C8B0DAE0CAF0DEE4F6030AC85
:1031230008AD0912271AE96026AC08AD09EEFAEFDB
:10313300FB122714E970148E828F83124B2DFAEF42
:10314300FB122720AA08AB091226BA79008002795C
:10315300B480031208BF7F0602060B74EE12039AB3
:1031630074F71209738A0A8B0BECFEEDFF750CB32F
:10317300750D00750E008002050E902D9BE493F8EB
:10318300E50EC398400302326DAA0E7B0012269609
:103193008A088B09EA450960DF8A828B83A3A3A38C
:1031A300A3A3E0250DF50DF8C3E50A98E50B9400FC
:1031B30050C67C157D007900EEFAEFFB1210E28514
:1031C3000882850983A3A3A3A3A3E0F8E50AC39513
:1031D3000D2825E0F8E433F9E50828F582E50939F7
:1031E300F583123DDB125B021220B48A0A8B0BAC0F
:1031F3000AAD0BEEFAEFFB1212B085088285098344
:10320300A3E06401700B1249927401127807A38042
:103213003DAC18AD19850882850983125A761226AA
:10322300AEE9602D7408120BB3E0C0E0124992D0EE
:10323300E0F07408120BB3E06403700CAC18AD1922
:10324300123FFD1212B08009851882851983125A24
:10325300F68508828509831243B2A3A3126EABC01D
:10326300E01245C1D0E0F0750C00A90C740902709E
:103273006D74F712039AE9FE8A828B83A3A3A3A337
:10328300A3A3E0540860338A828B83A3A3A3A3A3DD
:10329300A3E0540260218A828B83A3A3A3A3A3A3E5
:1032A300A3A3A3E06406600F74E96E600A74CD6E95
:1032B300600574F06E7003121D3C0252C074E81274
:1032C300039A74F81209737406120BB3125704ECC1
:1032D300FEEDFF89177515001235321226C68A0ACC
:1032E3008B0BEA450B70030234DFEE24101259CB2B
:1032F300FAA90A121BB68A128B13EA45137003024A
:1033030034DFEE2403F50CE43FF50DEE2406F50857
:10331300E43FF5097C008508821248DE1226C08A44
:10332300108B11850C82850D83123527125AA385C4
:103333001282851383A3A3A3A3125A06123527A3CC
:10334300A3A3A3125A67851282851383A3A3A3A3FE
:10335300A3A3127065126E901208F9EE12488A3F09
:103363001262CB851282851383A3125A701210D670
:1033730074031208BF7428120BB3124BFCE512122C
:10338300503C3513125B00742A120BB3E0C0E0E526
:103393001212487E3513F583D0E0F07514007423C0
:1033A300120BB3E0F5167424120BB3780C120B4412
:1033B300023466851082851183125A761226A885F7
:1033C3000882850983A3EAF0A3EB123549A3A3126C
:1033D300695B123543A2E6500F850882850983A3F2
:1033E300A3A3A3A3E0D2E1F0E51570668508828567
:1033F3000983124BFB901C8AE0687003A3E0697099
:1034030051850882850983A3A3A312419C751000EB
:103413007810120901780C1208F5E516F5107810EA
:103423001209017426120BB312070D901C97120791
:103433000D79007410120BB312687A121EF2740A1B
:103443001208BF850882850983A3A3A3A3A3E0442D
:1034530005F074012514FC1235321226C08A108B34
:10346300110514E5104511604EC3E514950AE49562
:103473000B5044E51475F006A4F8A9F0E51228F8FA
:10348300E51339F9E8240FF508E439F509850882CD
:10349300F583E412786DE0640160030233B67515B9
:1034A30001850882850983740112354912592BA3BA
:1034B300E8F0A3E90233CDAA12AB13121BBC7812B6
:1034C3001208FDAD167424120BB3E0FCA917EEFA33
:1034D300EFFB121D3674021208BF803E8E828F836B
:1034E300A3A3A3E0C0E07403120BB3D0E0F0EE2477
:1034F300121259CBC0E07404120BB3D0E0F0E50A0A
:10350300450B70097405120BB374B9800774051267
:103513000BB374101262D4121EEC74081208BF7F2E
:103523001002060BE0851282851383A3A3A3228EC8
:10353300828F83125A7C8E828F83A3A3A3E0F92206
:10354300A3126AD3E022127871A32274E812039AB9
:1035530074F2120973E9851882851983F08A0C8B3A
:103563000D8C168D177426120BB3125A38AA08FB4A
:10357300121BAAE9F514AA08AB09121BB0E9F51549
:10358300E5147003023815751300800F8E828F8344
:10359300A3A3A3A3A3E0D2E3F005131245CBE0F862
:1035A300E513C398400302380CE514700302380C8A
:1035B300E51375F006A4F8A9F0E50828F8E509393C
:1035C300F9E8240FFEE439FF8E828F83A3A3A3A31C
:1035D300A3E0A2E040C3750E00901B08E060046402
:1035E30001704A8E828F83E07043125A77121A4811
:1035F3008A0A8B0BA80AA90BE84960318882898360
:10360300A3A3A3A3E06401600D88828983A3A3A37A
:10361300A3E0640370178E828F83A3A3A3A3A3E005
:10362300D2E7F0750E01E515700302359C750F00A6
:10363300750A08750B00E5176003750F207C087D7C
:10364300007900740112094B1210E28E828F83E01D
:103653006044901CDAE06401701CE50FD2E3F50FBF
:10366300750B10124BF77401120BB3E8F0A3E912B8
:103673004D7C74FF803E430F0C750A0C8E828F8342
:10368300A3123828A3A3A3A3125B027401120BB3E2
:1036930074FFF0A3801E851882851983E06009E515
:1036A3000FD2E6F50F750A0A124BF77401120BB32A
:1036B300E8F0A3E9F07403120BB3E50FF0124888A6
:1036C300350DF583E0C0E07405120BB3D0E0F07460
:1036D30006120BB37401F012094B121E9E740D12E5
:1036E3000BB3E060030237E77409120BB3125A8F6E
:1036F3008E828F83A3A3A3A3F07409120BB3125674
:10370300EDE50AF0A3E50BF01256A8E516123544D1
:103713006011901CDAE0C0E07409120BB31256DD9D
:10372300D0E0F07409120BB31245DBA3A3A3123844
:103733001A241C1256FE1270C512381A12569FEA2A
:10374300F0A3EB126DD4C0E0125695D0E0126E9C3C
:10375300C0E07409120BB31251DCD0E01265BCC097
:10376300E07409120BB31251D0D0E0F07409120BBC
:10377300B31238281251BF12396912381A242C1285
:1037830056FEE50C12501C350DF583E0C0E01251D6
:10379300B7D0E0F07409120BB3125A78850C828506
:1037A3000D8312381F2428F582E43B125B00E50CDD
:1037B30012487E350DF5831270757512007810125C
:1037C30008F9124888350D1262CBEA1265403BF5C1
:1037D30083125A781210D674031208BF74011209A7
:1037E3004B121EA48E828F83A3A3A3A3A3E0D2E0D4
:1037F300F0740D120BB3E0600302358FE50EA2E007
:1038030050021515151402359C7900AA08AB09124C
:103813001D42740E02351F125A82E822A3A3A3A3EA
:10382300124C00EA22124C00850C82850D8322740F
:10383300EE12039A74E91209738A088B09890A8ABA
:10384300828B83A3A3A3A3A3A3A3A3E0F9121BD4F3
:103853008A0C8B0DEA450D70030238F8125A1B12BD
:103863004285E50A60030238FD7C048508828509E8
:1038730083A3A3A3A3A3A3A3A3E0F9121BDAEE4F8D
:1038830060738E828F83A3A3A3124BFB7406120B68
:10389300B31261A5124BFB7408120BB3126008C07C
:1038A300E07410120BB3D0E0123969124BFB740EA3
:1038B300120BB3125B027411120BB3E4125A94C8C5
:1038C300241FF582E438F583125A17C413135403E3
:1038D300FC70027C048E828F83E0F9780C1208FD61
:1038E300742059FD744059F9740212094B121D36A4
:1038F30074021208BF741702706D7C0885088285F4
:103903000983A3A3A3A3A3A3A3A3E0F9121BDA8BA5
:103913000FEA450F7003023881EE4F60D8E50AF5D0
:103923000B780B120901850C82850D83A3A3A3A336
:10393300A3A3A3E0F50B780B1209018A828B83A35F
:10394300A3A3E0FB8A82850F8312426D8A82850FCF
:1039530083E0FA8E828F83A3A3E0F91227A4740273
:103963001208BF023885F0850C82850D83A3A3A3BB
:10397300A3A3A3A3A32274F712039A74FA120973DD
:10398300E9FE7C017D017F0080037D000F1259C099
:10399300E0F8EFC3985028EF75F006A4F885F00817
:1039A300A908EA28F8EB39F9E82414125C9DA2E08F
:1039B30050D8540C60D4E0A2E250D17C0080CD8A70
:1039C300828B83A3A3A3A3A3A3E0703DEDA2E04056
:1039D3000574016E70338A828B83A3A3A3A3A3A36D
:1039E3007401125084E0C0E07403120BB3D0E012F0
:1039F300507CE0C0E07404120BB3D0E0F074051205
:103A03000BB3EC1262D4121EEC74060252BDC082D8
:103A1300C0837901121D42025E2474F412039AEAF0
:103A23004B901ED06022E4F08A088B09F50AF50B4F
:103A330078081208F57A027B00901C35E0F912121F
:103A43006274041208BF800F7401F07A027B009045
:103A53001C35E0F912126E800574021208BF7F0450
:103A630002060B74E812039A74FC120973740212AF
:103A73000BB3E4F0A3F0901C5412428585188285A1
:103A83001983E4F0A3F0751401901C84E0A2E350C1
:103A930003023B1D1212868A088B098C0A8D0B8A3E
:103AA3000C8B0D8C0E8D0F901C56780C12095B122B
:103AB3003B987810790C120AF650077A017B0002C2
:103AC3003B8C850C14850D15850E16850F17781400
:103AD300791012032BA814A915901EC1E0C398E412
:103AE300995003E08001E8F514123B98780C7910A3
:103AF30012032BE4F512F513780879101209DE90FE
:103B03001C567808120B268011123B91125B02EEB1
:103B1300FAEFFB1211A2AE08AF09EE4F60638E827B
:103B23008F83A3A3A3E0F8E514C3985029EE2403DD
:103B3300F582E43FF583A814E0C398F06021740292
:103B4300120BB3124D7312575EEEF0A3EF1265C161
:103B5300FEA3E0FF80C48E828F83A3A3A3E4F08E31
:103B6300828F83125A34851882851983125A578E8D
:103B7300828F83A3A3A3A3609012688C125AE5805B
:103B83008B7402120BB3125A78740402351F124C51
:103B930000901C5422901EBFE0F510A3E0F511E441
:103BA300F512F5132274F212039A8A0A8B0BE9FEBB
:103BB3007A007B00901C54125A38901C54125A57A6
:103BC300601E0A850882850983A3A3A3A3125A57FB
:103BD300600E0AEA70010B88088909E8450970E359
:103BE300901EC2124BFCC3EA98EB994003023C9B24
:103BF3007A067B0012119C8A0C8B0DA80CA90DE888
:103C0300497003023C9B88828983E50AF0A3E50B94
:103C1300F0EE88828983A3A3F0901EC1125D0FA3E7
:103C2300A3A31250ACA3A3A3E4F0A3F0901C5412DB
:103C33004C04600F850882850983A3A3A3A3125BA9
:103C430002801F901C54125B02901C84E0A2E3408C
:103C530011121286EAF8EBF9ECFAEDFB901C5612FE
:103C63000B60901C84E0A2E3502E7A087B00901C2A
:103C730035E0F9121274EA4B4C4D701C901EBF12C2
:103C8300766B78081208F57A087B00901C35E0F90A
:103C930012126874041208BF023159C082C083E94A
:103CA300901ED1F0901C4E7478F0A3741DF0901CFC
:103CB30050748AF0A3741DF0901C52749CF0A3748A
:103CC3001DF0025E2474F712039AEAFEEBFF8908E3
:103CD300EE4F700312265A901C5A125A57700890CE
:103CE3001C5A8022124BFC88828983A3A3A3A3A31B
:103CF300A3A3A3A3124C0488828983A3A3A3A3A38E
:103D0300A3A3A3A370DEEEF0A3EF126977A3A3A38B
:103D1300E4F0126976E508F00252C074F712039AD0
:103D2300901C5A800D8E828F83A3A3A3A3A3A3A366
:103D3300A3A3124285EE4F60348E828F83A3A3A385
:103D4300A3A3A3A3E06970DD8E828F83A3A3A3A3A0
:103D5300E06A7003A3E06B70CC8E828F83A3A3A36E
:103D6300A3A3A3E06C70BEEEFAEFFB80047A007BA2
:103D7300000252C074F712039A901C5A12428590A3
:103D83001C5A123823687002EB69701EE0C82409BC
:103D9300F582E438F583124BFC901C5A125B0290B7
:103DA3001C5A1242858027124278EE4F60208E8281
:103DB3008F83A3A3A3A3A312381F687002EB6970B8
:103DC300E68A828B83A3A3A3123DDB125B0212114B
:103DD300A2EEFAEFFB0252C0A3A3A3A3A3A312452F
:103DE300E7A3A3A3A3A32274F012039A74FA1209FC
:103DF300738A088B098A828B83A3A3A3A3A3A3A398
:103E0300A3E060336401602F8A828B83125A781295
:103E13002156E97022850882850983A3A3A3A3A35E
:103E2300A3A3A3E0640370147404120953AA08AB98
:103E330009121E26E970167902023FE6850882857B
:103E43000983124BFC7404120BB3125B0212703B16
:103E5300243412619012119C8A0A8B0BAE0AAF0BA9
:103E6300EE4F7003023FE47C347D0079001210E2D0
:103E7300740212094B850882850983A3A3A3A3A314
:103E8300A3A3A3A3E0F91227507402120BB3E0C05B
:103E9300E0123FF5D0E0F0EE242EF50AE43FF50BF7
:103EA3007403120BB3E0850A82850B83F07901EE6C
:103EB300FAEFFB121D6685080C85090D750E007857
:103EC3000C1208F97C1E7D00123FFD1210D67403FC
:103ED3001208BFEE24321243A82434F8E43FF98ACF
:103EE300828B83125B02E5082411F8E43509F9E8B3
:103EF300FCE9FD8C828D831256F92430125AFC1290
:103F030043A01278581208F98C828D8312400C1248
:103F13005A781210D674031208BF7404120BB3122A
:103F230045E3125B02901C36124005A3A3A3F09055
:103F33001C36E004F01212868E828F8312574824B7
:103F43002C1248B3750D00850A82850B83E0780C2B
:103F5300120A8C8A828B83E50CF0123FEBE50C127C
:103F6300575EE4F0E508241512703FA2E074015097
:103F730007120BB374018004120BB3E4F0EE24298F
:103F8300125A2BAA18AB19122774E924FE8508824A
:103F9300850983F0EE2430F8E43FF9E8FCE9FD12EB
:103FA3004014120252E88E828F83A3A3A3A3A3A378
:103FB300A3A3F01240141202528B09EA4509600FC1
:103FC3008E828F83A3A3A3A3A3A3A3A3E004F0EEF2
:103FD30024201259CB44081248FF12113C79008067
:103FE30002791074060243CDEE242BF582E43FF5EB
:103FF3008322EE1265403FF58322EE240BFAE43F61
:10400300FB221268A2A3A3A3221242728A828B8389
:10401300228C828D8312592FE0FA7B002274F412D2
:10402300039AEAFEEBFF1212868E828F83125704E5
:10403300901EB5E0F8EE242D1259CBC3984003022D
:1040430041811248BF7012EE242D1259CB0412592C
:10405300FEC0E0123FEBD0E0F0EE242A1259CBFC75
:104063007900800109EE242E1259CBF8E9C3985048
:1040730026750801750900E97808120A8C1248BFF1
:10408300550860E0E92CFC750801750900E978081A
:10409300120A8CE04508F0EE24291259CBFAEE24DB
:1040A30030F582E43FF583EC8AF0A4F8ABF0E42B1F
:1040B300F9E098F8A3E099F9C3E89AE99400EE408F
:1040C3003124291259CBF81248BF602C123FF51244
:1040D300419CA3E4F0EC7047EE24201259CB44201A
:1040E30012600CC0E01259ECD0E01259F6FAA3E0CA
:1040F3008052123FEC74FFF0901C7AE0FA901EB8E5
:10410300124193ABF075F064A4FAADF075F064EB73
:10411300A42DFB8E828F83A3A3EAF0A3EB80B5EEDD
:1041230024201259CB54DF1259E7ECF0FAEE24297C
:10413300F582E43FF583124193FAABF0EE12568F0A
:104143003F1248D5FB126E74EAF0A3EB126986C0E6
:10415300E0EE2425F582E43FF583D0E0125715E81D
:10416300125A67901C5C125A57600BECF9126DA738
:10417300120525E97017123FFD121E02800F7BE91D
:104183001243BE1227AAEEFAEFFB121D72023A6126
:10419300E0F508EA8508F0A4221268A2A3F02274CD
:1041A300F412039A901C5A1242851212868A0A8BC1
:1041B3000B78FF79FF8020E0C39AFCA3E09BFDC34B
:1041C300EC98ED99500E8E828F83A3A3E0C39AF8E7
:1041D300A3E09BF9124278EE4F605C8E828F8312CC
:1041E3005A78E50AC39AFAE50B9BFB8E828F8312FA
:1041F300426CC3EA9CEB9D8E828F83A3A340B8A33A
:10420300A3A3A3E06402701AEE240B1248C2600950
:1042130012489E125A78121100EEFAEFFB121D7229
:104223008007EEFAEFFB121D7E7A017B00901ED110
:10423300E0F912113C802974FF68700374FF696010
:104243001F88088909E4F50AF50B78081208F57A3E
:10425300017B00901ED1E0F912126274041208BFB0
:10426300023A61A3A3A3A3A3A3A3A312427222E0CE
:10427300FCA3E0FD228E828F83A3A3A3A3A3A3A306
:10428300A3A3E0FEA3E0FF2274F012039A8A088B33
:1042930009ECFAEDFB890A7C0112703BF9121D6CE3
:1042A3008A0C8B0DAE0CAF0DEE4F7003024394E5F9
:1042B3000A60030243941243A01243B668600302E8
:1042C30043941243A0E0FAEE242E1259CBF8EA28C5
:1042D300FAE43400FB8E828F83A3A3A3A3A3A3A337
:1042E300A3E0F8EA98EB9400C365D033401CE508DB
:1042F300241412703FF470127B001243BE1227AADB
:10430300EEFAEFFB121D72024394E50824141270B7
:104313003FF47042EE242B1243A8242EF8E43FF915
:10432300E8FCE9FD7508FF7509008C828D83E07850
:1043330008120A8C8A828B83E508F0124396E508FB
:10434300F08C828D831243B628F0EE242DF582E49F
:104353003FF583E4801BE5082414F8E43509F9E00C
:10436300C0E0124396D0E01261B7C0E0123FEBD039
:10437300E0F01212868E828F83125748123FF61294
:1043830043B2A3125A677A01FB901ED1E0F91211CE
:104393003C803AEE242CF582E43FF58322E50824A1
:1043A300131245D322F8E43FF9E8FAE9FBEE2212AF
:1043B30068A222E0F8EE125CB4E022EE2422125747
:1043C30033FAEE2414125733F9221208BF7F08027E
:1043D300060B74EC12039A74FE1209738A0A8B0B90
:1043E3008C0E8D0F89108A828B83A3A3E0F9122789
:1043F300808A088B09AE08AF09EE4F70077A007BFD
:10440300000245B77A127B0012119C8A088B09EAD5
:10441300450970030245B37C127D0079001210E256
:10442300AA18AB19850A82850B83A3A3E0F9122787
:1044330050E508240FF50CE43509F50D7401120B52
:10444300B3E0850C82850D83F07902AA08AB0912CB
:104453001D66850E82850F831245DB1245F91248CE
:1044630072126952F07512FF751300850C82850D67
:1044730083E07812120A8C1270C5E5121251E81209
:104483006DA5E0C0E01245CBD0E0F0124894F50CE6
:10449300E508240D1270C9E50CF0E50A1248A6855B
:1044A3000CF0A4A9F02427FAE439FB1210FA8A0CC1
:1044B3008B0DAE0CAF0DE508126D7DEEF0A3EFF0A2
:1044C300EE4F70030245A68E828F83741A125A67C9
:1044D3008E828F83A3A3F0A31245FF1245E3125BE1
:1044E30002AC0EAD0F126E7E12275C850A82850B1D
:1044F30083A3A3A3E0C0E0125A0DD0E0F0901C9771
:104503001256F924101245F31256E7350B1256F7DB
:104513001262B6E8F0A3E91245FFA3A3A3A31256C0
:10452300F92412125AFC850A82850B83A3A3E0C0E7
:10453300E01245C1D0E0F0E50A12503C124879E0A0
:10454300C0E0126672D0E0F07416120BB3126DADB8
:10455300C0E0127029D0E0126971C0E0126D83D0FF
:10456300E0126DB6C0E0126D8DD0E012570AE5106F
:10457300F07418120BB3120B6CEE241AF582E43F9D
:10458300F583120B60EE2427F8E43FF9EE242212A0
:1045930045F312617C124879E0C0E0126E86D0E0E8
:1045A300F0800DAA08AB09121D7275080075090089
:1045B300AA08AB0974021208BF7F0C02060BEE2493
:1045C30014F582E43FF583221245CF22E508240B3C
:1045D300F582E43509F5832212592FA3A3A3A3225D
:1045E3001245E722126AE88E828F83A3A3A3A32234
:1045F300F582E43FF583125776E50A22F0850A82B5
:10460300850B83A3A3A3A3A3A32274ED12039A8A06
:104613000A8B0B8C108D118912750900EA1248A6BA
:10462300F508901C5C125A57600EA908126DA71268
:104633000525E9600302486D7C028510828511839C
:10464300125A78E50A124872E0F9121D6C8A0C8B33
:104653000DAE0CAF0DEE4F7054850A82850B83A30C
:10466300E0A2E0400302486D7415120BB312070970
:104673007417120BB312070DA912AC10AD11AA0ACD
:10468300AB0B121D9074061208BF8A0C8B0DAE0C77
:10469300AF0DEE4F700302486D8E828F83A3A3A3E9
:1046A300A3A3A3A3A3E5081248FF12113CA8088EF5
:1046B300828F83A3A3A3A3A3A3A3A3E024FFFAE46A
:1046C30034FFFBEA684B7003750901EE240B1248B3
:1046D300C27003024822850A82850B83A3E0A2E00D
:1046E30050037508001248ECE5089AE49BC365D0B3
:1046F30033401CE0F8EE240E1259CB28F0750CFF62
:10470300750D00E8780C120A8C125F28E50CF0E5B1
:104713000A12487E124879126F2C1208F9E50A1220
:10472300488A350B1262CBEE240D1259CBF50CE5FA
:1047330008850CF0A4FAABF012489E126569242296
:10474300F582E4381248D5FB1210D674031208BF61
:10475300750C011248C7780C120A8C1259C8450C03
:10476300F0E509A2E05063EE240C1248B31248C7E7
:1047730004780C120A8C8A828B83E0450C1257282A
:1047830085080C850CF0A4F8A9F0124894FCE82CD9
:10479300FCE439FD12489E1265692420F582E43851
:1047A300F583ECF0A3ED12574FF4701EEE240BF5D6
:1047B3000CE43FF50DEE12488A3F1248DE12110653
:1047C300850C82850D8374FF80541212868E828F2E
:1047D30083125704901C7AE0FA901EB8E0F50CEAB5
:1047E300850CF0A4FAABF0F8EBF9901EB5E0F50CEC
:1047F300E8850CF0A4F8ACF0850CF0E9A42CF9EAF8
:1048030028F8EB39F9E875F064A4F8AAF075F064B8
:10481300E9A42AF98E828F83A3A3E8F0A3E9F0A881
:10482300081248ECEA24FF1AEB34FFFBEA68700134
:10483300EB600EEE240C1248C26006E509A2E050BC
:1048430029E50A1248ABECF01259C8C0E0E50A2486
:1048530014F582E4124879D0E0F0AC0AAD0B851070
:1048630082851183125A78121DF07F0B02060B12F8
:10487300501C12487922350BF583221248822224D8
:104883000EF582E422E50C12488E222410F582E410
:1048930022E50A12488E124879E022EE12488E3F32
:1048A300F583221248ABE022125016350BF5832212
:1048B300F8E43FF9E8FAE9FB750CFF22EE242B122A
:1048C3005733F422750D00125730F5F0E50884E5EF
:1048D300F022F583E02AFAA3E03B22F583125A8201
:1048E300850C82850D83E0F922EE240E125733FCEA
:1048F300125730FAEC2AFAE43400FB22F07A017BF7
:1049030000901ED1E0F922C082C083901ED1E0F94D
:10491300121106025E2474F412039A8A088B09EBBF
:104923005480703BEAA2E05053121D84E5086401F1
:10493300FAAB09804B8E828F83E06401701A1249AF
:10494300921207091249861208FDEE241212499A9F
:10495300121D9674061208BFEEFAEFFB12110090B7
:104963001ED1E0F91211128A0A8B0BAE0AAF0BEEBD
:104973004F70C2AA08E5096480FB80047A007B00BB
:10498300023A61EE240FF50AE43FF50B780A22EEB2
:104993001250163FF58322125733F9EE2402FCE43A
:1049A3003FFDEE2419FAE43FFB2274F112039A89C6
:1049B3000A8A088B098A828B83125A78121DAE8B5E
:1049C3000DEA450D600579B8024A55121DCCE9F888
:1049D300902D9EE493F9E8C399400479B280737AE9
:1049E300157B0012119C8A0C8B0DAE0CAF0DEE4F94
:1049F30070047910805C8E828F83E4F0A3126ACEF8
:104A0300A3E50A126DC71208F97C127D00EE240398
:104A1300FAE43FFB1210D674031208BF901C5E1217
:104A23005A57901C5E7006EEF0A3EF801FE0FAA3C6
:104A3300E08003E8FAE9FB8A828B83125A5770F30A
:104A4300EEF8EFF98A828B83E8F0A3E9F0121DDE1A
:104A53007900025AC7C082C083901C5E80048C8296
:104A63008D8312426EEC4D60288C828D83A3A3E06C
:104A730069600574FF6970E68C828D83A3A3A3E04C
:104A83006A7003A3E06B70D6EC2403FAE43DFB8069
:104A9300047A007B00025E2474F712039AE9FD7422
:104AA300FE6D70047C0180027C00901C5E80096DA9
:104AB30070027C0188828983125A57601F88828919
:104AC30083A3A3A3E06A7003A3E06B70E7ECA2E007
:104AD30088828983A3A3E050D6F9800279FE02522B
:104AE300C074F612039AE9FF7E00901C5EE0FCA3FB
:104AF300E0802D8C828D83A3A3E06F701E8C828D4A
:104B030083A3124B2D25E0F8E433F9EA28F582EB71
:104B130039F583E508F0A3E509F00E125A44FCE9E0
:104B2300FDEC4D70CEEEF90250B6A3A3125A3CEE43
:104B33002274F712039AE9FE901C5E124BFC7C0070
:104B43007D00800BE8FCE9FD88828983124BFCE839
:104B530049603D88828983A3A3E06E70E7888289D8
:104B630083A3A3A3E06A7003A3E06B70D7EC4D8823
:104B73008289837008125A78901C5E80031252ACAB
:104B830012623BFAE9FB1211A2121DDE79018002C7
:104B930079000252C074F512039A890A901C5E12BE
:104BA3005A78750800750900801512592BE8F0A38F
:104BB300E912574FFEA3E0FF1211A2EEFAEFFBEA50
:104BC3004B602B8A828B83A3A3E0650A7012E508EE
:104BD30045098A828B8370D2124BFC901C5E80CD78
:104BE3008A088B098A828B83E0FAA3E080D0121DA6
:104BF300DE02713A8E828F83A3124C0022126AE87E
:104C030022125A82EA4B22C082C0837900901C5E32
:104C1300800109125A788A828B83E582458370F278
:104C2300025E2474F612039AE4F508F50978081273
:104C330008FD902D9EE49375F013A4A9F0124D681E
:104C430012121474021208BFE9FE6003121DD80287
:104C53004B2874F612039A74FE1209738518828521
:104C63001983E4F0A3F0A818A9198808890978081A
:104C73001208FD75080275090078081208FD7C000A
:104C83007D007A427B0012122074041208BF025086
:104C9300B174F512039A74EB12097385188285199E
:104CA30083E4F0A3F0901C5EE0FEA3E0807E8E829E
:104CB3008F83A3A3E0C0E07402120BB3D0E0124DC4
:104CC3007CA982AA8389088A09750A0078081208D0
:104CD300F97C127D007406120BB3AA82AB83121007
:104CE300D674031208BF740212094388088909782D
:104CF300081208FD75081375090078081208FD7479
:104D030004120BB3125A4875F013A4F8AAF075F005
:104D130013E9124D6412122074041208BF8518821D
:104D2300851983124D73126FF7E8FEE9FFEE4F60AA
:104D330003024CB1A818A919880889097808120830
:104D4300FD75080275090078081208FD7C007D00D6
:104D53007A427B0012122074041208BF7415027188
:104D630037A42AF9E82402FCE439FD7A427B0022C5
:104D7300E02401F0A3E0340022124D8022124D847E
:104D830022124D8822126AD3A3A3A32274F412031E
:104D93009A74EB1209737E007F00A818A91988087A
:104DA300890978081208FD7508028E097808120827
:104DB300FD7C007D007A427B0012122674041208E7
:104DC300BFE9706E8E0880587402120943880A89FD
:104DD3000B780A1208FD750A13750B00780A12087E
:104DE300FDE50875F013A4F8AAF075F013E50912B0
:104DF3004D6412122674041208BFE9701B74031267
:104E03000BB3AA82AB837402120BB3E0F9121DA891
:104E1300E970050EEE70010F0508E508700205093B
:104E2300851882851983124BFCC3E50898E5099917
:104E33004096EEFAEFFB7415023A5E74F612039A8B
:104E43008C828D83A3A3125072F0EA2417F582E4B7
:104E53003BF583E0C0E0125042D0E0F01250221242
:104E63004BFC12502C125072A3F0A3F0EA241FF54E
:104E730082E43BF583124285EC1256E73DF583EE5F
:104E8300F0A3EFF0EA125F223BF583125053A3A382
:104E9300A3A3A3A3EEF0A3EF1261B7FE8C828D83CD
:104EA30012509C74035EFEC394034003025009EE48
:104EB300600574026E70798C828D83E0540CFE74ED
:104EC3000C6E7003024F70E0A2E4400D8882898368
:104ED300E08C828D83A31250A474086E6003024F8A
:104EE300701250347401F08A828B83A3A3A3A3A30B
:104EF300125ABC70148C828D83E0440C12507CA334
:104F0300A3125053EEF0A3EFF08C828D83E0A2E462
:104F1300401E12506112508D500109125061A3A31B
:104F230012508D5001098882898312504A12509C75
:104F330088828983E0C0E0EC12501C3DF583D0E009
:104F430012509C8C828D83E0A2E7507888828983FB
:104F5300E0FE8C828D831250A474FC5E700C8C82F4
:104F63008D83A3E054036403701B02500912503471
:104F7300E4F0740C6E6003024EEA12506112508F1B
:104F830050870980848C828D83A3E0540360388822
:104F9300828983E0C0E0EC1250163DF583D0E01225
:104FA30050A58C828D83E054036402701A88828931
:104FB30083E0C0E0EC2414F582E43DF583D0E012F5
:104FC30050A58003A3E4F0EC12487E3D125B00EC95
:104FD3002410FEE43DFF125022E0F5088E828F83F9
:104FE300E0C3982508F508F0EA2417F8E43BF988AC
:104FF300828983E0C39508C0E012502CD0E012618F
:10500300B7C39508500A12502CE4F0125042E4F052
:105013000250B62413F582E4222411F582E422EA35
:10502300241DF582E43BF58322EC125F223DF583D8
:1050330022EC12503C3DF58322240CF582E422EC51
:1050430012488E3DF58322E08C828D83A3A3A32295
:10505300E0FEA3E0FF8C828D83A3A3A3A322888217
:105063008983E0F508A3E0FFE5088C828D8322E4C1
:10507300F08C828D83A3A3A322125084A3A3A3A3A2
:1050830022F08A828B83A3A3A322A3A3A3A3A3A314
:10509300F0A3EFF0E82402F8221250ACA882A9830F
:1050A30022A31250AC08A983221261BCA32274026A
:1050B3001208BF7F0202060B74F412039A74F312F0
:1050C30009738A0A8B0BECFEEDFF8E828F83E0540B
:1050D3000CF508E0A2E75006E508D2E7F508E50875
:1050E300D2E1F508125ABC7006E508D2E4F508E0EF
:1050F300A2E55006E508D2E5F5087C087D007900B5
:10510300AA18AB191210E27402120BB3E50812517C
:10511300E8C0E07403120BB3D0E012575EE50AF067
:10512300A3E50BF07405120BB31262D2121E9E7428
:105133000C120BB3E070787408120BB3126569128A
:10514300617C38126B78C0E07408120BB31251DC27
:10515300D0E01265BCC0E07408120BB31251D0D07A
:10516300E0F07408120BB31258A91251BF12600C6D
:1051730012573B24111259CBC0E01251B7D0E0F0C3
:10518300EE24141259CBC0E07408120BB3126569F4
:105193002435F582E438F583D0E0125720C0E0745B
:1051A30008120BB31256D1D0E01262D4121EA474AB
:1051B3000D023A5EE812568F39F58322125A7CE8C3
:1051C300242AF582E439F583EAF0A3EB221265B7CA
:1051D3002427F582E438F583221265B72426F58265
:1051E300E438F58322126ACEE02274F712039A7E22
:1051F300008A828B83A3A3A3A3A3A3A3A3A3E06493
:10520300046003025299125AB4E0600302529912E5
:10521300529D3B125A55607E88828983E054037005
:1052230075E8240C125C9DFA8C828D83A3A3E0FBAA
:10523300A3E0CB12501C3BF583E06A705988828946
:1052430083A3A3A3A3A31252A8E06A7003A3E06BF2
:105253007044888289831252A8A3A3125CCA2406CD
:105263001259CB6A7003A3E06B702B88828983A3E6
:10527300A3E0F88C828D83A3A3E0F9A3E0F58389EF
:1052830082A3A3E068600D8C828D83125A15540C9F
:10529300640470027E01EEF98023EA1252A22224F2
:1052A3000FF582E422A3A3A3A3125A828C828D83D7
:1052B30022740C120BB3E0F9740D1208BF7F0102C4
:1052C300060B74F612039A74FC120973EAFEEBFFE1
:1052D300ECFAEDFB8A828B83A3E054036016901CE7
:1052E30050125A5760597900EEFCEFFD126DA71268
:1052F3000525804B851882851983EEF0A3EFF074A2
:1053030002120BB3125704AC18AD197AF67B1D12B7
:10531300204E8A088B09A808A909E84960218882D8
:105323008983A3A3A3A3A3A3A3A3A37406F07A00CF
:1053330088828983126569126546E0F9121F7074C9
:10534300040250B374F212039A74F3120973EAFE5F
:10535300EBFF8E828F83A3A3A3A3A3A3A3A3A3A3E0
:10536300E0F50A901ED0E0700579BA02568A7508F6
:1053730001750900750C00750D007C087D0079002E
:10538300AA18AB191210E27405120BB37401125769
:1053930056540460127402120BB3E0D2E61257564D
:1053A30054087003750803E0541060067440450800
:1053B300F508E0540860227402120BB3E044C012F3
:1053C30057565420600A7403120BB3E0D2E08008EE
:1053D3007403120BB3E0D2E1F0EE24151259CB1291
:1053E30056B97003740169700674084508F5088E90
:1053F300828F83A3A3A3A3A3A3A3A3E07016122066
:10540300BA8518828519831257047402120BB3E00C
:10541300D2E2802C640F70107402120BB312576621
:1054230074044508F508807B8E828F83A3A3A3A30E
:10543300A3A3A3A3E064028E828F8370061260008D
:10544300F08060A3A3A3A3A3A3A3A3E06403700DAD
:10545300AC18AD19EEFAEFFB121E2680468E828F32
:1054630083A3A3A3A3A3A3A3A3E064017035901C08
:10547300DAE060107402120BB312576675091075E7
:105483000AFF80187402120BB3E0440C12575E74C7
:10549300FDF0A374FFF074044508F5088E828F8332
:1054A3001256C5EE24151259CBA2E0503F740212D6
:1054B3000BB3E0540C701B8E828F83125A78121830
:1054C3001AE9700579BB02568A7402120BB3E0D253
:1054D300E5F0EE24151259CBA2E050107402120B22
:1054E300B3E0540C64047004E0D2E5F0EE2411122E
:1054F30059CBC0E07404120BB3D0E01262D4121E75
:105503009E740C120BB3E060030256837408120BF3
:10551300B31256EDE508F0A3E509F0EE241812598D
:10552300CBC0E01256A8D0E012570AE0C0E07408DE
:10553300120BB312656912501638F583D0E012606E
:105543000C64017011901CDAE0C0E07408120BB314
:105553001256DDD0E0F07408120BB31256F924177B
:105563001259CBFAE8241CF582E439F583EA125A7E
:1055730067EE2415FAE43FFB8A828B8312426EE8BE
:1055830012569FECF0A3ED125715E0C0E0125695AA
:10559300D0E012574F1256B9700374016970137437
:1055A30008120BB3125A8FFAEE241D1259CBF912BB
:1055B3001BE08E828F83A3A3A3A3A3A3A3A3A3E030
:1055C300C0E07408120BB31251DCD0E0F07408127F
:1055D3000BB31251D0E50AF07408120BB3125A48F8
:1055E3002428F582E439F583E50CF0A3E50D125781
:1055F30028FAA3E0FBE8242A125742240F1259CBBE
:1056030012573B24171259CBC0E0E82433F582E448
:1056130039F583D0E0F01256B2C0E07408120BB330
:105623001256D1D0E0F0EE241A1259CBC0E0740820
:10563300120BB312656912568F38F583D0E01257F7
:10564300201230F31208F9126D7512426E740B12A8
:105653000BB3125FDE1210D674031208BFEE2415CB
:105663001259CB54406012901C6A125A57600AAA0E
:1056730018AB19126DA7120525AA18AB19121EA48F
:10568300740C120BB3E0F9740D0231562432F58217
:10569300E422E82420F582E439F58322241EF582EE
:1056A300E439F58322E82412F582E439F58322EE06
:1056B300241B125733225480F8A3E05401F9748059
:1056C30068221256C922E0F50CA3E0F50D221265FB
:1056D300B72434F582E438F583221265B71256E70E
:1056E30038F583222415F582E422125A4C1252A271
:1056F30039F58322F583124C00EE22F582E439F565
:1057030083EAF0A3EBF022F0EE2419F582E43FF5EF
:105713008322F0EE241CF582E43FF58322F0EE248D
:105723001312573322F0EE240D12573322EE240FB7
:10573300F582E43FF583E022FAA3E0FBE8242CF5AD
:1057430082E439F583EAF0A3EBF0EE22F08A828B50
:1057530083E022F0EE241512573322F08518828558
:10576300198322E0D2E3126FFB125770228518824D
:10577300851983E8F0A3E9F02274F712039A7E6394
:105783008A828B83E0600C7905121F4CE9F874560A
:10579300C398FE901C82E0600CF9121F4CE9F8EEEE
:1057A300C39824F2FE02529974F612039A74FE12FD
:1057B3000973851882851983125704E9FEECFAED03
:1057C300FB9004D4125A576035A818A91988088980
:1057D3000978081208FD7D01740E120BB3E0FCEE8C
:1057E300F99004D412656212052574021208BF8B66
:1057F30009EA450960047900800679B2800279B626
:105803000250B174F712039AE9FE901C44125A57DE
:10581300601F7409120BB3E0F5087808120901EE52
:10582300F9901C4412656212052574011208BF80A9
:105833000279B60252C074F712039A8908ECFEED9E
:10584300FF79B5E508245F600C14603114601224FD
:10585300F86045804E901C371258A9E8F0A3E98000
:10586300199004D6124C04603A9004D61265621261
:1058730005258E828F83EAF0A3EBF08024901C46EB
:1058830012426EEC4D601CEEFCEFFD901C4612655F
:1058930062120525E9F9800B901C4212687A1212F4
:1058A300B079000252C0124C008E828F832274F7AB
:1058B30012039AE979B5245F600624F6600E801717
:1058C3008C828D831258DD125B028009901C421278
:1058D3005A781212B079000252C0124C00901C3751
:1058E30022A90A02315974F212039AEAFEEBFF8CE1
:1058F300088D09750A011220B48A0C8B0DAC0CAD0E
:105903000DEEFAEFFB1212AAE96401700B901C8AE8
:1059130012592B125B02800EAC08AD09EEFAEFFBB5
:105923001219D6E9F50A80B912592F22126AE885AD
:1059330008828509832274F612039AEAFEEBFF7A42
:105943000D7B0012119CEA4B6070EE242412701D33
:10595300F0EE242512701DA31259E7127023A3A39E
:10596300126DBC1259CFF0EE125CB0124BFC8A825E
:105973008B83A3A3A3A3E8F0A3E91259FE1259D87A
:10598300125B02EE242EF582E43FF5831259CFA376
:10599300A3A3A3A3F0EE24331259CBC0E01259C042
:1059A300D0E0126B7C1259D8A3A3A3E8F0A3E912A9
:1059B30059F6C0E0125AB4D0E0F00250B6EA125CD5
:1059C300AA3BF58322EE240C12573322E08A828B02
:1059D30083A3A3A322F8A3E0F98A828B83A3A3A3BF
:1059E300A3A3A322F01259EC22EE2426F582E43F6E
:1059F300F58322F0EE243212573322F0EE242C12D8
:105A0300573322125776126D9B22EE1252A23FF5A4
:105A13008322A3A312639822E508240F1245D322FD
:105A2300125A2B8882F58322F8E43FF98808890902
:105A330022A3A3A3A3125A3C22E0F508A3E0F5098D
:105A4300228C828D83125A4C22126AE8E822F58254
:105A5300E438F583125A4C49221265B71252A23820
:105A6300F5837404F0A3E4F0228E828F83A3A3A3AF
:105A7300A3A3A3A3A3125A8222A3A3A3A3A3A3E032
:105A8300FAA3E0FB22A3A3125F41A322125AEBE085
:105A930022125A9822125A9C22127044F8A3E0222E
:105AA300125A98F922C082C083125AB4E4F0025EFB
:105AB30024EA12503C3BF58322E054036401227430
:105AC3000D1208BF7F0702060B790102088AF8E46A
:105AD3003FF988828983E0FAA3E0CA22126537A3DB
:105AE300A322125ADFA3A3221261CDC8124882381F
:105AF300F58322124C00EE240BF582E43FF583126A
:105B0300577622C082C083125AB47401F0025E2415
:105B1300025ACCC082C083901C607432F0A3741EFE
:105B2300F0901C62743EF0A3741EF0901C647444E5
:105B3300F0A3741EF0901C667438F0A3741EF00278
